:020000040800F2
:1000000058090020590200083D0200083F0200087C
:1000100043020008470200084B02000800000000ED
:100020000000000000000000000000004F02000877
:1000300051020008000000005302000855020008A9
:1000400073020008730200087302000873020008BC
:1000500073020008730200085B05000873020008C1
:10006000730200087302000873020008730200089C
:10007000730200087302000873020008730200088C
:10008000730200087302000873020008730200087C
:10009000730200087302000873020008730200086C
:1000A000730200087302000873020008730200085C
:1000B000730200087302000873020008730200084C
:1000C000730200087302000873020008730200083C
:1000D000730200087302000873020008730200082C
:1000E000730200087302000873020008730200081C
:1000F000730200087302000873020008730200080C
:10010000730200081121000873020008730200083E
:1001100073020008730200087302000873020008EB
:1001200073020008730200087302000873020008DB
:1001300073020008730200087302000873020008CB
:1001400073020008730200087302000873020008BB
:1001500073020008730200087302000873020008AB
:10016000730200087302000873020008730200089B
:10017000730200087302000873020008730200088B
:10018000730200087302000800F002F800F03CF867
:100190000AA090E8000C82448344AAF10107DA45E2
:1001A00001D100F031F8AFF2090EBAE80F0013F0F8
:1001B000010F18BFFB1A43F00103184788330000F2
:1001C000A8330000103A24BF78C878C1FAD8520783
:1001D00024BF30C830C144BF04680C6070470000C1
:1001E0000023002400250026103A28BF78C1FBD840
:1001F000520728BF30C148BF0B6070471FB503F0DE
:100200009CF91FBD10B510BD03F05EF91146FFF754
:10021000F5FF00F011F803F07CF903B4FFF7F2FFEB
:1002200003BC03F083F9000030BF72B6704762B6BA
:10023000704780F30888704700BFFEE7704700BF33
:10024000FEE700BFFEE700BFFEE700BFFEE7704726
:1002500070477047704700000948804709480047C9
:10026000FEE7FEE7FEE7FEE7FEE7FEE7FEE7FEE766
:10027000FEE7FEE704480549054A064B70470000C3
:100280007503000889010008580300205809002060
:1002900058050020580500200CB500200190009062
:1002A0007648006840F480307449086000BF7348A5
:1002B000006800F4003000900198401C0190009804
:1002C00018B90198B0F5A04FF1D16C48006800F45E
:1002D000003010B10120009001E000200090009853
:1002E000012846D165484030006840F0805063499D
:1002F000403108606248006840F44040604908604E
:100300005E48083000685D490831086008460068AA
:1003100040F4004008600846006840F4A0500860BF
:100320005848091F0860081F006840F08070091FC6
:10033000086000BF5148006800F000700028F9D044
:1003400040F20570504908604C480830006820F0C1
:1003500003004A49083108600846006840F002007E
:10036000086000BF45480830006800F00C0008280D
:10037000F8D10CBD10B54548006840F47000434901
:1003800008603E48006840F001003C4908600020D9
:100390003A4908310860394800683D490840374902
:1003A00008603C48091D0860081F006820F4802090
:1003B000091F0860002031490C310860FFF76CFF0D
:1003C0004FF0006031498039086010BD70B50020E1
:1003D0000022022300240221284D08352D6805F053
:1003E0000C0020B1042806D0082834D107E02A4D9B
:1003F0002A4E356033E02A4D284E35602FE01F4DE0
:100400002D1D2D68C5F380541C4D2D1D2D6805F044
:100410003F0154B1224DB5FBF1F5184E361D36683B
:10042000C6F3881605FB06F209E01B4DB5FBF1F596
:10043000124E361D3668C6F3881605FB06F20F4DC0
:100440002D1D2D68C5F301456D1C6B00B2FBF3F546
:10045000124E356003E0104D104E356000BF00BFF6
:10046000064D08352D68C5F303150E4E705D0B4D16
:100470002D68C540094E356070BD0000003802404F
:100480000070004008544007003C024088ED00E046
:10049000FFFFF6FE103000240024F40000000020CE
:1004A00000127A00040000201CB50121402002F057
:1004B000A9FA012000908DF8040000208DF80600B4
:1004C00003208DF8050001208DF8070069462748B4
:1004D00001F0FAFF0121254802F072F81CBD1CB59D
:1004E0000121202002F08EFA0120009000208DF8DA
:1004F000040003208DF8050001208DF807006946EF
:100500001B4801F0E1FF1CBD0EB5FFF7E8FFFFF748
:10051000CBFF0121880302F0CFFA0021052002F071
:1005200020FF0120009000208DF804000C208DF8A1
:10053000050001208DF80600684602F087FE0620BF
:100540008DF8080001208DF809008DF80A008DF85B
:100550000B0002A801F0C7FE0EBD10B5012002F08D
:10056000E6FE0121014802F02BF810BD0018024000
:10057000001402400020FE490860091D0860091DA2
:100580000860091D0860FA4924310860091D0860E7
:10059000091D0860F748F649383108600020091D38
:1005A0000860704701460020012900D011B9F24BC4
:1005B000197000E0262070470146ED4A121D1068B0
:1005C00020F0FF0008431060704770B5044606E055
:1005D000E7483430056805F0450000B100E0F7E772
:1005E00000BF042002F0FEFD20B1042002F005FE51
:1005F000032070BD012002F0F5FD20B1012002F0C2
:10060000FCFD0120F5E7DA4810300068A04201D077
:100610001020EEE740F2FF5002F0EFFDD448143016
:10062000006808210840C0B2E3E72DE9FC41074615
:100630000D46002600240020009001900820CF499C
:10064000086010204860402088600020C8604FF497
:1006500080600861084602F032FD1020FFF7B5FF08
:10066000044614B12046BDE8FC81C548008800045A
:10067000C249086037204860402088600020C86078
:100680004FF480600861084602F019FD3720FFF73B
:100690009CFF04460CB12046E5E74FF0FF30B94916
:1006A000086008204860302088600220C860002070
:1006B000086101204861084602F02DFD0020AF4985
:1006C000086033204860402088600020C8604FF4F4
:1006D00080600861084602F0F2FC3320FFF775FFE6
:1006E00004460CB12046BEE70DE04FF4001002F0C6
:1006F00079FD40B19E48803000684DF82600761C98
:10070000022E00D307E09A483430006840F22A6194
:1007100008400028E9D000BF082002F063FD20B1A6
:10072000082002F06AFD04209DE7022002F05AFD35
:1007300020B1022002F061FD022094E7202002F0A7
:1007400051FD20B1202002F058FD06208BE74FF428
:10075000007002F047FD28B14FF4007002F04DFD2B
:10076000072080E740F2FF5002F047FD00980006A6
:10077000009901F47F4140EA0120009901F47F01D2
:1007800040EA1120009940EA116068600198000673
:10079000019901F47F4140EA0120019901F47F01B0
:1007A00040EA1120019940EA1160286020465AE78A
:1007B0007CB50546002400200090019000260DB174
:1007C000022600E000266A481430006800F000703D
:1007D00008B10E207CBD6A49098888B26946FFF7D6
:1007E00024FF04460CB12046F4E7019800F4802071
:1007F00060B363480088000460490860372048609F
:10080000402088600020C8604FF48060086108467E
:1008100002F055FC3720FFF7D8FE04460CB1204605
:10082000D8E7564806600620544948604020886052
:100830000020C8604FF480600861084602F03FFC69
:100840000620FFF7C2FE04462046C3E72520C1E785
:1008500070B5044600254C480078032802D12725AE
:10086000284670BD4848007838B1474800780128CC
:1008700003D045480078022819D1B4F5805F02D131
:1008800027252846EDE7E0B2FFF792FF054675B948
:100890003748001D006820F4C0503549091D086024
:1008A000084600682043086008460068086028463B
:1008B000D7E710B504463148046007202F49486047
:1008C000402088600020C8604FF4806008610846BE
:1008D00002F0F5FB0720FFF778FE10BDF0B50146EA
:1008E00000200022284B1B7881F85630244B1B88AF
:1008F000A1F85430254B1B681A0E93090B70C2F3F4
:1009000083034B7002F003038B70204B1B68C3F30F
:100910000742CA701D4B1B88C3F307220A711B4B89
:100920001A784A715B681A0E1301CB80174B5B680B
:10093000C3F30742CB8843EA1213CB8002F00F03C4
:100940000B72124B9B88C3F30722D3094B72C2F37D
:1009500080138B72C2F34013CB72C2F300130B737C
:1009600000234B73084B1B78C3B1074B1B780FE078
:10097000002C0140FF07C0001C0000205000002098
:100980001800002064000020140000207C000020DB
:10099000012B03D0FE4B1B78032B4FD193071B0D6C
:1009A0000B61FC4B1A790B6943EA82030B61F94B2B
:1009B0009B681A0E0B6943EA92130B61C2F3C203E0
:1009C0000B7502F007034B75F24B9B68C3F30742AC
:1009D00053098B75C2F38203CB7593075B0F0B76BC
:1009E000EC4B1B89C3F307220B7E43EAD2130B7631
:1009F0000B695B1C0024C1E912340B7E9B1C012691
:100A000006FA03F3DE17D1E91245A4FB037C05FBCC
:100A100003C304FB0633C1E912730C7A0123A3401C
:100A20000B650024D1E912560B6DA5FB037C06FB78
:100A300003C305FB0433C1E912732CE0D44B1B78CC
:100A4000022B28D1D34B1A7993069B0A0B61D14B09
:100A50009B681A0E0B6943EA02230B61CD4B9B681E
:100A6000C3F307420B6913430B61CA4B1B89C3F3E2
:100A700007220B695B1C4FF40074A3FB043566006E
:100A80000027A3FB064C05FB06C503FB0753C1E982
:100A9000124373100B65C2F3801301F8193F9306DC
:100AA0005B0E4B70BB4B1A7A4B7843EAD2134B70F8
:100AB00002F07F038B70B74BDB681A0ED309CB7043
:100AC000C2F341130B71C2F382034B7193071B0FE7
:100AD0008B71B04BDB68C3F307428B7943EA921307
:100AE0008B71C2F34013CB7100230B7202F0010330
:100AF0004B72A84B9B89C3F30722D3098B72C2F3B5
:100B00008013CB72C2F340130B73C2F300134B7309
:100B1000C2F381038B7302F00303CB739D4B1A7BEB
:100B200053080B7401234B749B4B1B681A0ECA7439
:100B30001939994B1B68C3F307421402CC85964BB5
:100B40001B88C3F30722CB8D1343CB85924B1A78B6
:100B500014060C635B681A0E0B6B43EA02440C63C9
:100B60008D4B5B68C3F307420B6B43EA02240C63B3
:100B7000894B9B88C3F307220B6B13430B63864B94
:100B80001A7934235A54844B9B681A0E35235A54CD
:100B9000814B9B68C3F3074214068C637E4B1B8911
:100BA000C3F307228B6B43EA02448C637A4B1A7AB5
:100BB0008B6B43EA02248C63774BDB681A0E8B6BDA
:100BC00013438B63744BDB68C3F307423C235B5CCA
:100BD00043EA12143C235C5413071C0DCC876E4B64
:100BE0009B89C3F30722CB8F1343CB876A4B1A7BB6
:100BF000540840235C54012441235C54F0BD70B57B
:100C000000264FF4803505E06448046804F0450090
:100C100000B103E0281EA5F10105F5D100BF15B113
:100C200004F0040028B10326042002F0E6FA30465E
:100C300070BD012002F0D6FA18B10126012002F0A1
:100C4000DCFA40F2FF5002F0D8FA3046F0E72DE926
:100C5000F04105460E464FF0000805E04F48076892
:100C600007F0450000B100E0F8E700BF042002F003
:100C7000B9FA28B1042002F0C0FA0320BDE8F081DF
:100C8000012002F0AFFA20B1012002F0B6FA0120F3
:100C9000F4E7424824380068A84201D01020EDE76C
:100CA00040F2FF5002F0A9FA3C482038046804F4EE
:100CB000604018B9200C30804046DFE704F4005053
:100CC00008B11320DAE704F4804008B11020D5E71A
:100CD00004F4004008B10F20D0E74046CEE738B515
:100CE00000240120009002F0E4F910B925242046E8
:100CF00038BD27480078042825D0002028490860FE
:100D000002204860C02088600020C8604FF48060E6
:100D10000861084602F0D3F9FFF771FF04460CB1F1
:100D20002046E5E71D48203800681B4908601B483D
:100D30001C380068486019481838006888601748EF
:100D400014380068C8601248007858B1104800781C
:100D5000012807D00E480078062803D00C480078F8
:100D6000022821D100200E4908600320486040205D
:100D700088600020C8604FF480600861084602F077
:100D80009EF969460320FFF762FF044664B109E05B
:100D9000140000207C0000208C000020342C014036
:100DA000500000202046A3E7FE480078032816D113
:100DB000BDF800000004FC490860032048604020A2
:100DC00088600020C8604FF480600861084602F027
:100DD00076F9FFF714FF04460CB1204688E7F14886
:100DE000007804282AD0BDF80000F0490860BDF85A
:100DF00000000004EC49086009204860C0208860B9
:100E00000020C8604FF480600861084602F057F97E
:100E1000FFF7F5FE04460CB1204669E7E448006898
:100E2000E4490860E248001D00684860E048083076
:100E300000688860DE480C300068C860002057E712
:100E400010B506E0DA482030046804F0450000B12F
:100E500000E0F7E700BF042002F0C4F920B104204D
:100E600002F0CBF9032010BD40F2FF5002F0C5F9AB
:100E70000020F8E770B500264FF4803506E0CC4836
:100E80002030046804F0450000B103E0281EA5F1FD
:100E90000105F4D100BF15B104F0040028B1032608
:100EA000042002F0AAF9304670BD04F0400018B1E9
:100EB0000026402002F0A1F93046F5E770B5002584
:100EC0004FF4803404E0802002F08CF900B103E09C
:100ED000201EA4F10104F6D100BF0CB9032070BD9F
:100EE00040F2FF5002F089F92846F8E72DE9F04773
:100EF0000027002400260025A046A1467620AE4902
:100F000008750020086048608860C860086108466D
:100F100002F0ABF8032002F0C8F8A54810380068CA
:100F200040F48070A2491039086000BF12E0002030
:100F30009D49086048608860C8604FF4806008611F
:100F4000084602F0BCF8FFF7B9FF044604B903E015
:100F5000781CC7B24A2FEADB00BF14B12046BDE8B7
:100F6000F0874FF4D5709049086008204860402011
:100F700088600020C8604FF480600861084602F075
:100F80009EF8FFF777FF044624B9012085490870D1
:100F90004FF0804900208449086037204860402095
:100FA00088600020C8604FF480600861084602F045
:100FB00086F83720FFF709FB0446002C4BD134E0BC
:100FC0000020794908603720486040208860002070
:100FD000C8604FF480600861084602F070F837205E
:100FE000FFF7F3FA04460CB12046B8E7734849EA24
:100FF00000006D490860292048604020886000207A
:10100000C8604FF480600861084602F058F8FFF7A6
:1010100017FF04460CB12046A1E765480668012089
:1010200080EAD67080F001086D1CB8F1000F03D182
:101030004FF6FF708542C3D34FF6FF70854202D34F
:101040001B2420468BE706F08040061E32D002208B
:10105000544908702EE01CE05948534908600120AB
:101060004860402088600020C8604FF480600861BC
:10107000084602F024F8FFF7E3FE04460CB12046D0
:101080006DE74B480668012080EAD67080F00108C1
:101090006D1CB8F1000F03D14FF6FF708542DBD312
:1010A0004FF6FF70854202D31B24204657E70320EA
:1010B0003C490870204652E73EB500240025012136
:1010C000404801F09FFC0121C80201F0F5FC01211C
:1010D000C80201F046FD4FF4F850019002208DF84F
:1010E00008008DF8090000208DF80A0001208DF815
:1010F0000B0001A9344801F0E7F90420019001A98F
:10110000324801F0E1F90C2208212F4801F067FA7A
:101110000C2209212C4801F062FA0C220A212A48EB
:1011200001F05DFA0C220B21274801F058FA0C223D
:101130001146254801F053FA0C220221234801F000
:101140004EFA00214FF4006001F00BFDFFF712FA98
:1011500031208DF8000000208DF801008DF802008C
:1011600001208DF80300684601F0BDF8FFF7BEFED0
:10117000044614B9FFF7B3FD04461CB91448FFF741
:10118000ADFB044634B91249B1F854100804FFF716
:1011900090FB044624B94FF40060FFF759FB044666
:1011A000E4B117E0140000205000002018000020D7
:1011B000142C01407C00002038000020000010802A
:1011C0000080FF800C00400000080240000C02403C
:1011D000A0000020FE480078032812D1FD4890F8B6
:1011E000560020B1FB4890F85600012801D1022595
:1011F00000E000252846FFF7DFF90020FFF7D2F9CD
:10120000044620463EBD10B5002001F04EFF0020F0
:1012100010BD70B590B004460E46154600BFEE48AE
:1012200001F06DFE0028FAD1EB4801F03FFD4FF0D0
:1012300000600190E9480290039404950020059015
:1012400006904FF48060079080000890800009901D
:1012500000200A904FF440300B9004200C900320A3
:101260000D904FF400000E9080100F9001A9DA4805
:1012700001F0BEFD2021D84801F00AFE0121D64828
:1012800001F0F0FD10B070BD0146002002E04910F1
:10129000421CD0B20129FAD170472DE9F84F81469E
:1012A000174698460A9C4FF0000AD3464D464FF029
:1012B000FF36B9F1000F02D12620BDE8F88F0020DB
:1012C000C64954390860C2480078022805D1040292
:1012D000780A40EAC8574FEA68280020C049886069
:1012E0004860401E0860012048610020C860086115
:1012F000084601F010FFB9486C38006800F0007033
:1013000008B10E20D9E7002C21DDB4F5006F1EDCFA
:10131000601E2040D8B92046FFF7B6FF0090B148C4
:1013200004601020AF494860402088600020C860F9
:101330004FF480600861084601F0C1FE1020FFF7FD
:1013400044F98246BAF1000F03D05046B5E7262093
:10135000B3E700980001A2498860084644604FF056
:10136000FF300860012048610220C8600020086149
:10137000084601F0D0FE9B4807601120994948605B
:10138000402088600020C8604FF4806008610846F3
:1013900001F095FE1120FFF718F98246BAF1000F0F
:1013A00001D0504689E79048007800285AD1FEF7CE
:1013B0003CFF17E04FF4004001F014FF70B14FF014
:1013C000000B05E08548006845F82B000BF1010B88
:1013D000BBF1080FF6D32035844E03E00EB904208C
:1013E0006BE7761E7D484C38006840F22A61084061
:1013F0000028DFD0082001F0F5FE20B1082001F020
:10140000FCFE042059E7022001F0ECFE20B102208E
:1014100001F0F3FE022050E7202001F0E3FE20B1AE
:10142000202001F0EAFE062047E74FF4007001F0AB
:10143000D9FE28B14FF4007001F0DFFE07203CE731
:1014400003E06648006828602D1D4FF4001001F08D
:10145000C9FE0028F5D1FEF7EAFE40F2FF5001F088
:10146000CCFE39E060480078012835D10020604981
:10147000087060490870604908705848443800682E
:1014800040F22A31084355494439086053485438DA
:10149000006840F008005149543908600022214694
:1014A0004846FFF7B6FE00E0761E4B485838006805
:1014B00000F0006038B95048007820B94C480078F6
:1014C00008B9002EF0D10EB90420F6E6484800789D
:1014D00010B1474890F800A05046EEE62DE9FF5FB6
:1014E00017469846DDE90E464FF00009CA464FF010
:1014F000FF35424900980860002038495439086097
:1015000033480078022805D10402780A40EAC85717
:101510004FEA68280020324988604860401E086011
:10152000012048610020C8600861084601F0F3FD11
:101530002A486C38006800F0007018B10E2004B022
:10154000BDE8F09F002C21DDB4F5006F1EDC601EAD
:101550002040D8B92046FFF797FE83462148046013
:10156000102020494860402088600020C8604FF467
:1015700080600861084601F0A2FD1020FFF725F801
:101580008146B9F1000F03D04846D8E72620D6E7B8
:10159000012E6ED906FB04F0B0F1007F01D32620A6
:1015A000CDE74FEA0B100E49886006FB04F0486057
:1015B0004FF0FF300860012048610220C860002021
:1015C0000861084601F0A7FD06480760122017E0F1
:1015D00014000020A000002058640240802C01402C
:1015E00064000020500000201C000020FFFF7F004E
:1015F0001E0000201D0000201F00002020000020F1
:10160000F9494860402088600020C8604FF480603D
:101610000861084601F053FD1220FEF7D6FF81460F
:10162000B9F1000F01D0484689E7F048007800285A
:101630007ED1FEF7FAFD1EE04FF4004001F0D2FD2E
:10164000A0B14FF0000A07E0E9480068E9490968DD
:1016500041F82A000AF1010ABAF1080FF4D3E5486B
:1016600000682030E3490860E34D04E015B9042028
:1016700065E7AEE06D1EDE484C38006840F22A3166
:1016800008400028D8D0082001F0ACFD20B1082087
:1016900001F0B3FD042052E7022001F0A3FD20B1C8
:1016A000022001F0AAFD022049E7202001F09AFD66
:1016B00020B1202001F0A1FD062040E74FF400708A
:1016C00001F090FD28B14FF4007001F096FD072065
:1016D00035E709E0C6480068C64909680860C5489A
:1016E0000068001DC34908604FF4001001F07AFD46
:1016F0000028EFD14FF4807001F074FD20B3BF4893
:10170000007838B1BD480078012803D0BB48007884
:10171000022819D10020B44908600C2048604020FC
:1017200088600020C8604FF480600861084600E0CF
:1017300011E001F0C4FC0C20FEF747FF8146B9F12F
:10174000000F01D04846FAE6FEF771FD40F2FF5067
:1017500001F053FD3DE0A5480078012839D1002073
:10176000A74908700120A74908700020A649087001
:101770009F484438006840F22A3108439C49443964
:1017800008609B485438006840F008009849543974
:10179000086006FB04F100220098FFF73AFD00E024
:1017A0006D1E9A48006800F0006008B9002DF7D15E
:1017B0000DB90420C3E600BF9348007818B99048DB
:1017C00000780028F8D08E48007810B18C4890F846
:1017D00000904846B3E61CB50446002001900090F6
:1017E0008B4800880004804908600D204860402034
:1017F00088600020C8604FF480600861084601F0EE
:101800005EFC7B484C380068009003E078484C3818
:1018100000680090009800F045000028F6D00120F4
:1018200001F0E0FC20B1012001F0E7FC01201CBD2B
:10183000042001F0D7FC20B1042001F0DEFC0320DD
:10184000F5E76B48703800680D2801D01020EEE7EE
:1018500040F2FF5001F0D1FC65486C3800680190FF
:101860000198C0F3432020700020E0E72DE9FF5FDE
:1018700086B017469846149D0026002005900490D7
:10188000002481460390824602900195DDF818B04D
:10189000DDF818B0BBF1000F03D126200AB0BDE877
:1018A000F09F00205249543908605A4988604860C6
:1018B000401E0860012048610020C8600861084699
:1018C00001F029FC4A486C38006800F0007008B14B
:1018D0000E20E3E749480078022805D10502780A7E
:1018E00040EAC8574FEA6828002D1FDDB5F5006FA4
:1018F0001CDC681E2840C8B92846FFF7C5FC0590C7
:101900003948056010203849486040208860002030
:10191000C8604FF480600861084601F0D0FB1020D9
:10192000FEF753FE06461EB13046B7E72620B5E760
:101930003748008800042C4908600D20486040208A
:1019400088600020C8604FF480600861084601F09C
:10195000B6FB0D20FEF739FE06460EB130469DE778
:1019600023486C38006803904FF0FF341CE0641E7D
:101970002748008800041C4908600D20486040206A
:1019800088600020C8604FF480600861084601F05C
:1019900096FB0D20FEF719FE06460EB130467DE798
:1019A00013486C3800680390039800F4807008B9FD
:1019B000002CDCD10CB9292070E70B4807601820F7
:1019C00009494860402088600020C8604FF480606A
:1019D0000861084601F073FB1820FEF7F6FD064685
:1019E000D6B130465AE70000500000201C0000200D
:1019F000802C014020000020FFFF7F001400002009
:101A00001E0000201D0000201F0000200064024076
:101A100018000020640000200020F8490870059894
:101A20000001F7498860084645604FF0FF300860C4
:101A3000012048610020C8600861084601F06BFB86
:101A40004FF0FF34EF48007800287CD1FEF7EDFB23
:101A500043E04FF4804001F0C5FBC8B30198A0EB10
:101A60000900202821D20198A0EB090000F0030012
:101A700020B90198A0EB0900800804E00198A0EBD0
:101A800009008008401C02904FF0000A09E0DE497E
:101A9000DBF8000008600AF1010A0BF1040B09F100
:101AA000040902988245F2D30FE04FF0000A05E0E6
:101AB0005BF82A00D44908600AF1010ABAF1080F5C
:101AC000F6D30BF1200B09F120096FF0404404E03C
:101AD000FFE70CB90420E1E6641ECB484C380068EF
:101AE00040F21A6108400028B3D0082001F07AFBC8
:101AF00020B1082001F081FB0420CFE6022001F094
:101B000071FB20B1022001F078FB0220C6E6102014
:101B100001F068FB20B1102001F06FFB0520BDE64D
:101B20004FF4007001F05EFB30B14FF4007001F033
:101B300064FB0720B2E606E0FEF779FB40F2FF50B7
:101B400001F05BFB43E0AF48007801283FD1002063
:101B5000AE490870A9490870AD490870AA484438D0
:101B6000006840F21A310843A7494439086040220E
:101B700029460698FFF74DFBA3485438006840F00B
:101B80000800A1495439086000E0641EA1480068BB
:101B900000F0006008B9002CF7D11CB9FFF78CFAEF
:101BA00004207BE64FF0FF3400E0641E9848007884
:101BB00020B99648007808B9002CF6D10CB9042059
:101BC0006CE69248007810B19048007866E640F2E2
:101BD000FF5001F012FB04A8FFF7FDFD064603E0ED
:101BE00004A8FFF7F8FD06463EB99DF81000072847
:101BF000F6D09DF810000628F2D030464EE62DE9CA
:101C0000FF5F84B0DDE912470026002003900290B8
:101C1000002580468146019007FB04FBDDF810A0FB
:101C2000DDF810A0BAF1000F03D1262008B0BDE8FE
:101C3000F09F0020744954390860714988604860F9
:101C4000401E0860012048610020C8600861084605
:101C500001F061FA6C486C38006800F0007008B15F
:101C60000E20E3E76C480078022808D10402DDE981
:101C70000601400A40EAC1504912CDE90601002C94
:101C80001FDDB4F5006F1CDC601E2040C8B9204683
:101C9000FFF7FAFA03906148046010205F4948603A
:101CA000402088600020C8604FF4806008610846CA
:101CB00001F005FA1020FEF788FC06461EB13046FA
:101CC000B4E72620B2E7012F6FD907FB04F0B0F18B
:101CD000007F01D32620A9E74F48007838B14E484D
:101CE0000078012803D04C48007802282DD14C48B8
:101CF0000088000449490860372048604020886017
:101D00000020C8604FF480600861084601F0D7F9F0
:101D10003720FEF75AFC06460EB1304686E73F48AC
:101D2000076017203D494860402088600020C86057
:101D30004FF480600861084601F0C1F91720FEF7F2
:101D400044FC06460EB1304670E7344906980860F8
:101D500019204860402088600020C8604FF48060EF
:101D60000861084601F0ABF91920FEF72EFC064683
:101D70000EB130465AE7039800012149886007FBFD
:101D800004F048604FF0FF300860012048610020F7
:101D9000C8600861084601F0BEF91A4800780028BA
:101DA00072D1451EFEF741FA54E0F8E04FF480404E
:101DB00001F018FAB0B3ABEB0800202833D2ABEB3C
:101DC000080000F0030018B9ABEB0800800803E03E
:101DD000ABEB08008008401C01904FF0000909E0BF
:101DE0000949DAF80000086009F101090AF1040A5A
:101DF00008F1040801988145F2D324E01D00002079
:101E0000640000201C000020802C01401E000020E7
:101E10001F00002000640240140000205000002039
:101E20001800002012E04FF0000905E05AF82900E0
:101E3000F849086009F10109B9F1080FF6D30AF170
:101E4000200A08F120086FF0404503E00DB9042096
:101E5000ECE66D1EEF484C38006840F21A3108403D
:101E60000028A3D0082001F0BDF920B1082001F01E
:101E7000C4F90420DAE6022001F0B4F928B1022006
:101E800001F0BBF90220D1E640E0102001F0AAF9F0
:101E900020B1102001F0B1F90520C7E64FF4007021
:101EA00001F0A0F928B14FF4007001F0A6F9072065
:101EB000BCE64FF4807001F095F900B3D648007885
:101EC00038B1D5480078012803D0D34800780228DB
:101ED00015D10020D14908600C204860402088605E
:101EE0000020C8604FF480600861084601F0E7F800
:101EF0000C20FEF76AFB06460EB1304696E6FEF76A
:101F000096F940F2FF5001F078F948E0C4480078B3
:101F1000012844D10020C34908700120C24908703B
:101F20000020C2490870BB484438006840F21A31AA
:101F30000843B8494439086007FB04F1402204987B
:101F4000FFF767F9B3485438006840F00800B1491A
:101F5000543908604FF0FF3500E06D1EB44800684A
:101F600000F0006008B9002DF7D11DB9FFF7A4F803
:101F700004205BE64FF0FF3500E06D1EAB480078B3
:101F800020B9A848007808B9002DF6D10DB9042071
:101F90004CE6A448007810B1A248007846E640F22A
:101FA000FF5001F02AF902A8FFF715FC064603E0EE
:101FB00002A8FFF710FC06463EB99DF80800072866
:101FC000F6D09DF808000628F2D030462EE610B56F
:101FD0004FF4807001F006F988B393480078012827
:101FE00014D100208D4908600C2048604020886092
:101FF0000020C8604FF480600861084601F05FF877
:102000000C20FEF7E2FA8749087002E000208549BB
:10201000087080484838006840F480707D4948392D
:102020000860081D00684CF23A3188437949443908
:10203000086001207D4908707A48007810BDFFE7EC
:10204000022001F0CFF878B1022001F0D6F87148F3
:10205000443800684CF23A3188436E49443908608C
:10206000022070490870E9E7082001F0BBF878B158
:10207000082001F0C2F86748443800684CF23A3151
:102080008843644944390860042066490870D5E7EC
:10209000202001F0A7F878B1202001F0AEF85D48CB
:1020A000443800684CF23A3188435A494439086050
:1020B00006205C490870C1E7102001F093F878B160
:1020C000102001F09AF85348443800684CF23A3135
:1020D0008843504944390860052052490870ADE7EB
:1020E0004FF4007001F07EF880B14FF4007001F001
:1020F00084F84848443800684CF23A3188434549EE
:102100004439086007204749087097E7002095E7A1
:1021100010B5FFF75CFF10BD70B50446002514B97B
:102120002625284670BD4348008800043B490860C6
:102130000D204860402088600020C8604FF4806017
:102140000861084600F0BBFF0D20FEF73EFA054689
:102150000DB12846E6E72F486C3800682060284615
:10216000E0E708B5002000906846FFF7D5FF08B10A
:10217000FF2008BD0098C0F34320FAE72DE9FE4F89
:1021800083460E46914600200290002534462248A0
:10219000007818B1680240EAD45564020BF00300DD
:1021A000F0B14FF0000A18E04FF4007000904FEAD1
:1021B0004A20071945EBE0733A461F48FFF76DF8D0
:1021C00002904FF400721C49584601F003F90BF5D8
:1021D000007B0AF1010000F0FF0ACA45E4DB16E0CB
:1021E000B9F1010F09D14FF4007022462B4600903F
:1021F0005846FFF752F8029009E04FF4007022466B
:102200002B46CDE900095846FFF768F9029002987D
:10221000BDE8FE8F802C01401400002050000020FB
:102220001C0000201E0000201D0000201F000020B8
:102230000064024018000020F80000202DE9FE4F45
:102240000646894692460020029000254C462148C9
:10225000007818B1680240EAD455640206F0030021
:10226000F0B14FF0000B18E04FF4007231461A48FD
:1022700001F0B0F84FF4007000904FEA4B200719BE
:1022800045EBE0733A461448FFF7F0FA029006F582
:1022900000760BF1010000F0FF0BD345E4DB16E004
:1022A000BAF1010F09D14FF4007022462B4600907D
:1022B0003046FFF7DBFA029009E04FF40070224647
:1022C0002B46CDE9000A3046FFF799FC02900298B0
:1022D000BDE8FE8F14000020F800002032490143C1
:1022E000324A1160704770B5002100230F22C47874
:1022F0001CB32E4C246804F4E064C4F5E064C4F319
:102300000721C1F10404E3B20A4144789C40E1B2E0
:102310008478144021430C07210E254C0578615523
:10232000047804F01F050124AC4005786D11AD0060
:1023300005F1E025C5F8004109E0047804F01F0527
:102340000124AC401B4D0678761145F8264070BD3F
:10235000194A0A400243154B1B1F1A60704739B1D6
:10236000124A121D12680243104B1B1D1A6006E030
:102370000E4A121D126882430C4B1B1D1A607047D7
:10238000042808D14FF0E021096941F004014FF021
:10239000E022116107E04FF0E021096921F004011A
:1023A0004FF0E022116170470000FA050CED00E0EB
:1023B00000E400E080E100E080FFFF1F10B504466C
:1023C0009848844208D10121084600F086FB00218C
:1023D000012000F082FB76E09348844208D101217D
:1023E000022000F07AFB0021022000F076FB6AE078
:1023F0008E48844208D10121042000F06EFB0021A8
:10240000042000F06AFB5EE08948844208D1012183
:10241000082000F062FB0021082000F05EFB52E083
:102420008448844208D10121102000F056FB00218D
:10243000102000F052FB46E07F48844208D1012181
:10244000202000F04AFB0021202000F046FB3AE06B
:102450007A48844208D10121402000F03EFB00214F
:10246000402000F03AFB2EE07548844208D101215B
:10247000802000F032FB0021802000F02EFB22E0C3
:102480007048844208D10121801500F026FB00210C
:10249000A01500F022FB16E06B48844208D1012110
:1024A000401500F01AFB0021601500F016FB0AE051
:1024B0006648844207D10121001500F00EFB00217F
:1024C000201500F00AFB10BDF0B50A4600210023DC
:1024D000002400BF3DE0012505FA01F3156805EA77
:1024E00003049C4234D105684F000326BE40B54327
:1024F000056015794E00B5400668354305601579CD
:10250000012D02D01579022D16D185684F000326C2
:10251000BE40B543856055794E00B5408668354369
:102520008560456801268E40B543456045689679CB
:102530008E40B6B235434560C5684F000326BE40A5
:10254000B543C560D5794E00B540C6683543C56012
:10255000491C1029BFD3F0BD4FF6FF710160002167
:10256000017141718171C171704708B54FF48032BA
:102570000092009A0A430092009AC261C161009AD7
:10258000C261C2690092C269009208BD0246002081
:1025900013690B400BB1012000E000207047014699
:1025A000086980B270470246002053690B400BB1A6
:1025B000012000E0002070470146486980B2704762
:1025C00001837047418370470AB1018300E0418372
:1025D00070474161704742694A4042617047F0B5B7
:1025E000002300244D07ED0E02FA05F3CE1000F192
:1025F000200555F826504E07F70E0F26BE40B5436E
:10260000CF1000F1200646F82750CE1000F120052B
:1026100055F8265045EA0304CE1000F1200545F890
:102620002640F0BD000002400004024000080240C5
:10263000000C02400010024000140240001802404A
:10264000001C0240002002400024024000280240FA
:10265000F948006840F00100F74908600020F64999
:1026600008310860F4480068F4490840F2490860FD
:10267000F348091D0860F348EF4984310860F048C9
:102680001038091D0860EC48006820F48020EA49F1
:1026900008600020E8490C310860E7498C31086087
:1026A00070470021E44A921C11701146087070476F
:1026B00010B501460022002300204A11012A02D150
:1026C000DD4C236808E0022A03D1DB4C7034236818
:1026D00002E0D94C7434236801F01F0201249440B5
:1026E0001C400CB1012000E0002010BD38B50020D6
:1026F00000900024002500BF3120FFF7D9FF0546D8
:102700000098401C00900098B0F5A04F01D0002D1B
:10271000F2D03120FFF7CCFF08B1012400E0002403
:10272000204638BD01460020C34A106820F0F8005A
:1027300040EAC10010607047C3490860704700213B
:10274000BD4A703211701170012802D004280AD1DC
:1027500004E00121B84A7032117005E00521B64A43
:102760007032117000E000BF00BF7047B7490860C9
:10277000704770B5049C41EA82150126C6EB5306EA
:1027800045EA0645054345EA0465AB4E361D35600E
:1027900070BDAD4908667047820142EA0172A64BDE
:1027A00084331A607047A8498866704710B5830162
:1027B00043EA016343EA02739F4C8834236010BDEF
:1027C000A14908677047A049C864704702460020C5
:1027D000994B0833186820F0EC6042EA0103184373
:1027E000954B08331860704702460020924B08331F
:1027F000186820F0784042EA010318438E4B0833F2
:1028000018607047014600208B4A0832106820F09B
:10281000030008431060704787480830006800F0E4
:102820000C00704701460020834A0832106820F0EF
:10283000F000084310607047014600207E4A0832CD
:10284000106820F4E05008431060704701460020F3
:10285000794A0832106820F4604040EAC1001060F4
:102860007047F0B500210022002402250026022333
:10287000714F08373F6807F00C0121B1042905D0DA
:10288000082937D105E0724F076036E0714F0760C5
:1028900033E0694F3F1D3F68C7F38056664F3F1DC9
:1028A0003F6807F03F036EB16A4FB7FBF3F7DFF8FD
:1028B00088C10CF1040CDCF800C0CCF3881C07FBC9
:1028C0000CF40CE0624FB7FBF3F7DFF86CC10CF1CE
:1028D000040CDCF800C0CCF3881C07FB0CF4564F4A
:1028E0003F1D3F68C7F301477F1C7D00B4FBF5F730
:1028F000076002E0564F076000BF00BF4E4F083729
:102900003F6807F0F0010909534F7A5C0768D74028
:102910004760494F08373F6807F4E051890A4E4F36
:102920007A5C4768D7408760434F08373F6807F4B1
:102930006041490B484F7A5C4768D740C760F0BD9B
:10294000002100F44072B2F5407F0AD13A4A0832C1
:10295000116821F4F811414A02401143364A083205
:102960001160354A70321268C0F30B031A43324BC0
:1029700070331A60704735494439086070473349ED
:1029800040390860704736490860704701460020AA
:10299000294A8C32106820F01F004A1E1043264A34
:1029A0008C321060704701460020234A8C32106838
:1029B00020F4F8504A1E40EA02201F4A8C32106070
:1029C0007047014600201C4A8C32106820F44010E9
:1029D00008431060704701460020174A8C32106887
:1029E00020F4400008431060704701460020124A5E
:1029F0008C32106820F44030084310607047194949
:102A00000860704739B10C4A3032126802430A4BF1
:102A100030331A6006E0084A303212688243064BAF
:102A200030331A607047F9B1034A343212680243F6
:102A3000014B34331A601CE000380240FFFFF6EA15
:102A4000103000240030002000004742800E474232
:102A50000024F40000127A0024000020FFFCFF0F85
:102A60005C014742E01147428F4A126882438E4B15
:102A70001A60704739B18C4A121D126802438A4BA2
:102A80001B1D1A6006E0884A121D12688243864B9D
:102A90001B1D1A60704739B1834A0C321268024319
:102AA000814B0C331A6006E07F4A0C321268824375
:102AB0007D4B0C331A60704739B17B4A1032126873
:102AC0000243794B10331A6006E0774A10321268DD
:102AD0008243754B10331A60704739B1724A243AF9
:102AE00012680243704B243B1A6006E06E4A243A97
:102AF000126882436C4B243B1A60704739B16A4AB2
:102B0000203A12680243684B203B1A6006E0664A8E
:102B1000203A12688243644B203B1A60704739B1F7
:102B2000614A1C3A126802435F4B1C3B1A6006E084
:102B30005D4A1C3A126882435B4B1C3B1A6070472B
:102B400039B1594A143A12680243574B143B1A6080
:102B500006E0554A143A12688243534B143B1A60FC
:102B6000704739B1504A103A126802434E4B103B3D
:102B70001A6006E04C4A103A126882434A4B103BF6
:102B80001A60704739B1484A1C3212680243464BFA
:102B90001C331A6006E0444A1C3212688243424BDE
:102BA0001C331A60704739B13F4A20321268024321
:102BB0003D4B20331A6006E03B4A203212688243C4
:102BC000394B20331A60704739B1374A24321268C2
:102BD0000243354B24331A6006E0334A243212682C
:102BE0008243314B24331A60704739B12E4A2C325C
:102BF000126802432C4B2C331A6006E02A4A2C320E
:102C000012688243284B2C331A60704739B1264A28
:102C1000303212680243244B30331A6006E0224AF5
:102C2000303212688243204B30331A6070470128DB
:102C300008D11D493C31096841F008011A4A3C326B
:102C4000116007E018493C31096821F00801164A73
:102C50003C321160704739B1134A273A1278024367
:102C6000114B273B1A7006E00F4A273A127882432D
:102C70000D4B273B1A7070470B484030006840F0FE
:102C80008070094940310860704701460020064ABB
:102C9000283A12680A400AB1012000E0002070477B
:102CA000014926390870704734380240016821F024
:102CB000010101600021016041608160C16001612A
:102CC00021214161DB49884204D13D21D94A103A92
:102CD00091608CE0D7491831884205D14FF4746176
:102CE000D44A103A916082E0D2493031884205D10D
:102CF0004FF47411CF4A103A916078E0CD494831D1
:102D0000884205D14FF07461CA4A103A91606EE072
:102D1000C8496031884204D1C749C64A103AD160D7
:102D200065E0C4497831884204D1C449C14A103AA7
:102D3000D1605CE0BF499031884204D1C049BD4AAE
:102D4000103AD16053E0BB49A831884205D14FF019
:102D50003D51B84A103AD16049E0BA49884204D19D
:102D60003D21B84A083A116041E0B649183188421D
:102D700005D14FF47461B34A083A116037E0B149A4
:102D80003031884205D14FF47411AE4A083A1160CF
:102D90002DE0AC494831884205D14FF07461A94A11
:102DA000083A116023E0A7496031884204D1A24962
:102DB000A44A121F11601AE0A2497831884204D156
:102DC0009E49A04A121F116011E09E49903188422D
:102DD00004D19B499B4A121F116008E09949A83110
:102DE000884204D14FF03D51964A121F116070473E
:102DF00010B500220268944B1A40CC680B6823433C
:102E00004C6923438C692343CC6923430C6A2343D5
:102E10004C6A23438C6A23434C6B23438C6B2343C0
:102E20001A430260426922F00702D1E90B342343BE
:102E30001A4342610B6943604B6883608B68C360CF
:102E400010BD0021016041608160C160016141618C
:102E50008161C161016241628162C162016341635A
:102E60008163704721B1026842F00102026003E011
:102E7000026822F001020260704721B1026842F448
:102E80000042026003E0026822F4004202607047E0
:102E900021B1026842F02002026003E0026822F0E1
:102EA000200202607047416070470146486880B266
:102EB000704722B1036843F40023036003E0036812
:102EC00023F4002303600161704721B1026842F4DA
:102ED0008022026003E0026822F4802202607047D0
:102EE0000AB1016100E0C1607047014600200A6834
:102EF00002F400220AB1012000E0002070470146E0
:102F000000200A6802F001020AB1012000E000205E
:102F10007047014600204A6902F03800704730B51A
:102F200003460A4600200024464DAB4202D24149E6
:102F3000103901E04349103902F000550DB14C68D9
:102F400000E00C68414D2C4004EA02050DB101205F
:102F500000E0002030BD02463A4B9A4202D235488A
:102F6000103801E03748103801F000531BB1374BDF
:102F70000B40C36002E0354B0B408360704710B5D7
:102F800001F080034BB122B1436943F080034361F8
:102F900003E0436923F08003436180290BD02AB109
:102FA000036801F01E042343036004E0036801F09A
:102FB0001E04A343036010BD70B502460020002428
:102FC0000025204EB24202D21A4B103B01E01D4BAD
:102FD000103B1F4E0E4036B11E2606EAD12416685D
:102FE00006EA040502E0566906F0800501F0005685
:102FF0000EB15C6800E01C68144E344004EA01061F
:1030000016B10DB1012000E0002070BD02460D4B4D
:103010009A4202D20748103801E00A48103801F0FD
:1030200000531BB1094B0B40C36002E0074B0B4040
:1030300083607047106002403D000020400F002078
:1030400000003D20106402403F801CF07D0F7D0F8A
:103050003C0F3C0F10B50121C802FFF782FD002193
:103060004FF40060FFF77DFD10BD00216C4A116830
:1030700047F6FF629143027D83681A4343681A430F
:10308000C3681A4303681A4303691A431143644A25
:103090001160704700210175016041608160C1606D
:1030A000016170475F49086070475D49091F08600A
:1030B00070475B48001F006800F003007047002164
:1030C000574B1B1D02681A601A1D11686FF30A0125
:1030D000D0E901231A43C3681A4303691A43114311
:1030E0004F4A0832116070470021016041608160E1
:1030F000C160016170474A480C300068C0B2704737
:1031000008B5014600200090454810300844009062
:103110000098006808BD0021414B203302681A6006
:103120001B1D42681A601A1D116821F0F701D0E9D1
:1031300002231A4303691A4343691A431143384A65
:103140002832116070474FF0FF310160002141606B
:103150008160C16001614161704731482C30006875
:1031600070472F487C30006870472D497C310860DB
:1031700070472B484430006870472B4908607047FF
:103180002949091D086070472749083108607047C0
:1031900025490C310860704724490860704723496D
:1031A000091D0860704701218143204A08321160DF
:1031B00070471E490C31086070471B49143908607C
:1031C000704739B1164A383212680243144B38330B
:1031D0001A6006E0124A383212688243104B3833C4
:1031E0001A607047014600200D4A303212680A40CA
:1031F0000AB1012000E0002070470949343108601D
:10320000704701460020064A303212680A400AB16F
:10321000012000E000207047014934310860704708
:10322000042C0140A0802542A0852542AC81254286
:10323000002041490860091D0860091D0860091D3A
:1032400008603E483C4914310860704700213A4903
:103250008279002A3AD00A46126803689A430B46DC
:103260001A600A1D126803689A430B1D1A600279DE
:1032700011440A6803681A430A602F4A0832126828
:1032800003689A432C4B08331A601A1D12680368AE
:103290009A43294B0C331A604279102A0ED11A1F17
:1032A000126803681A43244B08331A601A1D126807
:1032B00003681A43204B0C331A600DE01E49427913
:1032C00011440A6803681A430A6005E00279114450
:1032D0000A6803689A430A6070470021016001711F
:1032E0000C21417100218171704713491031096827
:1032F0000143114A103211607047014600200E4A06
:10330000143212680A400AB1012000E00020704720
:10331000094914310860704701460020064A1432FA
:1033200012680A400AB1012000E0002070470249FB
:103330001431086070470000003C0140FFFF7F002F
:1033400010B501218803FFF70CFC00214FF48040E9
:10335000FFF707FC10BD1C49086070471B49086255
:10336000704730B500228B071C0F0F2303FA04F2BD
:10337000154B08338C1053F824309343124C083407
:103380008D1044F8253023468C1053F824308C07D8
:10339000240F00FA04F423430B4C08348D1044F836
:1033A000253030BD0949DC310860704708490860A4
:1033B0007047002004492031096801F4807109B187
:1033C000012000E000207047003801400000274243
:1033D00000042742032A40F2308010F0030C00F072
:1033E000158011F8013BBCF1020F624498BF11F83F
:1033F00001CB00F8013B38BF11F8013BA2F10402F8
:1034000098BF00F801CB38BF00F8013B11F003036F
:1034100000F02880083AC0F0088051F8043B083AD0
:1034200051F804CBA0E80810F5E7121D5CBF51F875
:10343000043B40F8043BAFF30080D20724BF11F8EF
:10344000013B11F801CB48BF11F8012B24BF00F854
:10345000013B00F801CB48BF00F8012B70477047D3
:103460007047704710B5203AC0F00B80B1E8185093
:10347000203AA0E81850B1E81850A0E81850BFF45E
:10348000F5AF5FEA027C24BFB1E81850A0E81850FD
:1034900044BF18C918C0BDE810405FEA827C24BF51
:1034A00051F8043B40F8043B08BF7047D20728BFDF
:1034B00031F8023B48BF11F8012B28BF20F8023B2E
:1034C00048BF00F8012B7047754600F02BF8AE4658
:1034D00005006946534620F00700854618B020B520
:1034E000FCF7C8FEBDE820404FF000064FF0000793
:1034F0004FF000084FF0000B21F00701AC46ACE89C
:10350000C009ACE8C009ACE8C009ACE8C0098D4608
:10351000704710B50446AFF300802046BDE8104068
:10352000FCF77BBE00487047F802002001491820D4
:10353000ABBEFEE72600020070474FF04070E1EEA0
:10354000100A7047643500080000002034000000B5
:10355000C401000898350008340000202409000048
:10356000E0010008007A030A0000000000000000EB
:103570000102030406070809000000000000000023
:103580000100000000000000000000000102030430
:0835900001020304060708090B
:040000050800018965
:00000001FF
