:020000040800F2
:10000000D8B30120990700087D0700087F07000882
:1000100083070008870700088B070008000000001E
:100020000000000000000000000000008F07000832
:1000300091070008000000009307000895070008DA
:10004000B3070008B3070008B3070008B3070008A8
:10005000B3070008B30700087B4A0008B30700088D
:10006000B3070008B3070008B3070008B307000888
:10007000B3070008B3070008B3070008B307000878
:10008000B3070008B3070008B3070008B307000868
:10009000B3070008B3070008B3070008B307000858
:1000A000B3070008B3070008B3070008B307000848
:1000B000FB430008B3070008B3070008B3070008B4
:1000C000B3070008B3070008B3070008B307000828
:1000D000B3070008B3070008B3070008B307000818
:1000E000B3070008B3070008B3070008B307000808
:1000F000B3070008B3070008B3070008B3070008F8
:10010000B307000849670008A3440008B3070008C4
:10011000B3070008B3070008B3070008B3070008D7
:10012000B3070008B3070008B3070008B3070008C7
:10013000B3070008B3070008B3070008B3070008B7
:10014000B3070008B3070008B3070008B3070008A7
:10015000B3070008B3070008B3070008B307000897
:10016000B3070008B3070008B3070008B307000887
:10017000B3070008B3070008B3070008B307000877
:10018000B3070008B307000800F002F800F06CF8AD
:100190000AA090E8000C82448344AAF10107DA45E2
:1001A00001D100F061F8AFF2090EBAE80F0013F0C8
:1001B000010F18BFFB1A43F001031847002B010081
:1001C000202B01000A444FF0000C10F8013B13F003
:1001D000070408BF10F8014B1D1108BF10F8015BA0
:1001E000641E05D010F8016B641E01F8016BF9D193
:1001F00013F0080F1EBF10F8014BAD1C0C1B09D1EA
:100200006D1E58BF01F801CBFAD505E014F8016B5B
:1002100001F8016B6D1EF9D59142D6D370470000ED
:100220000023002400250026103A28BF78C1FBD8FF
:10023000520728BF30C148BF0B607047662910F0D5
:100240009A8364290DF06681002070471FB510F075
:100250008DFB0DF0E7FD0400002000210FF00AFDEA
:10026000E0601FBD10B510BD0DF0E0FE1146FFF7B8
:10027000EDFF00F011F80DF0FEFE03B4FFF7F2FF02
:1002800003BC0DF041FF000030BF72B6704762B68C
:10029000704780F3088870472DED0A8B82B00026E6
:1002A00000BF00244FF4A06009F0CEFD0CF0F0FB7D
:1002B00000F09AFB00F06AFF04F00AF902F04AFA33
:1002C00001F011FF01F033FC01F01AFE532140F65A
:1002D0009F7004F061F842F2CF01632004F0B5F89A
:1002E00004F0A2FB0CF04FFF01F016FF0121EF48D4
:1002F0000AF0C7FD082001F03AFE02F041FED3E10A
:10030000EB4800680A2871D001F0D9FF0446E9489B
:100310000068E749096888421DD0E548006805285B
:1003200013D2DFE800F00306090C0F0002F028FEEC
:100330000BE002F04EFE08E002F090FE05E002F055
:1003400012FF02E002F032FF00BF00BFD848006891
:10035000D8490860EFE0002CFCD0D548006805289B
:100360007BD2DFE800F0031D37526600412C03D139
:100370000020D149087010E0422C03D10120CE4961
:1003800008700AE0432C03D10220CB49087004E036
:10039000442C02D10320C849087003F04BFA5CE0FA
:1003A000412C03D10020C549087010E0422C03D134
:1003B0000120C24908700AE0432C03D10220BF4942
:1003C000087004E0442C02D10320BC49087003F0FB
:1003D00057FA42E0412C03D10020B949087011E0DE
:1003E000422C04D10120B64908700BE038E0432CC0
:1003F00003D10220B249087004E0442C02D103204A
:10040000AF49087003F011FB27E0412C03D1002015
:10041000AC4908700AE0422C03D10120A9490870B8
:1004200004E0432C02D10220A649087003F009FC25
:1004300013E0412C03D10020A34908700AE0422CAC
:1004400003D10120A049087004E0432C02D102200E
:100450009D49087003F023FC00BF00BF00246AE040
:100460009A48006840B19FED9A0B9B4880ED000BC5
:1004700001219A4809F05CFE99480068B0B3994898
:100480000068052804D0062831D0092840D106E0AC
:10049000914890ED000B944880ED000B38E08E48B9
:1004A00090ED000B914880ED000B90ED000B0EF0ED
:1004B000F7FBB0EE40BAF0EE60BA9FED8D0B53EC57
:1004C000102B51EC1B0B0FF05BFF41EC1A0B9FED57
:1004D0008A0B53EC102B0FF0EFFB41EC190B0FF0D4
:1004E0006BFEC7B2384601F042FD11E023E07A48C6
:1004F00090ED000B53EC102B9FED810B51EC100B8A
:100500000FF0DAFB804A03C200208049086000BF78
:1005100000BF0B2073490860654800687C4908608B
:100520006448006862490860794800686149086069
:1005300000206B4908607748006803284BD140F6DB
:100540009F704FF08041C86240F2D171724803F051
:100550005BFC064630460FF05CFE41EC1A0B9FED4B
:100560006F0B53EC102B0FF00BFF41EC190B9FEDB1
:100570006D0B53EC102B0FF09FFB634A03C26B4AC9
:1005800003C230460FF045FE41EC1A0B9FED630BA2
:1005900053EC102B0FF0F4FE41EC190B9FED640BA4
:1005A00053EC102B0FF088FB634A03C29FED630BE3
:1005B000644880ED000B01F0BAFA5C4890ED000B46
:1005C00001F03FFB00206049086001205F4908609E
:1005D0000220504908605E480068B8B303F044FC4C
:1005E0005C4890ED000B53EC102B5BA168460CF0BF
:1005F0007DFF6B460C229B21FF2001F079F85848C3
:1006000090ED000B53EC102B56A168460CF06EFFDA
:100610006B460C22BE21FF2001F06AF83A4890EDAB
:10062000000B53EC102B444890ED000B51EC100BD9
:1006300010F0B2F841EC190B9FED4C0B53EC102B62
:100640000FF0F6FB41EC180B00252BE02CE02846C0
:100650000FF0DFFD53EC182B0FF092FE41EC1B0B5B
:10066000294890ED000B53EC102B51EC1B0B0FF0B5
:1006700023FB9FED230B53EC102B10F08DF841EC76
:10068000190B53EC192B3BA168460CF02FFF05EB1F
:100690008501C9000A3188B26B460C22E32101F0C2
:1006A00027F86D1C062DD2DB2AE600000020014051
:1006B0000000002004000020100000201100002095
:1006C0001200002013000020140000200C01002064
:1006D0000000000000000000700000200018024030
:1006E000B8000020080000207800002080000020D2
:1006F0007B14AE47E15A44C05C8FC2F5284C584089
:10070000713D0AD7A3702540380000202800002042
:100710000C00002050000020C00700207B14AE47D2
:10072000E17A843F1F85EB51B86E564048000020A7
:10073000AE47E17A14EE5640400000200000000071
:10074000004057C0780100206C00002068000020A5
:100750005400002018000020252E33664D487A00F2
:1007600020000020252E336664426D00000000004A
:1007700000001440252E316600000000704700BFC5
:10078000FEE700BFFEE700BFFEE700BFFEE77047E1
:100790007047704770470000094880470948004784
:1007A000FEE7FEE7FEE7FEE7FEE7FEE7FEE7FEE721
:1007B000FEE7FEE704480549054A064B704700007E
:1007C000B508000889010008D8AD0120D8B3012080
:1007D000D8AF0120D8AF01200CB5002001900090C7
:1007E0007648006840F480307449086000BF734860
:1007F000006800F4003000900198401C01900098BF
:1008000018B90198B0F5A04FF1D16C48006800F418
:10081000003010B10120009001E00020009000980D
:10082000012846D165484030006840F08050634957
:10083000403108606248006840F440406049086008
:100840005E48083000685D49083108600846006865
:1008500040F4004008600846006840F4A05008607A
:100860005848091F0860081F006840F08070091F81
:10087000086000BF5148006800F000700028F9D0FF
:1008800040F20570504908604C480830006820F07C
:1008900003004A49083108600846006840F0020039
:1008A000086000BF45480830006800F00C000828C8
:1008B000F8D10CBD10B54548006840F470004349BC
:1008C00008603E48006840F001003C490860002094
:1008D0003A4908310860394800683D4908403749BD
:1008E00008603C48091D0860081F006820F480204B
:1008F000091F0860002031490C310860FFF76CFFC8
:100900004FF0006031498039086010BD70B500209B
:100910000022022300240221284D08352D6805F00D
:100920000C0020B1042806D0082834D107E02A4D55
:100930002A4E356033E02A4D284E35602FE01F4D9A
:100940002D1D2D68C5F380541C4D2D1D2D6805F0FF
:100950003F0154B1224DB5FBF1F5184E361D3668F6
:10096000C6F3881605FB06F209E01B4DB5FBF1F551
:10097000124E361D3668C6F3881605FB06F20F4D7B
:100980002D1D2D68C5F301456D1C6B00B2FBF3F501
:10099000124E356003E0104D104E356000BF00BFB1
:1009A000064D08352D68C5F303150E4E705D0B4DD1
:1009B0002D68C540094E356070BD0000003802400A
:1009C0000070004008544007003C024088ED00E001
:1009D000FFFFF6FE103000240024F4008800002001
:1009E00000127A008C0000201CB50121502009F073
:1009F000BFFD1820009001208DF8040000208DF824
:100A0000060003208DF8050001208DF807006946D7
:100A1000094809F00FFB1821074809F087FB4FF43C
:100A2000007000906946054809F004FB4FF400711E
:100A3000024809F07BFB1CBD001002400018024078
:100A4000FE480088FE4908807047FE4A128849F235
:100A500041339A4212D1FC4A1288F94B1A80021291
:100A60009B1C1A80C2B21A80F84A12889B1E1A80F8
:100A70000A129B1C1A80CAB21A8042E0F14A1288FC
:100A800041F663139A423CD1F14A12788AB9F14A8D
:100A90001288521E121A90B2EB4A1288E84B1A8042
:100AA00000229B1C1A801A8002121A80C2B21A807D
:100AB00013E0E54A1288E24B1A8002129B1C1A804E
:100AC000C2B21A80E34A1288521EC2F30F221A8061
:100AD000E04A1278521ED2B21A80DC4A1288D84BF1
:100AE0001A800A129B1C1A80CAB21A80DA4A12882B
:100AF000521EC2F30F221A80D74A1278521ED2B267
:100B00001A80704730B504460D4629462046FFF747
:100B10009CFFFFF795FFD1480088C949891C0880D0
:100B200030BD70B505460E46144631462846FFF7DF
:100B3000E9FFC2480088C2490880881C048070BD53
:100B40002DE9FF4F84B081468A46002002908346FB
:100B50000698A0EB09050798A0EB0A06CDF80490CB
:100B6000CDF800A0002D01DD012705E00DB900271B
:100B700002E04FF0FF376D42002E02DD4FF001081A
:100B800006E016B94FF0000802E04FF0FF38764259
:100B9000B54201DD2C4600E03446002003901EE003
:100BA000009A91B2019A90B2119AFFF7BAFF029897
:100BB00028440290B3440298A04205DD0298001B2D
:100BC0000290019838440190A34504DDABEB040B7F
:100BD0000098404400900398401C80B20390611C30
:100BE00003988842DCDB08B0BDE8F08F944A10809F
:100BF000921C1180704710B504469148048004206F
:100C00000BF05BFF8E48801C008810BD00BF011EEA
:100C1000A0F10102D0B2FAD170472920884908809A
:100C20007047282086490880704730B58418641EB4
:100C3000A2B2CC18641EA3B2854C24786CBB814C44
:100C4000248841F66315AC4227D1824C2488A41A2B
:100C5000241AA0B2CC18641EA3B27B4C2488784D11
:100C60002C800412AD1C2C80C4B22C808418641E0D
:100C7000C4F30F242C808418641EE4B22C80734CBF
:100C80002488AD1E2C800C12AD1C2C80CCB22C8084
:100C90001C122C80DCB22C8019E06B4C2488684D2F
:100CA0002C800412AD1C2C80C4B22C8014122C8019
:100CB000D4B22C80654C2488AD1E2C800C12AD1C47
:100CC0002C80CCB22C801C122C80DCB22C8030BD4D
:100CD00070B50546002400265D480078012805D13E
:100CE0005848008849F24131884208D05848007875
:100CF000F0B95448008841F66311884218D1082D94
:100D000015D2DFE805F00406080A0C0E10120625BD
:100D10000DE007250BE0042509E0052507E0012586
:100D200005E0002503E0032501E0022500BF00BF28
:100D3000082D1CD2DFE805F00406090C0F12151867
:100D400000BF14E044F0800411E044F040040EE0E1
:100D500044F0C0040BE044F0200408E044F06004D8
:100D600005E044F0A00402E044F0E00400BF00BF4E
:100D700036263448008849F24131884201D144F096
:100D8000080421463046FFF731FF334803883148D5
:100D9000028800210846FFF748FF70BD10B50446E1
:100DA0008CBB00202A4908702648008849F241314E
:100DB000884210D12C20214908802A20224908800D
:100DC0002B2022490880F020224908804FF4A0708F
:100DD000214908805BE01B48008841F66311884286
:100DE00055D12C20154908802B20174908802A202E
:100DF000164908804FF4F070164908804FF4487087
:100E00001549088043E0FFE70120114908700D48AB
:100E1000008849F24131884222D12C2007490880BC
:100E20002A20094908802B20084908804FF4A07027
:100E300008490880F0200849088028E0A800002020
:100E4000FE1F006CA0000020AA000020AC000020C3
:100E5000A2000020A4000020A60000209C0000208A
:100E6000FE48008841F66311884210D12C20FC49CD
:100E700008802A20FB4908802B20FB4908804FF47A
:100E80004870FA4908804FF4F070F9490880002052
:100E9000FFF71EFF10BD3EB504460D460020029030
:100EA0000190009029462046FFF7CFFD2E20F14902
:100EB0000880881C00880290E848008841F6631189
:100EC000884202D1BDF808003EBD0220FFF79EFE19
:100ED000E848801C00880090BDF80800C0B201906E
:100EE000BDF804004FF6FF7101EA00200190BDF843
:100EF0000800C012C002BDF80410891240EA411077
:100F0000BDF8001040EAE120DEE7BE21D94A118099
:100F10000521921C11801146088001211180FF21BA
:100F20001180002111801180704770B504460025A2
:100F30000026CE480088CE49098800FB01F6002132
:100F40000846FFF782FDFFF77BFD00BF03E0C948BD
:100F5000801C04806D1CB542F9D370BD00B59FB0F4
:100F60000121782009F004FB0121084609F038FB33
:100F70004FF480601D9001208DF8780000208DF8DE
:100F80007A0002208DF8790001208DF87B001DA9E0
:100F9000B94809F04FF84CF233701D9002208DF8DB
:100FA000780000208DF87A0003208DF87900012068
:100FB0008DF87B001DA9B14809F03CF84FF6807010
:100FC0001D9002208DF8780000208DF87A00032013
:100FD0008DF8790001208DF87B001DA9A84809F043
:100FE00029F804201D9002208DF8780000208DF84B
:100FF0007A0003208DF8790001208DF87B001DA96F
:10100000A04809F017F84FF480501D9002208DF889
:10101000780000208DF87A0003208DF879000120F7
:101020008DF87B001DA9974809F004F80C220021D7
:10103000924809F08AF80C220121904809F085F8BD
:101040000C2204218D4809F080F80C2205218B48E0
:1010500009F07BF80C220821884809F076F80C2268
:101060000921864809F071F80C220A21834809F009
:101070006CF80C220E21814809F067F80C220F2130
:101080007E4809F062F80C2207217D4809F05DF8DE
:101090000C2208217A4809F058F80C2209217848D6
:1010A00009F053F80C220A21754809F04EF80C2279
:1010B0000B21734809F049F80C221146704809F0D9
:1010C00044F80C220D216E4809F03FF80C220E2145
:1010D0006B4809F03AF80C220F21694809F035F8FD
:1010E0000C220221674809F030F80C2211466548AD
:1010F00009F02BF80F200790002008903C20099061
:1011000000200A900B900C900D9008200090002079
:101110000190072002900020039004900590069013
:1011200006200E9000200F901090102011900020AB
:10113000129014901390159016904FF480501790C1
:10114000002018904FF48040199000201A9007A8B2
:101150001B90CDF870D00EA809F079FB0121062074
:1011600009F000FC32200BF0F0FC1FB000BDD321D1
:10117000404A1180911C0888088808884FF6FF7142
:1011800001EA0020911C09880843704710B5FFF759
:10119000E5FEFFF7ECFF314908800846008849F278
:1011A0004131884223D0A12032490880881C008820
:1011B0002A4908802F48801C00880880084600883B
:1011C0004FF6FF7101EA0020244908802948801C5D
:1011D000008809880843214908800846008845F2AC
:1011E0006171884203D141F663101C4908801B4895
:1011F000008849F2413188421CD12348006820F020
:101200000F004FF02041C1F81C010846D0F81C0126
:1012100020F47060C1F81C010846D0F81C0140F0B1
:101220000300C1F81C010846D0F81C0140F400700E
:10123000C1F81C010948008849F2413188427DD13A
:10124000CF200C4908800020891C0880C12008801C
:1012500030200880ED20891E088017E0A0000020C3
:10126000A8000020AA000020AC000020A40000205C
:10127000A6000020FE1F006C00140240000C02407B
:1012800000100240001802401C0100A06420891CCC
:101290000880032008801220088081200880E82030
:1012A000891E08808520891C0880102008807A20EB
:1012B0000880CB20891E08803920891C08802C20BA
:1012C0000880002008803420088002200880F72051
:1012D000891E08802020891C0880EA20891E088039
:1012E0000020891C08800880C020891E08801B20DF
:1012F000891C0880C120891E08800120891C088063
:10130000C520891E08803020891C08800880C720DD
:10131000891E0880B720891C08803620891E088015
:101320004820891C08803A20891E08805520891C85
:101330000880B120891E0880002000E079E0891C27
:1013400008801A200880B620891E08800A20891C7F
:101350000880A2200880F220891E08800020891CB5
:1013600008802620891E08800120891C0880E02032
:10137000891E08800F20891C08802A2008802820C8
:101380000880082008800E2008800820088054204B
:101390000880A9200880432008800A2008800F20A8
:1013A000088000200880088008800880E120891ECD
:1013B00008800020891C08801520088017200880DC
:1013C0000720088011200880062008802B20088034
:1013D000562008803C2008800520088010200880C6
:1013E0000F2008803F20088008800F2008802B20D5
:1013F000891E08800020891C088008800120088040
:101400003F2008802A20891E08800020891C08802F
:1014100008800880EF2008801120891E088078202D
:101420000BF093FB2920FA4908800120F949086054
:1014300098E0F948008841F663118842F8D1E2202B
:10144000F34908801D20891C0880022008800420A0
:10145000088064200BF031FBE020ED49088001207A
:10146000891C08800A200BF070FBE020E849088006
:101470000320891C08800C200BF067FB0120E44945
:1014800008800A200BF061FBE620E14908802F204C
:10149000891C0880FF2008800880B020891E0880F1
:1014A0002020891C0880002008800320088040F24A
:1014B0001F3008800120088040F2DF1008800020E3
:1014C0000880B420891E08800420891C088040F20E
:1014D0001F400880002008802E20088000200880FF
:1014E000088008800880B620891E08800220891C98
:1014F00008804FF4037008800020088017200880BF
:1015000015200880002008800880F020891E0880AF
:101510000320891C08802920891E0880D02008808B
:101520000020891C0880BE20891E08800520891C97
:101530000880FE20088001200880002008800880A4
:101540000880B820891E08800320891C088001209B
:101550000880BA20891E08800120891C0880FF208D
:10156000FFF7D3FC0120FFF719FC0020FFF7DDFC9B
:1015700010BD2DE9F04F05460E4617469846DDF89A
:1015800024A04FF0000B781B401C1FFA80FB344650
:1015900014E021462846FFF758FAFFF751FA4FF0BA
:1015A000000907E09A48801CA0F800A009F101009A
:1015B0001FFA80F9D945F5DB601C84B24445E8DDAB
:1015C000BDE8F08F2DE9F84F07460D469046994645
:1015D000DDF828B0A8EB0700401C80B20090A9EB12
:1015E0000500401C1FFA80FA002416E0281981B279
:1015F0003846FFF72AFAFFF723FA002608E004FB33
:101600000A603BF810008249891C0880701C86B271
:1016100000988642F3DB601C84B25445E6DBBDE8EB
:10162000F88F2DE9FF4F074616461C46BB460C2C8B
:1016300001D198460AE0102C01D1A04606E0182CF2
:1016400002D14FF0300801E0BDE8FF8FA6F1200085
:10165000C6B2002548E00C2C07D106EB46006F49C6
:1016600001EB800010F8059010E0102C05D16C48BB
:1016700000EB061010F8059008E0182C06D106EBD8
:101680004600684901EB001010F805904FF0000A81
:1016900024E009F0010030B163480288384601991E
:1016A000FFF73FFA05E06148028838460199FFF7E5
:1016B00038FA4FEA6909781C87B2A7EB0B0104EBF3
:1016C000D472B1EB620F05D15F460198401C80B225
:1016D000019006E00AF1010000F0FF0ABAF1080FDC
:1016E000D7DB00BF681CC5B24545B4DB00BFABE724
:1016F000F0B506460F4615461C4611E022782B46EB
:1017000039463046FFF78DFF284605EBD07106EBD2
:1017100061018EB246480088864200DB06E0641C08
:101720002078202802DB20787E28E7DD00BFF0BD8E
:101730002DE9F04F04460D4616461F46DDE909899E
:101740003948B0F800A03948B0F800B03648A0F8E1
:1017500000803648A0F800903B4632462946204695
:10176000FFF7C6FF3048A0F800A03048A0F800B04E
:10177000BDE8F08F10B50246012000E050430B1E7B
:10178000A1F10104E1B2F9D110BD2DE9FF4F81B003
:10179000074690461E460E9CC3464FF0000906E0E1
:1017A0000A20BBFBF0FB09F1010000F0FF09BBF1CF
:1017B000000FF5D1B14508DD1EA322463846029937
:1017C000FFF796FF05B0BDE8F08F002553E0A6EBCC
:1017D0000900A84232DD0F9860B104EBD4714910C2
:1017E00001FB057188B22346302200940299FFF76D
:1017F00018FF3EE004EBD471491001FB057188B27B
:101800002346202200940299FFF70BFF31E00000ED
:10181000FE1F006CA8824242A00000206A0A010854
:10182000DE0E0108CE1401089C0000209E0000205E
:10183000A40000204552524F52000000701B401E71
:10184000C1B20A20FFF796FFB8FBF0F00A21B0FB07
:10185000F1F201FB120A04EBD471491001FB05718E
:1018600088B20AF13001CAB2234600940299FFF708
:10187000D8FE681CC5B2B542A9DB00BFA2E72DE9BE
:10188000FF4F82B004460D461646DDE91189109FD0
:101890000E48B0F800A00E48B0F800B00B48A0F811
:1018A00000800B48A0F800900F98CDE90007324661
:1018B00029462046059BFFF768FF0448A0F800A0D2
:1018C0000348A0F800B006B0BDE8F08F9C000020EF
:1018D0009E0000201CB50121022008F049FE0121D4
:1018E000202008F045FE0121022008F041FE0121E0
:1018F000202008F03DFE0121202008F039FE0120C3
:101900008DF8040000208DF8060003208DF80500F6
:1019100001208DF80700C00200906946F84808F0E1
:1019200089FB4FF4806000906946F54808F082FB1F
:101930004FF4804000906946F24808F07BFB4FF47A
:10194000805000906946EF4808F074FB1CBD1CB540
:101950000121202008F066FE0220009000208DF872
:10196000040003208DF8050000208DF8070069466B
:10197000E44808F05FFB1CBD00E0401E0028FCDCD2
:1019800070472DE9F04105460E4600270024A04689
:101990000120DD4908600BF090F80020DB49C1F818
:1019A000AC02D9490839086001200BF086F82C46B2
:1019B00028E0301910F8017C4FF000081DE007F016
:1019C0008000802803D10120D149086002E0002076
:1019D000CF49086001200BF070F80120CC49091DA7
:1019E00008600BF06AF87806070E0020C749C1F8B6
:1019F000AC0208F1010000F0FF08B8F1080FDEDBCF
:101A0000601EC4B2002CD4DC0020C1490860012053
:101A10000BF053F80120BF49C1F8B0020BF04DF8AC
:101A20000020B94908390860BDE8F0812DE9F04788
:101A300006460F460024A046A1460025FFF787FF73
:101A40000120B14908600BF038F80020AF49C1F817
:101A5000AC02AD490839086001200BF02EF834467D
:101A600028E04FF000081DE06806050E01200BF08D
:101A700024F8A548B438006800F0FF090120A34904
:101A8000C1F8AC0209F0010008B145F001050120E0
:101A90000BF013F800209E49091D086008F10100B1
:101AA00000F0FF08B8F1080FDEDB381900F8015C20
:101AB000601EC4B2002CD4DC01200AF0FEFF01201D
:101AC0009149083908600AF0F8FF00209149C1F8EF
:101AD000B002BDE8F0874FF0FA608F49086048F225
:101AE000110048608D4888608D48C8608D48086145
:101AF0008D484861082008624FF47A6048620220ED
:101B000088620020C8620A2008639FED880B08469F
:101B100080ED0E0B9FED870B80ED060B7047087074
:101B2000020A4A70020C8A70020ECA70704708B529
:101B300000200090FFF7CFFFFFF7CCFE7649486901
:101B40006946FFF7ECFF69460420FFF71AFF724968
:101B500008696946FFF7E3FF69460420FFF711FFB4
:101B60006D49C8686946FFF7DAFF69460420FFF748
:101B700008FF694988686946FFF7D1FF6946042074
:101B8000FFF7FFFE644948686946FFF7C8FF6946EA
:101B90000420FFF7F6FE604908686946FFF7BFFFBB
:101BA00069460420FFF7EDFE08BD1CB501210220A7
:101BB00008F0DEFC03208DF8040000208DF80700FB
:101BC0004FF48060009069464D4808F033FA1CBD20
:101BD0001CB50121022008F0CBFC01208DF8040087
:101BE00000208DF8060003208DF8050001208DF8F7
:101BF0000700800200906946414808F01BFA1CBDAE
:101C000038B5044600200090200E8DF80300200C0B
:101C10008DF80200200A8DF80100E0B28DF8000076
:101C200069460420FFF7ADFE38BD10B54348FFF705
:101C3000E7FF40F2B340FFF7E3FF3B48FFF7E0FF69
:101C400010BD2DE9F05F2DED088BB0EE408AF0EE6F
:101C5000608A012600279FED3A0B53EC102B51ECC4
:101C6000180B0EF051FB05D29FED350BB0EE408AFC
:101C7000F0EE608A9FED340B53EC102B51EC180BF7
:101C80000EF07CFC05D29FED300BB0EE408AF0EEFA
:101C9000608A4FF47A759FED2E0B53EC102B51ECAC
:101CA000180B0EF06DFB41EC1B0B0EF085FA834612
:101CB0000EF017FB41EC1A0B9FED250B53EC102B8C
:101CC0000EF0B6F841EC180B9FED210B53EC102BE6
:101CD00051EC180B0EF054FB41EC1A0B9FED1C0B52
:101CE00053EC102B0EF04CFB0B4AC2E90E0151ECE9
:101CF000180B0EF061FA1FFA80F84FF0000A50E05E
:101D00000004024000140240B88242420080404277
:101D1000A88240420080424248460020428E0C1970
:101D2000B3040400B4A0B000050058000000000097
:101D300065CDBD410000000080842E41420E0100AF
:101D40000000000000804140000000000030B14071
:101D50000000000000408F4008FB06F00EF059FA2A
:101D600041EC1A0B9FED5D0B53EC102B0EF006FCB3
:101D70000DD808FB06F00EF04CFA41EC1A0B9FED63
:101D8000590B53EC102B0EF0BFFA00D80CE0781C66
:101D900087B24FF6FF7000EA46060AF101001FFA0B
:101DA00080FABAF10A0FD7DB00BF30460EF099FA7D
:101DB00041EC1B0B53EC182B0EF0E2FA41EC1A0B22
:101DC0009FED4A0B53EC102B0EF032F841EC190B3F
:101DD00051EC190B0EF0F0F91FFA80F91FED240BEE
:101DE00053EC102B51EC190B0EF0CAFA41EC1A0B04
:101DF0000EF0E2F94FF47A71B0FBF1F201FB12043C
:101E000007E0052094FBF0F084B2052095FBF0F08C
:101E100085B2052094FBF0F100FB114030B905209C
:101E200095FBF0F100FB11500028EAD009E02046B4
:101E300004EBD071C1F34F04284605EBD071C1F318
:101E40004F05214604EBD1725210A4EB42023AB97D
:101E5000284605EBD0725210A5EB4202002AE6D0CC
:101E6000072097FBF0F100FB117087B22148C0F802
:101E70002490C4620120B8401E4908620846856269
:101E80004FEAC93000EBC400086048F2010000EBE3
:101E9000C5004860184800EB07500861086A0EF05A
:101EA00020FA41EC1A0B53EC182B0EF069FA114A88
:101EB000C2E910011148FFF7A3FE0E494868FFF779
:101EC0009FFE0C490868FFF79BFE0A490869FFF767
:101ED00097FEBDEC088BBDE8F09F0000CDCCCCCCCC
:101EE000CC2FA1409A9999991930B1400000000077
:101EF0000000F03F484600203C808C001C80EC0035
:101F00001CB50121042008F033FB0121042008F056
:101F10002FFB0121022008F02BFB01208DF804008B
:101F200000208DF8060002208DF8050001208DF8B4
:101F30000700009069462C4808F07CF84FF40050E8
:101F400000906946284808F075F802208DF80700CF
:101F5000000300906946254808F06CF800202449E9
:101F600008602449C1F88002234908601CBD70B58F
:101F70000446254600201E4908601E49C1F880021B
:101F8000002620E005F02000202803D101201A4976
:101F9000086002E00020184908604FF4FA700AF067
:101FA0008CFD01201449343908604FF4FA700AF0AE
:101FB00084FD00200F49C1F880024FF4FA700AF046
:101FC0007CFD6D00761C062EDCD3012008490860DC
:101FD0004FF4FA700AF071FD00200849C1F8B4020C
:101FE0000549086070BD000000080240000402407E
:101FF000B482404200004142B4024142008040426B
:1020000010B590B0002400BF0FE0002008A901EB3C
:10201000C4010871032008A901EBC4014871012023
:1020200008A901EBC401C871641C042CEDDB4FF45A
:102030008070089040200A900C90C0000E9008A973
:10204000FC4807F0F7FF0AA9FB4807F0F3FF0CA9CB
:10205000FA4807F0EFFF0EA9F94807F0EBFF00245C
:1020600014E00120694601EBC401087100206946B3
:1020700001EBC40188710320694601EBC40148717A
:102080000220694601EBC401C871641C042CE8DB22
:102090008020009000020290102004908020069082
:1020A0006946E74807F0C6FF02A9E64807F0C2FF05
:1020B00004A9E04807F0BEFF06A9E04807F0BAFF10
:1020C0008021DF4808F034F84FF40041DD4808F083
:1020D0002FF81021D74808F02BF88021D74808F0B6
:1020E00027F810B010BD10B500240121084608F0F3
:1020F0003FFA0121022008F03BFA0121042008F0F8
:1021000037FA0121102008F033FA0121402008F0AD
:102110002FFAFFF775FF10BD7020CB490871B02072
:102120004871D0208871E020C871072008700B200A
:1021300048700D2088700E20C870704710B50024BC
:102140008021BF4807F0D8FF10B9BF48047919E0D3
:102150004FF40041BB4807F0CFFF10B9BA484479AB
:1021600010E01021B34807F0C7FF10B9B6488479D2
:1021700008E08021B14807F0BFFF10B9B248C47928
:1021800000E00024204610BD10B590B0002400BF30
:102190000FE00020694601EBC40108710320694685
:1021A00001EBC40148710120694601EBC401C8710B
:1021B000641C042CEDDB80200090000202901020B3
:1021C00004908020069069469D4807F033FF02A9DD
:1021D0009C4807F02FFF04A9964807F02BFF06A99B
:1021E000964807F027FF002414E0012008A901EB1E
:1021F000C4010871032008A901EBC4014871002043
:1022000008A901EBC4018871022008A901EBC401EF
:10221000C871641C042CE8DB4FF4807008904020E7
:102220000A900C90C0000E9008A9824807F002FFA7
:102230000AA9814807F0FEFE0CA9804807F0FAFEC3
:102240000EA97F4807F0F6FE4FF48071794807F039
:102250006FFF4021784807F06BFF4021774807F077
:1022600067FF4FF40071764807F062FF10B010BDB1
:1022700010B500244FF480716E4807F03DFF10B98F
:102280007148047819E040216B4807F035FF10B918
:102290006D48447811E04021684807F02DFF10B9DF
:1022A0006948847809E04FF40071654807F024FF1D
:1022B00010B96548C47800E00F24204610BD70B501
:1022C000002500246148006800285ED0FFF7D0FF99
:1022D0000446FFF759FF64200AF0EFFBFFF72EFFDB
:1022E0000443D72C48D012DCB72C43D008DC772C21
:1022F0003ED07B2C34D07D2C2AD07E2C40D117E0D0
:10230000BB2C2FD0BD2C25D0BE2C39D11AE0E72C08
:1023100034D006DCDB2C27D0DD2C1DD0DE2C2FD1D9
:1023200012E0EB2C22D0ED2C18D0EE2C28D10DE0B1
:102330004748006808B9012000E0002044490860CF
:102340002A251EE030251CE023251AE0442518E04C
:10235000372516E0382514E0392512E0432510E032
:1023600034250EE035250CE036250AE0422508E04C
:10237000312506E0322504E0332502E0412500E066
:1023800000BF00BF002031490860FFF739FE284632
:1023900070BD2DE9F0472DED028B044600BF00BF54
:1023A00000BF00BF002600210F46884613E0A05D55
:1023B0002E280ED00A234FF0000C3846A0FB03193C
:1023C00008FB039207FB0C23A05D30380F1843EB8A
:1023D000E07806F10106112E02DAA05D0028E6D1B0
:1023E000384641460DF02CFF41EC180B002514E057
:1023F000605D2E2810D16D1C0AE09FED160B53EC8A
:10240000102B51EC180B0DF013FD41EC180B6D1C4B
:10241000605D0028F1D103E06D1C605D0028E7D10C
:1024200000BFB0EE480AF0EE680ABDEC028BBDE8D2
:10243000F08700000000024000100240000402404B
:102440000008024000180240B00000200C010020EB
:102450008C024242000000000000244070B52DEDC7
:10246000028B05460E469FEDB00BB0EE408AF0EEB3
:10247000608A00240020AE490860AEA310223146D5
:102480002846FFF735F97CE0FFF719FF0446302CAA
:102490001BDB392C19DCAA480068072815DAA94883
:1024A000A7490968445400210246A5480068401C19
:1024B00011541346102231462846FFF719F9A04857
:1024C0000068401C9E4908605BE0232C03D101207A
:1024D0009749086056E0422C1AD1994800680028B4
:1024E0004FDD97480068401E9549086000219548D7
:1024F000934A126881548FA3102231462846FFF771
:10250000F7F8904B102231462846FFF7F1F838E0F3
:102510002A2C16D12E208B49894A12688854002112
:10252000884A87480068401C1154134610223146DF
:102530002846FFF7DDF882480068401C80490860A3
:102540001FE07F48006807281BDA30207D497C4A5D
:102550001268885400217B4A79480068401C115455
:1025600074A3102231462846FFF7C2F8754B10229B
:1025700031462846FFF7BCF871480068401C704996
:10258000086081E700BF6F48FFF703FFB0EE408AA5
:10259000F0EE608A00206A490860B0EE480AF0EE6A
:1025A000680ABDEC028B70BD70B52DED028B05463F
:1025B0000E460020644908609FED5B0BB0EE408A38
:1025C000F0EE608A0024FFF77AFE0446302C21DB0F
:1025D000392C1FDC5D48006807281BDA5C485B4922
:1025E000096844540021024658480068401C1154B0
:1025F00050A3102231462846FFF77AF8544B102298
:1026000031462846FFF774F850480068401C4F498F
:10261000086065E0232C03D101204B4908605FE08E
:10262000422C1AD149480068002859DD4748006803
:10263000401E4649086000204549444A12688854B3
:102640003CA3102231462846FFF752F8404B102297
:1026500031462846FFF74CF842E02A2C20D13B486F
:10266000006807281CDA2E203949384A1268885435
:102670000021374A35480068401C11542DA3102210
:1026800031462846FFF734F8314B102231462846B0
:10269000FFF72EF82D480068401C2C4908601FE009
:1026A0002A48006807281BDA30212948274A12687F
:1026B00081540021024625480068401C11541DA386
:1026C000102231462846FFF713F8214B10223146DD
:1026D0002846FFF70DF81D480068401C1B4908609C
:1026E00019480068012813D10020184908601848CB
:1026F000FFF74FFEB0EE408AF0EE608A0020FEF752
:1027000014FCB0EE480AF0EE680ABDEC028B70BD16
:102710000F48FFF73EFEB0EE408AF0EE608AB0EE62
:10272000480AF0EE680AF0E7000000000000000030
:10273000BC000020202020202020202000000000BD
:10274000C0000020C4000020B8000020CC00002001
:10275000D000002000B58DB00121084607F008FF29
:102760000121080207F05EFF40200B9003208DF846
:10277000300000208DF833000BA91E4807F05AFCEA
:102780000121080207F0A3FF00214FF4807007F039
:102790009EFF002007900A9009904FF48030089027
:1027A00007A808F057FB002001908DF808008DF86D
:1027B00009004FF0C06004904FF0005003900020DB
:1027C000059001208DF8180001A90B4808F013FBB3
:1027D000072301220621084808F093FB012106483F
:1027E00008F04FFB0DB000BD10B5034808F021FC08
:1027F00010BD0000000002400020014010B5002480
:102800000020F8490860902000F020FB002000F034
:102810001DFB002000F01AFB002000F017FBFF203A
:1028200000F014FB44EA0024FF2000F00FFB0443F7
:102830000120ED49C1F8A002204610BD1CB50121C0
:10284000402007F095FE4FF48070009001208DF835
:10285000040000208DF8060003208DF805000120FB
:102860008DF807006946E14807F0E4FB0120DD49E7
:10287000086000F011FB002000F06BFBFFF7BEFFCB
:10288000DB4908801CBD10B500240020D549086034
:10289000052000F0DBFAFF2000F0D8FA0446012002
:1028A000D149C1F8A002204610BD10B50446002051
:1028B000CC490860012000F0C9FA204600F0C6FAB1
:1028C0000120C949C1F8A00210BD10B50020C549BA
:1028D0000860062000F0BAFA0120C349C1F8A0023E
:1028E00010BD10B500BFFFF7CEFF00F001000028BB
:1028F000F9D110BD10B50020BA490860042000F0DD
:10290000A5FA0120B849C1F8A00210BD10B5FFF723
:10291000DCFFFFF7E6FF0020B2490860C72000F0A7
:1029200095FA0120B049C1F8A002FFF7DAFF10BD07
:1029300010B504462403FFF7C8FFFFF7D2FF0020BD
:10294000A8490860202000F081FAC4F3074000F095
:102950007DFAC4F3072000F079FAE0B200F076FACD
:102960000120A149C1F8A002FFF7BBFF10BD10B5BF
:1029700000209C490860B92000F068FA01209A49BB
:10298000C1F8A00203200AF098F810BD10B500208D
:1029900094490860AB2000F059FA01209249C1F82F
:1029A000A00203200AF089F810BD70B505460C4658
:1029B000164600208B490860032000F047FAC4F354
:1029C000074000F043FAC4F3072000F03FFAE0B2FA
:1029D00000F03CFA04E0FF2000F038FA28706D1C8B
:1029E000301EA6F101018EB2F5D101207D490860AB
:1029F00070BD70B505460C461646FFF766FF002011
:102A000078490860022000F021FAC4F3074000F082
:102A10001DFAC4F3072000F019FAE0B200F016FA2C
:102A200003E0287800F012FA6D1C301EA6F10101B7
:102A30008EB2F6D101206B490860FFF752FF70BDDE
:102A40002DE9F05F07460E4614464FF00008C146D8
:102A5000C2460025AB4606F0FF0ACAF10000C5B227
:102A60002046E11704EB1161C1F30728E11704EBDD
:102A700011610912A4EB012101F0FF09BAF1000F65
:102A800020D1B8F1000F05D1224631463846FFF774
:102A9000B0FF64E009E04FF4807231463846FFF73A
:102AA000A8FF06F5807607F58077B8F10000A8F159
:102AB000010101F0FF08EED14A4631463846FFF7E2
:102AC00098FF4CE0B8F1000F18D1A94510DDA9EB33
:102AD000050000F0FF0B2A4631463846FFF789FF14
:102AE0002E442F445A4631463846FFF782FF36E0DF
:102AF000224631463846FFF77CFF30E0601B84B247
:102B00002046E11704EB1161C1F30728E11704EB3C
:102B100011610912A4EB012101F0FF092A46314697
:102B20003846FFF766FF2E442F4409E04FF48072C9
:102B300031463846FFF75DFF06F5807607F580776A
:102B4000B8F10000A8F1010101F0FF08EED1B9F1E0
:102B5000000F04D04A4631463846FFF74AFFBDE829
:102B6000F09F2DE9F05F81460F4616460025DFF8FD
:102B700084B04FEA1738C7F30B0ACAF58054A6424F
:102B800000DC34464FE04FEA08314FF4805258469B
:102B9000FFF70BFF002504E0681C85B2A54200D1B9
:102BA00005E00AEB05001BF80000FF28F4D000BF89
:102BB000A54221DA4046FFF7BBFE002507E019F8E1
:102BC000050005EB0A010BF80100681C85B2A5425F
:102BD000F5DB4FEA08314FF480525846FFF730FFDB
:102BE0000FE00000A00243420000434200180240F0
:102BF000D800002090460020224639464846FFF77C
:102C00001FFFA64200D10FE008F101084FF0000AB3
:102C1000A1442744301B86B2B6F5805F02DD4FF435
:102C2000805400E03446AEE700BFBDE8F09F0000EE
:102C300070B503460C4603E014F8015B03F8015B32
:102C4000151EA2F10102F7D170BD30B5034601E0B7
:102C500003F8011B141EA2F10102F9D130BD10B519
:102C60000446744951F824104A00734951F824006D
:102C70000021FFF7EAFF714951F82420704951F80B
:102C800024000021FFF7E1FF01206E49085510BD27
:102C900010B501460023002207E0674850F82100E4
:102CA00030F8120000B15B1C521C624850F8210041
:102CB0009042F2D8642058435E4C54F82140B0FB57
:102CC000F4F0C0B210BD2DE9F04304460F460025D4
:102CD000A9465C48005D10B92046FFF7C0FF1FB948
:102CE0004FF0FF30BDE8F083574850F82400B7FBA1
:102CF000F0F086B2544850F82400B7FBF0F100FB26
:102D0000117008B1701C86B24A4850F82400451E64
:102D100022E0494850F8240030F8150020B909F1A4
:102D200001001FFA80F901E04FF00009B14512D10E
:102D30004FF0000808E0404850F8240005EB080177
:102D400020F8116008F10108B045F4D33E4850F86E
:102D500024006843C6E76D1E002DDADA4FF0FF301D
:102D6000C0E7F0B504460E463648005D20B920465F
:102D7000FFF775FF0120F0BD304850F82400B04245
:102D800017D9314850F82400B6FBF0F12A4850F822
:102D9000240030F81120002507E00020264B53F8CE
:102DA00024304F1923F817006D1C9542F5DB0020E5
:102DB000E1E70220DFE770B505460C4604B970BDB7
:102DC0001F4850F82500261A31462846FFF7C9FF4C
:102DD00000BFF4E770B504460E4631462046FFF7C3
:102DE00072FF0546681C08B9002070BD144850F8F1
:102DF00024002844F9E7F0B504460F46164631464C
:102E00002046FFF760FF0546681C08B90020F0BDAA
:102E10000B4951F82410481932463946FFF708FF8C
:102E200039462046FFF7C7FF054850F824002844DC
:102E3000EDE70000A0260108E4000020B02601080C
:102E4000DC000020EC000020A826010870B5054633
:102E5000002400BF0221484808F004FC0028F9D0F3
:102E6000601CC4B2C82C01DD002070BD2946424858
:102E700008F0AFFB00BF01213F4808F0F3FB00283A
:102E8000F9D0601CC4B2C82C01DD0020EDE73A483F
:102E900008F09CFBC0B2E8E700B587B00121022032
:102EA00007F066FB0121080307F0BCFB3820059002
:102EB00002208DF8180000208DF81A0003208DF8EC
:102EC000190001208DF81B0005A92C4807F0B2F865
:102ED00005220321294807F038F905220421274853
:102EE00007F033F905221146244807F02EF9012195
:102EF000080307F0ECFB00214FF4805007F0E7FBDC
:102F00000020ADF800004FF48270ADF80200002000
:102F1000ADF804000220ADF806000120ADF808006D
:102F20004002ADF80A003820ADF80C000020ADF8E2
:102F30000E000720ADF8100069460F4808F0CEF9E2
:102F400001210D4808F0C4FAFF20FFF77FFF07B00A
:102F500000BD10B50446084800884FF6C771084008
:102F6000054908800846008820430880012102485E
:102F700008F0AEFA10BD000000300140000402402D
:102F800010B50020FDF7D1FFFCA3182200213C2042
:102F90000AF011FAFEA318223C2178200AF00BFA5D
:102FA000FDA30C2264213C200AF005FAFDA30C22AB
:102FB0006421BE200AF0FFF9FDA30C228C213C20E5
:102FC0000AF0F9F9FDA30C228C21BE200AF0F3F9D6
:102FD00010BD1CB50020FDF7A8FFE8A318220021B2
:102FE0003C200AF0E8F9F8A318223C215A200AF004
:102FF000E2F9F8A30C2264213C200AF0DCF9F8A3E2
:103000000C226421BE200AF0D6F9F8A30C228C21F0
:103010003C200AF0D0F9F8A30C228C21BE200AF043
:10302000CAF91F20F7490880F74890ED000B53ECD0
:10303000102BF6A168460AF059FAF6A30C22DC21FF
:103040003C200AF0B8F96B460C22DB21B420FEF7D5
:103050004FFB4FF6FF70EB4908801CBD10B52DEDFE
:10306000048B84B00020FDF760FFC4A31822002168
:103070003C200AF0A0F9ECA318223C215A200AF0C7
:103080009AF9ECA30C2264213C200AF094F9ECA3F9
:103090000C226421BE200AF08EF9D4A30C228C21CC
:1030A0003C200AF088F9D4A30C228C21BE200AF01F
:1030B00082F91F20D34908809FEDE40B53EC102BBD
:1030C000E44890ED000B51EC100B0DF065FB41EC6A
:1030D000180B9FEDDE0B53EC102BDF4890ED000B2F
:1030E00051EC100B0DF058FB41EC190B8DED008BE2
:1030F00053EC192BD9A102A80AF0F8F902AB0C2263
:10310000C7219620FEF7F4FAD8A30C22C8213C2050
:103110000AF051F99FEDD80B53EC102BD84890EDE5
:10312000000B51EC100B0DF02BF941EC180B0DF0CE
:1031300013F804462246D3A102A80AF0D7F902AB3D
:103140000C22DB219620FEF7D3FAD0A30C22DC213F
:103150003C200AF030F94FF6FF70AA49088004B00D
:10316000BDEC048B10BD10B50020FDF7DEFE83A37F
:10317000182200213C200AF01EF9C7A318223C2186
:103180005A200AF018F9C7A30C2264213C200AF047
:1031900012F9C7A30C226421BE200AF00CF9C7A3C0
:1031A0000C228C213C200AF006F910BD1CB5002031
:1031B000FDF7BBFE71A3182200213C200AF0FBF8AA
:1031C000C1A318223C215A200AF0F5F8C1A30C2211
:1031D00064213C200AF0EFF8B5A30C226421BE2044
:1031E0000AF0E9F8B5A30C228C213C200AF0E3F8A0
:1031F0001F2084490880BB4890ED000B53EC102B36
:10320000B9A168460AF072F9BAA30C22DC213C206D
:103210000AF0D1F86B460C22DB21B420FEF768FAE5
:103220004FF6FF70774908801CBD00B52DED108B5F
:1032300085B0B0EE408AF0EE608A9FEDB30B53ECA0
:10324000102B51EC180B0DF05FF849D29FEDB00B2D
:1032500053EC102B51EC180B0DF092F841EC1D0BB8
:103260009FEDAD1BB0EE480AF0EE680A0BF0B0FD22
:10327000B0EE40FAF0EE60FA9FEDA90B53EC102B84
:1032800051EC1F0B0DF07CF841EC1E0B53EC1D2B89
:103290000CF012FD41EC1C0B9FEDA30B53EC102B1B
:1032A0000DF07AFA41EC1B0B9FED9B0B53EC102BAE
:1032B0000DF066F841EC1A0B9FED9D0B53EC102BB3
:1032C0000DF06AFA41EC190B9FED9B0B53EC102BA0
:1032D0000DF056F841EC100B05B0BDEC108B00BDA5
:1032E0009FED970B53EC102B51EC180B0DF048F899
:1032F00041EC1C0B9FED881BB0EE480AF0EE680A0B
:103300000BF066FDB0EE40FAF0EE60FA9FED8E0B2A
:1033100053EC102B51EC1F0B0DF032F89FED8C1B72
:10332000B0EE480AF0EE680ACDE900010BF050FD5E
:10333000B0EE40FAF0EE60FA9FED870B53EC102BE5
:1033400051EC1F0B0DF01CF841EC1E0B9DED000B1A
:1033500053EC102B0CF0B0FC41EC1D0B53EC1C2B70
:103360000DF01AFA41EC1B0B9FED7D0B53EC102B6B
:103370000CF0A2FC41EC1A0BF6E00000C6B52020D0
:10338000C6D72020B7D62020CEF62020D2C70000F6
:103390004D2045204E205500413AB5A5C6B5C4A3E1
:1033A000CABD0000423AC9A8C6B5C4A3CABD000040
:1033B000433AB5F7B7F9C4A3CABD0000443AB2CE48
:1033C000CAFDC9E8D6C30000B5A520C6B520C4A370
:1033D00020CABD00413AC6B5C2CAC9E8D6C300007A
:1033E000423ACAE4B3F6C6F4B6AF0000433AB2CBF1
:1033F000B5A5BBD8CDCB0000443AD6F7B2CBB5A526
:10340000000000009C00002078000020252E33667C
:103410004D487A00B5B120C7B020CAE420B3F620E9
:10342000C6B520C2CA000000C9A820C6B520C4A3E2
:1034300020CABD00413AC9A8C6B5C9E8D6C3000034
:10344000423AC9A8C6B5C6F4B6AF0000713D0AD766
:10345000A37025404000002038000020252E326651
:103460002D252E32664D487A00000000B5B120C7E8
:10347000B020C9A820C6B5000000000000408F4061
:103480003000002025646B487A000000B7D620B1D8
:10349000E620C2CA00000000B5F720B7F920C4A397
:1034A00020CABD00413AC9A8C6B5C6F4B6AF0000EF
:1034B000423AB2CBB5A5BBD8CDCB0000433AD6F744
:1034C000B2CBB5A500000000B2CE20CAFD20C9E8ED
:1034D00020D6C300413AB1BED5F1B7F9B6C8C9E8A4
:1034E000D6C3000080000020252E33666D56707014
:1034F00000000000B5B120C7B020B1BE20D5F1203A
:10350000B7F920B6C80000007B14AE47E17A00404E
:10351000696FF085C9941940000000000000004068
:10352000A835CD3B4ED1D5BF38F8C264AA4028405B
:10353000B9AAECBB22382F40BE30992A1815084092
:10354000143FC6DCB51A88406C787AA52C6D75409E
:1035500000000000000008406DE7FBA9F10A49C027
:10356000925CFE43FADC81401FED150B53EC102BEF
:103570000CF006FF41EC190B1FED130B53EC102B55
:103580000DF00AF91FED140B53EC102BCDE90201DD
:103590009DED020B51EC100B0CF0F2FE41EC100B08
:1035A0009AE62DE9F04107460C46C4F1E20086B2E6
:1035B000E22507E04FF6E07231463846FDF7B1FAF2
:1035C000681E85B2B542F5DCBDE8F081F0B52DEDA1
:1035D0000A8B83B00020FDF7A8FCAFF26023102215
:1035E0000021502009F0E7FE1F20E22340F23F12A5
:1035F000194600901A20FDF7A3FA1F20132340F26A
:103600003F12194600900120FDF79AFA1F20E2238D
:103610001822132100901046FDF792FA1F20E22392
:103620001A46132100901846FDF78AFA1F20E2235C
:1036300040F23F12132100901046FDF781FA012558
:103640007CE0002476E01F2004EB840100EB4101C4
:103650008AB204EB84011A2303EB4101009088B283
:10366000CD231946FDF76CFAFAA30C22CD210320D5
:10367000FEF73EF81F2004EB840100EB41018AB203
:1036800004EB84011A2303EB4101009088B29123DB
:103690001946FDF755FAF0A30C2291210320FEF7FD
:1036A00027F81F2004EB840100EB41018AB204EBF0
:1036B00084011A2303EB4101009088B25523194677
:1036C000FDF73EFAE5A30C2255210320FEF710F882
:1036D0001F2004EB840100EB41018AB204EB84015A
:1036E0001A2303EB4101009088B219231946FDF714
:1036F00027FADBA30C2219210320FDF7F9FF1F2075
:1037000004EB840600EB4606B3B205EB85061A27E8
:1037100007EBC606B2B204EB840607EB4606B1B26D
:1037200005EB850607EBC6060090B0B2FDF708FA78
:10373000601C84B2142C86DB681C85B2052D80DBEE
:10374000C84890ED000B53EC102BC74890ED000BD0
:1037500051EC100B0DF020F841EC190B9FEDC30B51
:1037600053EC102B0CF064FB41EC180B00252BE004
:1037700028460CF0B6FD53EC182B0CF001FE41EC82
:103780001B0BB84890ED000B53EC102B51EC1B0BAE
:103790000CF092FA1FEDD30B53EC102B0CF0FCFF46
:1037A00041EC190B53EC192BB2A101A809F09EFEB4
:1037B00005EB8501C9000A3188B201AB0C22E32177
:1037C000FDF796FF681C85B2062DD1DBABA30C225A
:1037D0001E21FA2009F0EFFD1F20382340F23F128E
:1037E00019460090E220FDF7ABF91F207B2340F241
:1037F0003F1219460090E220FDF7A2F9A2A30C2285
:103800004121F52009F0D7FDA2A30C226921F52062
:1038100009F0D1FDA2A30C228C21FA2009F0CBFDE6
:10382000A2A30C22AF21FA2009F0C5FD03B0BDEC24
:103830000A8BF0BDA0480068A0490860A048007845
:1038400018B901209C49086018E09D4800780128BB
:1038500003D102209849086010E0994800780228B6
:1038600003D103209449086008E0954800780328B4
:1038700003D104209049086000E0704700BFFCE7D6
:103880001CB58D4800688D4908608E480078002876
:103890003AD1FDF74AFBAFF21C53182200213C201D
:1038A00009F089FD88A30C2228213C2009F083FD22
:1038B0008BA30C223C21084609F07DFD8EA30C222F
:1038C00050213C2009F077FD90A30C2264213C207C
:1038D00009F071FD91A30C2278213C2009F06BFDC9
:1038E00092A30C228C213C2009F065FDAFF2E0434D
:1038F0001022A0210846FDF7FBFE0A206E49086051
:1039000005208F49086052E06E48007801283DD1BB
:103910000020FDF70AFBAFF29C53182200213C2047
:1039200009F049FD874890ED000B53EC102BAFF2E6
:103930002451684609F0DAFD6B460C222721B42099
:10394000FDF7D6FE80A30C2228213C2009F033FD90
:1039500082A30C223C21084609F02DFD83A30C22F2
:1039600050213C2009F027FD86A30C2264213C2035
:1039700009F021FD734890ED000BFEF762F90A2073
:103980004D49086007206E49086010E04D480078F6
:10399000022803D100204849086008E0494800781F
:1039A000032803D100204449086000E01CBD00BF8B
:1039B000FCE710B5FFF70AFE2A4890ED000B7548AA
:1039C00080ED000BFEF7B3F8724890ED000BFEF7A8
:1039D00038F9002070490860704908609FED700B4D
:1039E00053EC102B704890ED000B51EC100B0CF0C9
:1039F000C5FD0BD201206D4908606D4908609FED3F
:103A00006D0B6E48006880ED000B0DE040F21F303A
:103A10004FF08041C8620220644908600120684973
:103A2000086000206249086010BD10B52248006897
:103A30002249086063480078002809D1FDF775FA2B
:103A4000AFF2C863182200213C2009F0B4FCBBE0AF
:103A5000D6E000002D3837002D3637002D343700E2
:103A60002D32370038000020400000200000000008
:103A700000001440252E316600000000C3FC20C168
:103A8000EE20C0B800000000413ACDCBB3F6C9A883
:103A9000C6B50000423AB6A8CEBBB9E2B1EA000012
:103AA000B5B1C7B0C6B5C2CA00000000B5B1C7B055
:103AB000B5E7D1B90000000000000020040000209C
:103AC0001000002011000020C7EB20CAE420C8EB42
:103AD00020B1BE20D5F120C6B520C2CA000000002A
:103AE00030202D203920CEAA20CFE020D3A620CA16
:103AF000FD20D7D600000000412043204420CEAA5C
:103B000020CAFD20D7D62030000000002A20CEAAEF
:103B100020D0A120CAFD20B5E30000004220CEAA9B
:103B200020CDCB20B8F120BCFC000000B0B420CFE9
:103B3000C2202320CAE420C8EB20CDEA20B3C9006C
:103B40000800002078000020B5B120C7B020B1BE29
:103B500020D5F120C6B520C2CA0000004120CDA367
:103B600020D6B920CAE420B3F60000004220CDA33D
:103B700020D6B920CAE420B3F620B2A220CDCB20B3
:103B8000B3F600004320BCCC20D0F820CAE420B318
:103B9000F6000000480000206C00002054000020C7
:103BA0009A9999999999A93F300000202C000020FA
:103BB0006800002000000000004057C064000020A2
:103BC0005000002012000020F6A30C223C210846E1
:103BD00009F0F1FBF9A30C2250213C2009F0EBFB8A
:103BE000FBA30C2264213C2009F0E5FB0020FD49E9
:103BF00008600A20FC4908600620FC4908601DE0B6
:103C0000FB480078012808D1FFF7D3FE0A20F649C7
:103C100008600820F549086010E0F548007802289F
:103C200003D10020F049086008E0F148007803283B
:103C300003D10020EC49086000E010BD00BFFCE7A4
:103C4000704710B5E8480068EA490860EA4800781B
:103C500090B90020FDF769F9AFF6E00318220021C2
:103C60003C2009F0A8FB0A20DF4908600820DF4952
:103C70000860FFF7E5FF10E0DF480078012803D176
:103C80000020D949086008E0DB480078022803D109
:103C90000020D549086000E010BD00BFFCE710B56A
:103CA000D1480068D3490860D448007800283FD143
:103CB000FDF73BF9AFF63C13182200213C2009F038
:103CC0007AFBCFA30C2228213C2009F074FBAFF231
:103CD000F0130C223C21084609F06DFBAFF2E8130B
:103CE0000C2250213C2009F066FBAFF2E0130C22BD
:103CF00064213C2009F05FFBAFF2E0130C22782135
:103D00003C2009F058FBAFF2DC130C228C213C2044
:103D100009F051FBAFF62C031022A0210846FDF755
:103D2000E7FC0A20B04908600920B049086010E0AB
:103D3000B2480078012803D10020AB49086008E0B0
:103D4000AE480078022803D10020A749086000E0AF
:103D500010BD00BFFCE70B20A4490860A248006822
:103D6000AD490860A34800689F490860AA480068F8
:103D7000A04908607047F8B505460E46002400BF0C
:103D80002AE04FF4784004EB84074FF0180C0CEB5A
:103D90004707BBB2AAB204EB84074FF0130C0CEB3D
:103DA0004707B9B20090A8B2FCF7CAFE4FF47840BA
:103DB000B3B204EB84074FF01F0C0CEB4707BAB209
:103DC000B1B204EB84074FF01A0C0CEB47070090DC
:103DD000B8B2FCF7B5FE641C142CD2D34FF4784073
:103DE00004EB84074FF0180C0CEB4707BBB2AAB2E8
:103DF00004EB84074FF0130C0CEB4707B9B20090AB
:103E0000A8B2FCF79DFEF8BD2DE9F0412DED028B27
:103E100005460E469FED810BB0EE408AF0EE608ABB
:103E20000027002419E005EBC40090ED001BB0EE64
:103E3000410AF0EE610A53EC182B51EC100B0CF018
:103E40009DFB08D205EBC40090ED000BB0EE408A5C
:103E5000F0EE608A2746641C641CB442E3DB3846FB
:103E6000BDEC028BBDE8F08110B52DED048BCA21AD
:103E70006C480068FFF7C8FF044604F118006A495F
:103E80000860601E0CF0C5F941EC190B674890ED15
:103E9000000B53EC102B51EC190B0CF071FA41ECA8
:103EA000180B634890ED000B53EC102B51EC180BE2
:103EB0000BF002FF5F4A03C25A48006800EBC400DF
:103EC00090ED000B5C4880ED000B90ED000B53EC87
:103ED000102B9FED5A0B51EC100B0CF051FA41ECEA
:103EE000190B9FED580B53EC102B0CF07DFB41ECA4
:103EF000180B0CF061F955490860BDEC048B10BD3E
:103F000010B52DED068BB0EE408AF0EE608A9FED85
:103F1000500B53EC102B51EC180B0CF0F5F903D2AD
:103F20000320BDEC068B10BD9FED4B0B53EC102B0B
:103F300051EC180B0BF0C0FE41EC1A0B9FED3F0B40
:103F400053EC102B0CF01CFA41EC190B0CF034F96B
:103F500080B2E6E7014601F1180080B2704770B503
:103F60002DED028B3E480068C9287FDC3D48006883
:103F70000A287DDAFEF738FC04460CF0B2F941EC71
:103F8000180B394890ED000B53EC102B51EC180B2B
:103F90000BF092FE344A03C232480068401C31499B
:103FA0000860BBE0C7EB20D1A120D4F120C9A82034
:103FB000C6B520B2BD20B3A4000000004120C9A8AE
:103FC00020C6B520B2BD20B3A42031306B00000064
:103FD0004320C9A820C6B520B2BD20B3A4203130EB
:103FE000306B0000280000200000002008000020A6
:103FF0001200002004000020130000201400002004
:10400000C7EB20CAE420C8EB20B1BE20D5F120B711
:10401000F920B6C8000000000C00002000000000DD
:10402000000059C06400002058000020300000202B
:1040300038000020180000202000002000000000B0
:10404000000008400000000000004CC05C000020A0
:1040500000000000000057C0000000000080574032
:10406000680000206C000020F000002050E0FFE716
:10407000B44890ED000B53EC102BB34890ED000BBF
:1040800051EC100B0BF018FEAF4A41EC180BB0EEE0
:10409000480AF0EE680A03C2FDF7D3FD9FEDAB0BB3
:1040A00053EC102BAB4890ED000B51EC100B0BF0C8
:1040B000BFFEA94A03C2A84890ED000BFFF7B5F870
:1040C000A6480068A649096800EBC10080ED000B16
:1040D000A14880ED000B0020A24908609E4890EDA9
:1040E000000BFFF70DFF04469D49098888B2FFF7D2
:1040F00031FF05462146FFF754FA9FED9B0B95488B
:1041000080ED000B96480068401C9549086005E06A
:10411000012097490860002096490860BDEC028B99
:1041200070BD10B52DED028B8D480068B0F5FA6FAB
:1041300051DC8C4800680A2817DAFEF755FB044664
:104140000CF0CFF841EC180B824890ED000B53ECCB
:10415000102B51EC180B0BF0AFFD7E4A03C28148C7
:104160000068401C7F49086038E0764890ED000BFD
:1041700053EC102B744890ED000B51EC100B0BF02E
:104180009BFD714A41EC180BB0EE480AF0EE680A4C
:1041900003C2FDF756FD9FED6D0B53EC102B6D48E0
:1041A00090ED000B51EC100B0BF042FE724A1268BE
:1041B0006B4B1B6802EBC30203C200206949086015
:1041C0009FED690B634880ED000B65480068401C5B
:1041D0006349086002E0032068490860BDEC028B77
:1041E00010BD70B52DED028B5D480068C9286BDCF1
:1041F0005C4800680A2817DAFEF7F6FA04460CF065
:1042000070F841EC180B534890ED000B53EC102B59
:1042100051EC180B0BF050FD4E4A03C25148006898
:10422000401C5049086055E0464890ED000B53ECA7
:10423000102B454890ED000B51EC100B0BF03CFDA2
:10424000414A41EC180BB0EE480AF0EE680A03C28E
:10425000FDF7F7FC9FED3D0B53EC102B3D4890ED27
:10426000000B51EC100B0BF0E3FD3B4A03C23A4844
:1042700090ED000BFEF7D9FF38480068384909680F
:1042800000EBC10080ED000B334880ED000B0020F7
:1042900034490860304890ED000BFFF731FE0446CA
:1042A0002F49098888B2FFF755FE05462146FFF7DA
:1042B00078F99FED2D0B274880ED000B284800680A
:1042C000401C2749086005E000202A4908600120B9
:1042D00027490860BDEC028B70BD10B50020FCF7CB
:1042E00024FEAFF66873182200213C2009F063F821
:1042F00023A30C223C21084609F05DF8AFF6200309
:104300000C2250213C2009F056F8AFF600030C2295
:1043100064213C2009F04FF8AFF600030C2278210D
:104320003C2009F048F8AFF2FC730C228C213C20B1
:1043300009F041F8AFF628730C229F218C20FDF77D
:10434000D7F910BD30000020480000200000000018
:104350000088C340F0000020F80000206400002026
:10436000680000206C000020000000000000000039
:10437000540000202C00002060000020500000208D
:10438000C7EB20D1A120D4F120C9A820C6B520C6F2
:10439000F020B5E3000000007FB505460C46012182
:1043A000084606F02EF90295ADF804400020ADF85D
:1043B0000600ADF80C0001A94FF0804007F0C3FDE6
:1043C00001221146900708F05FFA2021480608F004
:1043D00013FB0121880707F03FFE1C208DF8000029
:1043E00000208DF8010003208DF8020001208DF8D7
:1043F0000300684605F02DFD7FBD10B5012188073B
:1044000008F059FA01281BD12E480068C0B12D4888
:104410000068012802D0022811D102E0FFF79FFDB9
:104420000DE029480068012802D1FFF77AFE05E077
:1044300025480068022801D1FFF7D3FE00BF00BF66
:104440000121880708F048FA10BD7FB505460C46E3
:104450000121082006F0D5F80295ADF804400020AF
:10446000ADF80600ADF80C0001A9184807F06BFD87
:1044700001221146154808F007FA0121134807F0F8
:10448000EBFD32208DF8000000208DF801000220A5
:104490008DF8020001208DF80300684605F0D9FC74
:1044A0007FBD10B50121094808F005FA012803D1A4
:1044B00000F024F800F0DCF80121044808F00CFAC0
:1044C00010BD00002C00002050000020000C004017
:1044D0001CB50121202006F04BF84FF470700090BD
:1044E00000208DF8040003208DF8050001208DF8D0
:1044F00007006946FC4805F09DFD1CBD10B5FB4852
:10450000006806287AD2DFE800F0AD0324575E8108
:104510000020F74908604FF48071F64805F0ECFD83
:1045200088B14021F44805F0E7FD60B14021F3482F
:1045300005F0E2FD38B14FF40071F14805F0DCFD03
:1045400008B1012000E0002010B90220E74908600E
:104550008CE0E7480068052806D10020E44908609F
:104560000320E249086026E0E148006805281FDAD8
:104570004FF48071DF4805F0BFFD88B14021DE486F
:1045800005F0BAFD60B14021DC4805F0B5FD38B159
:104590004FF40071DA4805F0AFFD08B1012000E0EA
:1045A000002028B9D2480068401CD149086002E0C8
:1045B0000120CE49086059E00120D249086004205A
:1045C000CA49086052E00020C94908604FF4807170
:1045D000C84805F091FD90B14021C74805F08CFD19
:1045E00068B14021C54805F087FD40B14FF4007126
:1045F000C34805F081FD10B1012001E032E0002048
:10460000012802D10520B94908602FE0B8480068A8
:10461000052803D10120B549086022E04FF48071DC
:10462000B44805F069FD88B14021B34805F064FD48
:1046300060B14021B14805F05FFD38B14FF4007121
:10464000AF4805F059FD08B1012000E0002018B97D
:104650000420A649086004E0A5480068401CA4495D
:10466000086003E00120A149086000BF00BF10BD41
:10467000A5480068062851D2DFE800F050030D2954
:10468000303B0020A1490860A148006810B9022011
:104690009D49086046E09D480068052806D1002035
:1046A0009A4908600320984908600FE0974800681D
:1046B000052808DA9648006828B994480068401C24
:1046C0009249086002E001208F4908602AE0012039
:1046D0009049086004208C49086023E000208B4941
:1046E00008608B480068012802D1052086490860CF
:1046F00018E086480068052803D101208249086037
:104700000BE08348006818B904207F49086004E082
:104710007E480068401C7D49086003E001207A491A
:10472000086000BF00BF70477B480068062855D26C
:10473000DFE800F054030E2B323E0020774908607A
:104740007348001F006810B902207349086049E0EF
:1047500072480068052806D10020704908600320CF
:104760006D49086010E06D480068052809DA68485E
:10477000001F006828B969480068401C6749086044
:1047800002E00120644908602CE0012064490860CF
:1047900004206149086025E00020604908605C4809
:1047A000001F0068012802D105205B49086019E05C
:1047B0005A480068052803D10120574908600CE0D9
:1047C0005348001F006818B904205349086004E0EA
:1047D00052480068401C5149086003E001204E49DE
:1047E000086000BF00BF70474E480068062855D2D9
:1047F000DFE800F054030E2B323E00204A490860E7
:1048000043480838006810B902204649086049E06A
:1048100045480068052806D1002043490860032068
:104820004049086010E040480068052809DA384827
:104830000838006828B93C480068401C3A490860BC
:1048400002E00120374908602CE001203749086068
:1048500004203449086025E00020334908602C48D2
:1048600008380068012802D105202E49086019E0A7
:104870002D480068052803D101202A4908600CE072
:1048800023480838006818B904202649086004E065
:1048900025480068401C2449086003E001202149A4
:1048A000086000BF00BF70472148006806287CD21E
:1048B000DFE800F07B030E535A6500201D490860B5
:1048C00013480C38006810B902201949086070E0DC
:1048D0001848006805282FD10020164908600320D9
:1048E0001349086038E0000000140240080100206D
:1048F00004010020000002400010024000040240B9
:10490000000802400C0100201401002010010020CA
:104910002482424218010020200100201C010020B6
:10492000240100202C01002028010020300100205B
:1049300038010020340100201F480068052808DAEB
:104940001E48006828B91C480068401C1A490860C5
:1049500002E001201A4908602BE001201949086093
:1049600004201749086024E0002013490860134818
:104970000068012802D105201149086019E00E489D
:104980000068052804D101200D4908600CE00CE006
:104990000A48006818B904200949086004E006487C
:1049A0000068401C0449086003E0012004490860D5
:1049B00000BF00BF7047000034010020188242424F
:1049C000380100203C0100201CB50121402005F0E9
:1049D000CFFD012000908DF8040000208DF8060026
:1049E00003208DF8050001208DF807006946604816
:1049F00005F020FB01215E4805F098FB1CBD1CB5AD
:104A00000121202005F0B4FD0120009000208DF848
:104A1000040003208DF8050001208DF80700694689
:104A2000544805F007FB1CBD0EB5FFF7E8FFFFF784
:104A3000CBFF0121880305F0F5FD0021052007F0DB
:104A40009CF90120009000208DF804000C208DF8C6
:104A5000050001208DF80600684607F003F90620DE
:104A60008DF8080001208DF809008DF80A008DF8F6
:104A70000B0002A805F0EDF90EBD10B53E48006828
:104A8000401F05286BD2DFE800F0030B394E3100E0
:104A9000A0213C20FDF788FD384880ED000B5EE04A
:104AA00037480068D0B9FDF70AFC412802D04328F6
:104AB00013D10AE09FED330B344880ED000B012049
:104AC0002F490860FFF709FC07E0FFF744F99FED65
:104AD000300B2E4880ED000B00BF06E0A0213C20EB
:104AE000FDF762FD254880ED000B38E0A0213C2059
:104AF000FDF75AFD214880ED000B30E0FDF7DFFBAC
:104B0000412804D0422803D043280AD103E008E01A
:104B1000FFF721F905E0204890ED000BFDF791F833
:104B200000BF00BF1BE01D480068B8B9FDF7C7FB18
:104B3000412802D0422810D105E000201849086021
:104B4000FFF709F909E01648006828B1154801681F
:104B500015480068FFF70FF900BF00BF00BF00BF96
:104B6000012007F0F0F80121014805F0DFFA10BD3F
:104B700000180240001402400800002070000020CD
:104B8000280000207B14AE47E17A843F30000020EB
:104B90009A9999999999B93F780000202C000020A2
:104BA000540000205C000020580000200020FE4936
:104BB0000860091D0860091D0860091D0860FA49A0
:104BC00024310860091D0860091D0860F748F6498E
:104BD000383108600020091D086070470146002038
:104BE000012900D011B9F24B197000E0262070475E
:104BF0000146ED4A121D106820F0FF0008431060C6
:104C0000704770B5044606E0E7483430056805F0A3
:104C1000450000B100E0F7E700BF042006F0EEFF1A
:104C200020B1042006F0F5FF032070BD012006F03E
:104C3000E5FF20B1012006F0ECFF0120F5E7DA489E
:104C400010300068A04201D01020EEE740F2FF5083
:104C500006F0DFFFD4481430006808210840C0B2D5
:104C6000E3E72DE9FC4107460D460026002400201D
:104C7000009001900820CF49086010204860402033
:104C800088600020C8604FF480600861084606F024
:104C900022FF1020FFF7B5FF044614B12046BDE8FF
:104CA000FC81C54800880004C2490860372048607C
:104CB000402088600020C8604FF48060086108468A
:104CC00006F009FF3720FFF79CFF04460CB1204691
:104CD000E5E74FF0FF30B949086008204860302010
:104CE00088600220C86000200861012048610846F1
:104CF00006F01DFF0020AF490860332048604020C7
:104D000088600020C8604FF480600861084606F0A3
:104D1000E2FE3320FFF775FF04460CB12046BEE7E4
:104D20000DE04FF4001006F069FF40B19E4880305E
:104D300000684DF82600761C022E00D307E09A4842
:104D40003430006840F22A6108400028E9D000BFF2
:104D5000082006F053FF20B1082006F05AFF042077
:104D60009DE7022006F04AFF20B1022006F051FF25
:104D7000022094E7202006F041FF20B1202006F019
:104D800048FF06208BE74FF4007006F037FF28B18C
:104D90004FF4007006F03DFF072080E740F2FF501F
:104DA00006F037FF00980006009901F47F4140EAC1
:104DB0000120009901F47F0140EA1120009940EAA6
:104DC0001160686001980006019901F47F4140EA92
:104DD0000120019901F47F0140EA1120019940EA84
:104DE0001160286020465AE77CB505460024002063
:104DF0000090019000260DB1022600E000266A48CE
:104E00001430006800F0007008B10E207CBD6A49C3
:104E1000098888B26946FFF724FF04460CB1204692
:104E2000F4E7019800F4802060B363480088000430
:104E30006049086037204860402088600020C860D2
:104E40004FF480600861084606F045FE3720FFF702
:104E5000D8FE04460CB12046D8E756480660062026
:104E600054494860402088600020C8604FF480604A
:104E70000861084606F02FFE0620FFF7C2FE044632
:104E80002046C3E72520C1E770B5044600254C48FD
:104E90000078032802D12725284670BD48480078AD
:104EA00038B147480078012803D0454800780228E7
:104EB00019D1B4F5805F02D127252846EDE7E0B28D
:104EC000FFF792FF054675B93748001D006820F4CA
:104ED000C0503549091D0860084600682043086035
:104EE0000846006808602846D7E710B504463148F0
:104EF000046007202F494860402088600020C86077
:104F00004FF480600861084606F0E5FD0720FFF7D2
:104F100078FE10BDF0B5014600200022284B1B781A
:104F200081F85630244B1B88A1F85430254B1B6860
:104F30001A0E93090B70C2F383034B7002F0030344
:104F40008B70204B1B68C3F30742CA701D4B1B8834
:104F5000C3F307220A711B4B1A784A715B681A0E59
:104F60001301CB80174B5B68C3F30742CB8843EA3E
:104F70001213CB8002F00F030B72124B9B88C3F30A
:104F80000722D3094B72C2F380138B72C2F3401312
:104F9000CB72C2F300130B7300234B73084B1B78C7
:104FA000C3B1074B1B780FE0002C0140FF07C00086
:104FB00048010020A8AA012044010020BCAA012029
:104FC00040010020D4AA0120012B03D0FE4B1B7806
:104FD000032B4FD193071B0D0B61FC4B1A790B6907
:104FE00043EA82030B61F94B9B681A0E0B6943EA93
:104FF00092130B61C2F3C2030B7502F007034B75EA
:10500000F24B9B68C3F3074253098B75C2F38203CB
:10501000CB7593075B0F0B76EC4B1B89C3F3072211
:105020000B7E43EAD2130B760B695B1C0024C1E9AB
:1050300012340B7E9B1C012606FA03F3DE17D1E91E
:105040001245A4FB037C05FB03C304FB0633C1E943
:1050500012730C7A0123A3400B650024D1E9125688
:105060000B6DA5FB037C06FB03C305FB0433C1E901
:1050700012732CE0D44B1B78022B28D1D34B1A7916
:1050800093069B0A0B61D14B9B681A0E0B6943EA8E
:1050900002230B61CD4B9B68C3F307420B6913439B
:1050A0000B61CA4B1B89C3F307220B695B1C4FF4CE
:1050B0000074A3FB043566000027A3FB064C05FB28
:1050C00006C503FB0753C1E9124373100B65C2F316
:1050D000801301F8193F93065B0E4B70BB4B1A7A95
:1050E0004B7843EAD2134B7002F07F038B70B74BBF
:1050F000DB681A0ED309CB70C2F341130B71C2F3F4
:1051000082034B7193071B0F8B71B04BDB68C3F3AA
:1051100007428B7943EA92138B71C2F34013CB7130
:1051200000230B7202F001034B72A84B9B89C3F35F
:105130000722D3098B72C2F38013CB72C2F34013E0
:105140000B73C2F300134B73C2F381038B7302F032
:105150000303CB739D4B1A7B53080B7401234B74D1
:105160009B4B1B681A0ECA741939994B1B68C3F301
:1051700007421402CC85964B1B88C3F30722CB8DC4
:105180001343CB85924B1A7814060C635B681A0E96
:105190000B6B43EA02440C638D4B5B68C3F307421D
:1051A0000B6B43EA02240C63894B9B88C3F30722F1
:1051B0000B6B13430B63864B1A7934235A54844B7D
:1051C0009B681A0E35235A54814B9B68C3F30742E0
:1051D00014068C637E4B1B89C3F307228B6B43EA57
:1051E00002448C637A4B1A7A8B6B43EA02248C63F9
:1051F000774BDB681A0E8B6B13438B63744BDB6846
:10520000C3F307423C235B5C43EA12143C235C5427
:1052100013071C0DCC876E4B9B89C3F30722CB8FE2
:105220001343CB876A4B1A7B540840235C540124F8
:1052300041235C54F0BD70B500264FF4803505E085
:105240006448046804F0450000B103E0281EA5F19D
:105250000105F5D100BF15B104F0040028B1032603
:10526000042006F0D6FC304670BD012006F0C6FCD6
:1052700018B10126012006F0CCFC40F2FF5006F0E8
:10528000C8FC3046F0E72DE9F04105460E464FF0E8
:10529000000805E04F48076807F0450000B100E04E
:1052A000F8E700BF042006F0A9FC28B1042006F0AE
:1052B000B0FC0320BDE8F081012006F09FFC20B186
:1052C000012006F0A6FC0120F4E7424824380068DB
:1052D000A84201D01020EDE740F2FF5006F099FC03
:1052E0003C482038046804F4604018B9200C308031
:1052F0004046DFE704F4005008B11320DAE704F475
:10530000804008B11020D5E704F4004008B10F2018
:10531000D0E74046CEE738B500240120009006F0E3
:10532000D4FB10B92524204638BD2748007804282E
:1053300025D000202849086002204860C0208860ED
:105340000020C8604FF480600861084606F0C3FB87
:10535000FFF771FF04460CB12046E5E71D482038F1
:1053600000681B4908601B481C38006848601948E1
:10537000183800688860174814380068C8601248F8
:10538000007858B110480078012807D00E480078FE
:10539000062803D00C480078022821D100200E49AD
:1053A000086003204860402088600020C8604FF4F7
:1053B00080600861084606F08EFB69460320FFF70F
:1053C00062FF044664B109E040010020D4AA012034
:1053D000E4AA0120342C0140A8AA01202046A3E71A
:1053E000FE480078032816D1BDF800000004FC49EF
:1053F000086003204860402088600020C8604FF4A7
:1054000080600861084606F066FBFFF714FF04465B
:105410000CB1204688E7F148007804282AD0BDF86E
:105420000000F0490860BDF800000004EC49086085
:1054300009204860C02088600020C8604FF4806068
:105440000861084606F047FBFFF7F5FE04460CB17D
:10545000204669E7E4480068E4490860E248001D26
:1054600000684860E048083000688860DE480C301A
:105470000068C860002057E710B506E0DA48203021
:10548000046804F0450000B100E0F7E700BF042025
:1054900006F0B4FB20B1042006F0BBFB032010BDD6
:1054A00040F2FF5006F0B5FB0020F8E770B500268B
:1054B0004FF4803506E0CC482030046804F0450005
:1054C00000B103E0281EA5F10105F4D100BF15B11C
:1054D00004F0040028B10326042006F09AFB3046AD
:1054E00070BD04F0400018B10026402006F091FB8A
:1054F0003046F5E770B500254FF4803404E0802095
:1055000006F07CFB00B103E0201EA4F10104F6D1FB
:1055100000BF0CB9032070BD40F2FF5006F079FBCC
:105520002846F8E72DE9F04700270024002600254B
:10553000A046A1467620AE49087500200860486064
:105540008860C8600861084606F09BFA032006F0F0
:10555000B8FAA5481038006840F48070A2491039A4
:10556000086000BF12E000209D4908604860886024
:10557000C8604FF480600861084606F0ACFAFFF797
:10558000B9FF044604B903E0781CC7B24A2FEADB2E
:1055900000BF14B12046BDE8F0874FF4D5709049A4
:1055A000086008204860402088600020C8604FF4F0
:1055B00080600861084606F08EFAFFF777FF044620
:1055C00024B90120854908704FF0804900208449A2
:1055D000086037204860402088600020C8604FF491
:1055E00080600861084606F076FA3720FFF709FB6D
:1055F0000446002C4BD134E0002079490860372064
:105600004860402088600020C8604FF480600861D6
:10561000084606F060FA3720FFF7F3FA04460CB1AB
:105620002046B8E7734849EA00006D490860292020
:105630004860402088600020C8604FF480600861A6
:10564000084606F048FAFFF717FF04460CB120465B
:10565000A1E765480668012080EAD67080F001085D
:105660006D1CB8F1000F03D14FF6FF708542C3D314
:105670004FF6FF70854202D31B2420468BE706F0CD
:105680008040061E32D00220544908702EE01CE0F3
:105690005948534908600120486040208860002034
:1056A000C8604FF480600861084606F014FAFFF7FE
:1056B000E3FE04460CB120466DE74B480668012026
:1056C00080EAD67080F001086D1CB8F1000F03D19C
:1056D0004FF6FF708542DBD34FF6FF70854202D351
:1056E0001B24204657E703203C490870204652E718
:1056F0003EB5002400250121404804F039FF012176
:10570000C80204F08FFF0121C80204F0E0FF4FF44B
:10571000F850019002208DF808008DF80900002053
:105720008DF80A0001208DF80B0001A9344804F01F
:1057300081FC0420019001A9324804F07BFC0C227A
:1057400008212F4804F001FD0C2209212C4804F007
:10575000FCFC0C220A212A4804F0F7FC0C220B2145
:10576000274804F0F2FC0C221146254804F0EDFC19
:105770000C220221234804F0E8FC00214FF40060D1
:1057800004F0A5FFFFF712FA31208DF80000002089
:105790008DF801008DF8020001208DF803006846A5
:1057A00004F057FBFFF7BEFE044614B9FFF7B3FD44
:1057B00004461CB91448FFF7ADFB044634B912493E
:1057C000B1F854100804FFF790FB044624B94FF4D5
:1057D0000060FFF759FB0446E4B117E040010020E8
:1057E000A8AA012044010020142C0140D4AA0120C1
:1057F00090AA0120000010800080FF800C00400073
:1058000000080240000C0240F8AA0120FE4800787F
:10581000032812D1FD4890F8560020B1FB4890F8BB
:105820005600012801D1022500E000252846FFF797
:10583000DFF90020FFF7D2F9044620463EBD10B53F
:10584000002006F03EF9002010BD70B590B004466F
:105850000E46154600BFEE4806F05DF80028FAD166
:10586000EB4805F02FFF4FF000600190E9480290EF
:10587000039404950020059006904FF480600790F3
:10588000800008908000099000200A904FF440307A
:105890000B9004200C9003200D904FF400000E900C
:1058A00080100F9001A9DA4805F0AEFF2021D848FA
:1058B00005F0FAFF0121D64805F0E0FF10B070BDF9
:1058C0000146002002E04910421CD0B20129FAD161
:1058D00070472DE9F84F8146174698460A9C4FF0CD
:1058E000000AD3464D464FF0FF36B9F1000F02D102
:1058F0002620BDE8F88F0020C64954390860C24808
:105900000078022805D10402780A40EAC8574FEA15
:1059100068280020C04988604860401E0860012057
:1059200048610020C8600861084606F000F9B948DF
:105930006C38006800F0007008B10E20D9E7002C28
:1059400021DDB4F5006F1EDC601E2040D8B9204672
:10595000FFF7B6FF0090B14804601020AF494860DF
:10596000402088600020C8604FF4806008610846CD
:1059700006F0B1F81020FFF744F98246BAF1000FA3
:1059800003D05046B5E72620B3E700980001A249AE
:105990008860084644604FF0FF300860012048618D
:1059A0000220C86000200861084606F0C0F89B4845
:1059B0000760112099494860402088600020C86035
:1059C0004FF480600861084606F085F81120FFF763
:1059D00018F98246BAF1000F01D0504689E7904885
:1059E000007800285AD1FAF750FC17E04FF4004035
:1059F00006F004F970B14FF0000B05E0854800682F
:105A000045F82B000BF1010BBBF1080FF6D3203545
:105A1000844E03E00EB904206BE7761E7D484C38B7
:105A2000006840F22A6108400028DFD0082006F014
:105A3000E5F820B1082006F0ECF8042059E7022030
:105A400006F0DCF820B1022006F0E3F8022050E76F
:105A5000202006F0D3F820B1202006F0DAF8062046
:105A600047E74FF4007006F0C9F828B14FF4007012
:105A700006F0CFF807203CE703E06648006828609E
:105A80002D1D4FF4001006F0B9F80028F5D1FAF7F3
:105A9000FEFB40F2FF5006F0BCF839E060480078A9
:105AA000012835D1002060490870604908706049BC
:105AB000087058484438006840F22A310843554974
:105AC0004439086053485438006840F00800514990
:105AD00054390860002221464846FFF7B6FE00E030
