:020000040800F2
:10000000380A00209D0300088103000883030008CC
:10001000870300088B0300088F030008000000001E
:100020000000000000000000000000009303000832
:1000300095030008000000009703000899030008DA
:10004000B7030008B7030008B7030008B7030008A8
:10005000B7030008B7030008B7030008B703000898
:10006000B7030008B7030008B7030008B703000888
:10007000B7030008B7030008B7030008B703000878
:10008000B7030008B7030008B7030008B703000868
:10009000B7030008B7030008B7030008B703000858
:1000A000B7030008B7030008B7030008B703000848
:1000B000B7030008832A0008B7030008B703000845
:1000C000B7030008B7030008B7030008B703000828
:1000D000B7030008B7030008B7030008B703000818
:1000E000B7030008B7030008B7030008B703000808
:1000F000B7030008B7030008B7030008B7030008F8
:10010000B70300086D27000891290008B70300080D
:10011000B7030008B7030008B7030008B7030008D7
:10012000B7030008B7030008B7030008B7030008C7
:10013000B7030008B7030008B7030008B7030008B7
:10014000B7030008B7030008B7030008B7030008A7
:10015000B7030008B7030008B7030008B703000897
:10016000B7030008B7030008B7030008B703000887
:10017000B7030008B7030008B7030008B703000877
:10018000B7030008B703000800F002F800F03CF8DD
:100190000AA090E8000C82448344AAF10107DA45E2
:1001A00001D100F031F8AFF2090EBAE80F0013F0F8
:1001B000010F18BFFB1A43F001031847145F00003A
:1001C000345F0000103A24BF78C878C1FAD85207CB
:1001D00024BF30C830C144BF04680C6070470000C1
:1001E0000023002400250026103A28BF78C1FBD840
:1001F000520728BF30C148BF0B6070471FB505F0DC
:1002000061FF1FBD10B510BD05F0F6FB1146FFF7ED
:10021000F5FF00F011F805F014FC03B4FFF7F2FF4E
:1002200003BC05F01BFC000030BF72B6704762B61D
:10023000704780F3088870472DED028B86B04FF42D
:10024000A06003F0E5FC05F0DFFA02F0A8FE02F082
:1002500000FE02F0ABFB03F018FB00F0DDF900211B
:100260003C4803F06FF901213B4803F06BF9022190
:100270003A4803F067F9642142F2D00002F053FCDF
:10028000642142F2D00002F0A1FC354890ED000B51
:1002900003F05AFB5DE03348006800283CD0324848
:1002A00002F000FD01903048001D02F0FBFC0290BE
:1002B0002D48083002F0F6FC03902B480C3002F079
:1002C000F1FC04902848103002F0ECFC0590264820
:1002D00002F0F6FC0599884219D12348143002F047
:1002E000FBFCA0B10198C1B2002002F0E4FD02982D
:1002F000C1B2012002F0DFFD0398C1B2022002F07A
:10030000DAFD0498C1B2032002F0D5FD04E000201C
:10031000164908601649086016480068B0F5FA7F6B
:1003200004DD02F077FD00201249086012480068E1
:1003300078B1124890ED008B094890ED000B0F4802
:1003400080ED000B064880ED008B90ED000B03F074
:10035000FBFAA0E780CC0602C00E1602005125026F
:10036000280000201C000020B800002020000020F1
:10037000180000202400002010024242300000201B
:10038000704700BFFEE700BFFEE700BFFEE700BF0B
:10039000FEE7704770477047704700000948804784
:1003A00009480047FEE7FEE7FEE7FEE7FEE7FEE757
:1003B000FEE7FEE7FEE7FEE704480549054A064B6F
:1003C00070470000B90400088901000838040020C3
:1003D000380A002038060020380600200CB500201E
:1003E000019000907648006840F4803074490860BD
:1003F00000BF7348006800F4003000900198401C72
:100400000190009818B90198B0F5A04FF1D16C484F
:10041000006800F4003010B10120009001E00020DD
:1004200000900098012846D165484030006840F0AF
:1004300080506349403108606248006840F44040A1
:10044000604908605E48083000685D49083108600E
:100450000846006840F4004008600846006840F420
:10046000A05008605848091F0860081F006840F045
:100470008070091F086000BF5148006800F00070DC
:100480000028F9D040F20570504908604C48083007
:10049000006820F003004A490831086008460068F7
:1004A00040F00200086000BF45480830006800F0D6
:1004B0000C000828F8D10CBD10B54548006840F480
:1004C0007000434908603E48006840F001003C4924
:1004D000086000203A4908310860394800683D4901
:1004E0000840374908603C48091D0860081F00683B
:1004F00020F48020091F0860002031490C31086079
:10050000FFF76CFF4FF0006031498039086010BD83
:1005100070B500200022022300240221284D083556
:100520002D6805F00C0020B1042806D0082834D12D
:1005300007E02A4D2A4E356033E02A4D284E3560BB
:100540002FE01F4D2D1D2D68C5F380541C4D2D1D12
:100550002D6805F03F0154B1224DB5FBF1F5184E61
:10056000361D3668C6F3881605FB06F209E01B4DFA
:10057000B5FBF1F5124E361D3668C6F3881605FB3D
:1005800006F20F4D2D1D2D68C5F301456D1C6B0046
:10059000B2FBF3F5124E356003E0104D104E35609E
:1005A00000BF00BF064D08352D68C5F303150E4E7C
:1005B000705D0B4D2D68C540094E356070BD000063
:1005C000003802400070004008544007003C0240E0
:1005D00088ED00E0FFFFF6FE103000240024F40058
:1005E0003800002000127A003C0000201CB50121D8
:1005F000202003F0A1FE4FF47070009000208DF8D1
:10060000040003208DF8050001208DF807006946DD
:10061000FE4803F0F3FB1CBD1CB50121202003F0B4
:100620008BFE4FF40060009000208DF80400032042
:100630008DF8050001208DF807006946F34803F0A6
:10064000DDFB1CBD10B5F2480068062877D2DFE854
:1006500000F0A90323555C7E0020EE4908600821C4
:10066000ED4803F02DFC88B14021EC4803F028FC54
:1006700060B12021EA4803F023FC38B14FF4006157
:10068000E84803F01DFC08B1012000E0002010B98B
:100690000220DF49086089E0DE480068052806D1AD
:1006A0000020DC4908600320D949086025E0D948CA
:1006B000006805281EDA0821D74803F001FC88B13C
:1006C0004021D64803F0FCFB60B12021D44803F060
:1006D000F7FB38B14FF40061D24803F0F1FB08B1E9
:1006E000012000E0002028B9CA480068401CC94920
:1006F000086002E00120C649086057E00120CA49AD
:1007000008600420C249086050E00020C149086028
:100710000821C14803F0D4FB90B14021BF4803F049
:10072000CFFB68B12021BE4803F0CAFB40B14FF4B3
:100730000061BC4803F0C4FB10B1012001E031E0CE
:100740000020012802D10520B14908602EE0B148FF
:100750000068052803D10120AD49086021E0082187
:10076000AD4803F0ADFB88B14021AC4803F0A8FBD5
:1007700060B12021AA4803F0A3FB38B14FF4006117
:10078000A84803F09DFB08B1012000E0002018B943
:1007900004209F49086004E09E480068401C9D4971
:1007A000086003E001209A49086000BF00BF10BD47
:1007B0009E480068062851D2DFE800F050030D295A
:1007C000303B00209A4908609A48006810B902201E
:1007D0009649086046E096480068052806D1002042
:1007E000934908600320914908600FE09048006831
:1007F000052808DA8F48006828B98D480068401C31
:100800008B49086002E00120884908602AE0012045
:100810008949086004208549086023E00020844954
:10082000086084480068012802D105207F490860DB
:1008300018E07F480068052803D101207B49086043
:100840000BE07C48006818B904207849086004E08F
:1008500077480068401C7649086003E0012073492E
:10086000086000BF00BF704774480068062855D272
:10087000DFE800F054030E2B323E00207049086080
:100880006C48001F006810B902206C49086049E0FC
:100890006B480068052806D10020694908600320DC
:1008A0006649086010E066480068052809DA614872
:1008B000001F006828B962480068401C6049086051
:1008C00002E001205D4908602CE001205D490860DC
:1008D00004205A49086025E000205949086055481D
:1008E000001F0068012802D105205449086019E062
:1008F00053480068052803D10120504908600CE0E6
:100900004C48001F006818B904204C49086004E0F6
:100910004B480068401C4A49086003E001204749F1
:10092000086000BF00BF704747480068062855D2DE
:10093000DFE800F054030E2B323E002043490860EC
:100940003C480838006810B902203F49086049E077
:100950003E480068052806D100203C490860032075
:100960003949086010E039480068052809DA31483B
:100970000838006828B935480068401C33490860C9
:1009800002E00120304908602CE001203049086075
:1009900004202D49086025E000202C4908602548E6
:1009A00008380068012802D105202749086019E0AD
:1009B00026480068052803D10120234908600CE07F
:1009C0001C480838006818B904201F49086004E072
:1009D0001E480068401C1D49086003E001201A49B8
:1009E000086000BF00BF70471A48006806287DD223
:1009F000DFE800F07C0338545B660020164908608D
:100A00000C480C38006848BB022028E00014024063
:100A1000500000204C000020000C0240000002406A
:100A20000010024000080240540000205C0000203A
:100A3000580000202482424260000020680000200C
:100A4000640000206C000020740000207000002072
:100A500078000020800000207C00002001E0544944
:100A6000086047E053480068052806D10020514936
:100A7000086003204E4908600FE04E4800680528D2
:100A800008DA4D48006828B94A480068401C4949BE
:100A9000086002E00120464908602BE00120474938
:100AA000086004204249086024E0002041490860B1
:100AB00041480068012802D105203D49086019E03D
:100AC0003C480068052804D10120394908600CE041
:100AD0000CE03948006818B904203549086004E082
:100AE00034480068401C3349086003E00120304965
:100AF000086000BF00BF704731480068062851D227
:100B0000DFE800F050030D29303B00202D4908603C
:100B10002D48006810B902202949086046E029489C
:100B20000068052806D100202649086003202449D2
:100B300008600FE023480068052808DA22480068AA
:100B400028B920480068401C1E49086002E00120C6
:100B50001B4908602AE001201C490860042018494C
:100B6000086023E000201749086017480068012842
:100B700002D105201249086018E0124800680528D3
:100B800003D101200E4908600BE00F48006818B936
:100B900004200B49086004E00A480068401C094929
:100BA000086003E001200649086000BF00BF7047ED
:100BB000800000207C000020188242428400002037
:100BC000900000208C00002010024242880000208B
:100BD0000020FE490860091D0860091D0860091D04
:100BE0000860FA4924310860091D0860091D086081
:100BF000F748F649383108600020091D0860704741
:100C000001460020012900D011B9F24B197000E013
:100C1000262070470146ED4A121D106820F0FF00A3
:100C200008431060704770B5044606E0E74834306A
:100C3000056805F0450000B100E0F7E700BF0420BB
:100C400003F06AFF20B1042003F071FF032070BDA0
:100C5000012003F061FF20B1012003F068FF0120B3
:100C6000F5E7DA4810300068A04201D01020EEE726
:100C700040F2FF5003F05BFFD448143000680821B5
:100C80000840C0B2E3E72DE9FC4107460D460026C7
:100C900000240020009001900820CF490860102017
:100CA0004860402088600020C8604FF48060086180
:100CB000084603F09EFE1020FFF7B5FF044614B16E
:100CC0002046BDE8FC81C54800880004C249086090
:100CD00037204860402088600020C8604FF4806062
:100CE0000861084603F085FE3720FFF79CFF0446A5
:100CF0000CB12046E5E74FF0FF30B9490860082005
:100D00004860302088600220C8600020086101200F
:100D10004861084603F099FE0020AF49086033207F
:100D20004860402088600020C8604FF480600861FF
:100D3000084603F05EFE3320FFF775FF04460CB152
:100D40002046BEE70DE04FF4001003F0E5FE40B191
:100D50009E48803000684DF82600761C022E00D395
:100D600007E09A483430006840F22A6108400028C1
:100D7000E9D000BF082003F0CFFE20B1082003F027
:100D8000D6FE04209DE7022003F0C6FE20B102201B
:100D900003F0CDFE022094E7202003F0BDFE20B139
:100DA000202003F0C4FE06208BE74FF4007003F010
:100DB000B3FE28B14FF4007003F0B9FE072080E7BE
:100DC00040F2FF5003F0B3FE00980006009901F4D2
:100DD0007F4140EA0120009901F47F0140EA11209F
:100DE000009940EA1160686001980006019901F4D9
:100DF0007F4140EA0120019901F47F0140EA11207E
:100E0000019940EA1160286020465AE77CB5054602
:100E1000002400200090019000260DB1022600E081
:100E200000266A481430006800F0007008B10E20F7
:100E30007CBD6A49098888B26946FFF724FF0446E9
:100E40000CB12046F4E7019800F4802060B36348B9
:100E500000880004604908603720486040208860AE
:100E60000020C8604FF480600861084603F0C1FDAF
:100E70003720FFF7D8FE04460CB12046D8E7564885
:100E80000660062054494860402088600020C86001
:100E90004FF480600861084603F0ABFD0620FFF7C1
:100EA000C2FE04462046C3E72520C1E770B50446CC
:100EB00000254C480078032802D12725284670BD1C
:100EC0004848007838B147480078012803D04548A1
:100ED0000078022819D1B4F5805F02D12725284671
:100EE000EDE7E0B2FFF792FF054675B93748001D00
:100EF000006820F4C0503549091D086008460068A4
:100F0000204308600846006808602846D7E710B507
:100F100004463148046007202F494860402088601B
:100F20000020C8604FF480600861084603F061FD4E
:100F30000720FFF778FE10BDF0B501460020002223
:100F4000284B1B7881F85630244B1B88A1F854306D
:100F5000254B1B681A0E93090B70C2F383034B7069
:100F600002F003038B70204B1B68C3F30742CA7067
:100F70001D4B1B88C3F307220A711B4B1A784A7159
:100F80005B681A0E1301CB80174B5B68C3F30742F3
:100F9000CB8843EA1213CB8002F00F030B72124B83
:100FA0009B88C3F30722D3094B72C2F380138B7261
:100FB000C2F34013CB72C2F300130B7300234B73C5
:100FC000084B1B78C3B1074B1B780FE0002C014086
:100FD000FF07C0009C000020E800002098000020CF
:100FE000FC0000209400002014010020012B03D0FD
:100FF000FE4B1B78032B4FD193071B0D0B61FC4B52
:101000001A790B6943EA82030B61F94B9B681A0E4C
:101010000B6943EA92130B61C2F3C2030B7502F032
:1010200007034B75F24B9B68C3F3074253098B755B
:10103000C2F38203CB7593075B0F0B76EC4B1B89D6
:10104000C3F307220B7E43EAD2130B760B695B1CBA
:101050000024C1E912340B7E9B1C012606FA03F31F
:10106000DE17D1E91245A4FB037C05FB03C304FB97
:101070000633C1E912730C7A0123A3400B650024E7
:10108000D1E912560B6DA5FB037C06FB03C305FBE0
:101090000433C1E912732CE0D44B1B78022B28D106
:1010A000D34B1A7993069B0A0B61D14B9B681A0E9E
:1010B0000B6943EA02230B61CD4B9B68C3F30742E4
:1010C0000B6913430B61CA4B1B89C3F307220B69DE
:1010D0005B1C4FF40074A3FB043566000027A3FBE0
:1010E000064C05FB06C503FB0753C1E91243731009
:1010F0000B65C2F3801301F8193F93065B0E4B702A
:10110000BB4B1A7A4B7843EAD2134B7002F07F0341
:101110008B70B74BDB681A0ED309CB70C2F3411347
:101120000B71C2F382034B7193071B0F8B71B04B92
:10113000DB68C3F307428B7943EA92138B71C2F3E6
:101140004013CB7100230B7202F001034B72A84BCA
:101150009B89C3F30722D3098B72C2F38013CB722E
:10116000C2F340130B73C2F300134B73C2F381033A
:101170008B7302F00303CB739D4B1A7B53080B74E4
:1011800001234B749B4B1B681A0ECA741939994B77
:101190001B68C3F307421402CC85964B1B88C3F32C
:1011A0000722CB8D1343CB85924B1A7814060C6320
:1011B0005B681A0E0B6B43EA02440C638D4B5B6851
:1011C000C3F307420B6B43EA02240C63894B9B88F1
:1011D000C3F307220B6B13430B63864B1A7934233B
:1011E0005A54844B9B681A0E35235A54814B9B6882
:1011F000C3F3074214068C637E4B1B89C3F307229B
:101200008B6B43EA02448C637A4B1A7A8B6B43EA0A
:1012100002248C63774BDB681A0E8B6B13438B6352
:10122000744BDB68C3F307423C235B5C43EA121454
:101230003C235C5413071C0DCC876E4B9B89C3F376
:101240000722CB8F1343CB876A4B1A7B540840236A
:101250005C54012441235C54F0BD70B500264FF46A
:10126000803505E06448046804F0450000B103E0FF
:10127000281EA5F10105F5D100BF15B104F0040049
:1012800028B10326042003F052FC304670BD012033
:1012900003F042FC18B10126012003F048FC40F2A3
:1012A000FF5003F044FC3046F0E72DE9F0410546DD
:1012B0000E464FF0000805E04F48076807F045006C
:1012C00000B100E0F8E700BF042003F025FC28B1DE
:1012D000042003F02CFC0320BDE8F081012003F082
:1012E0001BFC20B1012003F022FC0120F4E742485E
:1012F00024380068A84201D01020EDE740F2FF50EA
:1013000003F015FC3C482038046804F4604018B928
:10131000200C30804046DFE704F4005008B1132071
:10132000DAE704F4804008B11020D5E704F4004067
:1013300008B10F20D0E74046CEE738B500240120A1
:10134000009003F050FB10B92524204638BD2748F3
:101350000078042825D00020284908600220486031
:10136000C02088600020C8604FF480600861084693
:1013700003F03FFBFFF771FF04460CB12046E5E7A1
:101380001D48203800681B4908601B481C3800684D
:101390004860194818380068886017481438006891
:1013A000C8601248007858B110480078012807D06A
:1013B0000E480078062803D00C480078022821D176
:1013C00000200E490860032048604020886000200B
:1013D000C8604FF480600861084603F00AFB694664
:1013E0000320FFF762FF044664B109E09400002087
:1013F0001401002024010020342C0140E8000020CA
:101400002046A3E7FE480078032816D1BDF8000067
:101410000004FC49086003204860402088600020E8
:10142000C8604FF480600861084603F0E2FAFFF7F5
:1014300014FF04460CB1204688E7F14800780428E0
:101440002AD0BDF80000F0490860BDF80000000493
:10145000EC49086009204860C02088600020C8600E
:101460004FF480600861084603F0C3FAFFF7F5FE09
:1014700004460CB1204669E7E4480068E449086086
:10148000E248001D00684860E04808300068886055
:10149000DE480C300068C860002057E710B506E051
:1014A000DA482030046804F0450000B100E0F7E7B6
:1014B00000BF042003F030FB20B1042003F037FB11
:1014C000032010BD40F2FF5003F031FB0020F8E78D
:1014D00070B500264FF4803506E0CC482030046813
:1014E00004F0450000B103E0281EA5F10105F4D188
:1014F00000BF15B104F0040028B10326042003F056
:1015000016FB304670BD04F0400018B100264020A4
:1015100003F00DFB3046F5E770B500254FF480343D
:1015200004E0802003F0F8FA00B103E0201EA4F1EB
:101530000104F6D100BF0CB9032070BD40F2FF508A
:1015400003F0F5FA2846F8E72DE9F04700270024D4
:1015500000260025A046A1467620AE490875002049
:10156000086048608860C8600861084603F017FAA0
:10157000032003F034FAA5481038006840F4807066
:10158000A2491039086000BF12E000209D490860A0
:1015900048608860C8604FF480600861084603F0C6
:1015A00028FAFFF7B9FF044604B903E0781CC7B274
:1015B0004A2FEADB00BF14B12046BDE8F0874FF4A4
:1015C000D57090490860082048604020886000205D
:1015D000C8604FF480600861084603F00AFAFFF71C
:1015E00077FF044624B90120854908704FF08049EF
:1015F000002084490860372048604020886000202F
:10160000C8604FF480600861084603F0F2F93720A3
:10161000FFF709FB0446002C4BD134E00020794948
:10162000086037204860402088600020C8604FF480
:1016300080600861084603F0DCF93720FFF7F3FA11
:1016400004460CB12046B8E7734849EA00006D49EA
:10165000086029204860402088600020C8604FF45E
:1016600080600861084603F0C4F9FFF717FF0446DD
:101670000CB12046A1E765480668012080EAD670D3
:1016800080F001086D1CB8F1000F03D14FF6FF7018
:101690008542C3D34FF6FF70854202D31B242046F8
:1016A0008BE706F08040061E32D0022054490870B5
:1016B0002EE01CE059485349086001204860402052
:1016C00088600020C8604FF480600861084603F01D
:1016D00090F9FFF7E3FE04460CB120466DE74B4856
:1016E0000668012080EAD67080F001086D1CB8F110
:1016F000000F03D14FF6FF708542DBD34FF6FF702A
:10170000854202D31B24204657E703203C4908703A
:10171000204652E73EB5002400250121404802F052
:101720000BFE0121C80202F061FE0121C80202F095
:10173000B2FE4FF4F850019002208DF808008DF8A9
:10174000090000208DF80A0001208DF80B0001A986
:10175000344802F053FB0420019001A9324802F002
:101760004DFB0C2208212F4802F0D3FB0C2209214B
:101770002C4802F0CEFB0C220A212A4802F0C9FBB9
:101780000C220B21274802F0C4FB0C2211462548ED
:1017900002F0BFFB0C220221234802F0BAFB002119
:1017A0004FF4006002F077FEFFF712FA31208DF857
:1017B000000000208DF801008DF8020001208DF856
:1017C0000300684602F029FAFFF7BEFE044614B98A
:1017D000FFF7B3FD04461CB91448FFF7ADFB044600
:1017E00034B91249B1F854100804FFF790FB0446CD
:1017F00024B94FF40060FFF759FB0446E4B117E049
:1018000094000020E800002098000020142C0140E3
:1018100014010020D0000020000010800080FF8014
:101820000C00400000080240000C0240380100207B
:10183000FE480078032812D1FD4890F8560020B1E8
:10184000FB4890F85600012801D1022500E0002550
:101850002846FFF7DFF90020FFF7D2F904462046BB
:101860003EBD10B5002003F0BAF8002010BD70B5E1
:1018700090B004460E46154600BFEE4802F0D9FF70
:101880000028FAD1EB4802F0ABFE4FF00060019067
:10189000E9480290039404950020059006904FF4C7
:1018A00080600790800008908000099000200A90D6
:1018B0004FF440300B9004200C9003200D904FF417
:1018C00000000E9080100F9001A9DA4802F02AFF64
:1018D0002021D84802F076FF0121D64802F05CFFB3
:1018E00010B070BD0146002002E04910421CD0B289
:1018F0000129FAD170472DE9F84F814617469846DD
:101900000A9C4FF0000AD3464D464FF0FF36B9F11E
:10191000000F02D12620BDE8F88F0020C6495439B7
:101920000860C2480078022805D10402780A40EA1B
:10193000C8574FEA68280020C04988604860401EA8
:101940000860012048610020C8600861084603F073
:101950007CF8B9486C38006800F0007008B10E20BF
:10196000D9E7002C21DDB4F5006F1EDC601E20409D
:10197000D8B92046FFF7B6FF0090B14804601020A8
:10198000AF494860402088600020C8604FF4806004
:101990000861084603F02DF81020FFF744F982464D
:1019A000BAF1000F03D05046B5E72620B3E7009800
:1019B0000001A2498860084644604FF0FF3008608B
:1019C000012048610220C86000200861084603F039
:1019D0003CF89B4807601120994948604020886086
:1019E0000020C8604FF480600861084603F001F8E9
:1019F0001120FFF718F98246BAF1000F01D05046C6
:101A000089E79048007800285AD1FEF70EFC17E0CD
:101A10004FF4004003F080F870B14FF0000B05E088
:101A20008548006845F82B000BF1010BBBF1080F4E
:101A3000F6D32035844E03E00EB904206BE7761E02
:101A40007D484C38006840F22A6108400028DFD009
:101A5000082003F061F820B1082003F068F80420A2
:101A600059E7022003F058F820B1022003F05FF894
:101A7000022050E7202003F04FF820B1202003F08F
:101A800056F8062047E74FF4007003F045F828B1F8
:101A90004FF4007003F04BF807203CE703E0664882
:101AA000006828602D1D4FF4001003F035F8002861
:101AB000F5D1FEF7BCFB40F2FF5003F038F839E0F7
:101AC00060480078012835D10020604908706049DD
:101AD00008706049087058484438006840F22A315C
:101AE000084355494439086053485438006840F069
:101AF0000800514954390860002221464846FFF742
:101B0000B6FE00E0761E4B485838006800F00060D2
:101B100038B95048007820B94C48007808B9002EF0
:101B2000F0D10EB90420F6E64848007810B14748D5
:101B300090F800A05046EEE62DE9FF5F1746984664
:101B4000DDE90E464FF00009CA464FF0FF35424925
:101B500000980860002038495439086033480078FC
:101B6000022805D10402780A40EAC8574FEA6828DB
:101B70000020324988604860401E086001204861AA
:101B80000020C8600861084602F05FFF2A486C38F0
:101B9000006800F0007018B10E2004B0BDE8F09F9E
:101BA000002C21DDB4F5006F1EDC601E2040D8B98A
:101BB0002046FFF797FE8346214804601020204905
:101BC0004860402088600020C8604FF48060086151
:101BD000084602F00EFF1020FFF725F88146B9F104
:101BE000000F03D04846D8E72620D6E7012E6ED94D
:101BF00006FB04F0B0F1007F01D32620CDE74FEAC9
:101C00000B100E49886006FB04F048604FF0FF306F
:101C10000860012048610220C86000200861084671
:101C200002F013FF06480760122017E0940000201E
:101C30003801002058640240802C0140FC00002044
:101C4000E80000209C000020FFFF7F009E00002095
:101C50009D0000209F000020A0000020F94948605E
:101C6000402088600020C8604FF48060086108460A
:101C700002F0BFFE1220FEF7D6FF8146B9F1000F39
:101C800001D0484689E7F048007800287ED1FEF769
:101C9000CCFA1EE04FF4004002F03EFFA0B14FF03E
:101CA000000A07E0E9480068E949096841F82A00A4
:101CB0000AF1010ABAF1080FF4D3E54800682030B0
:101CC000E3490860E34D04E015B9042065E7AEE0A0
:101CD0006D1EDE484C38006840F22A31084000286A
:101CE000D8D0082002F018FF20B1082002F01FFF12
:101CF000042052E7022002F00FFF20B1022002F080
:101D000016FF022049E7202002F006FF20B1202024
:101D100002F00DFF062040E74FF4007002F0FCFED9
:101D200028B14FF4007002F002FF072035E709E008
:101D3000C6480068C64909680860C5480068001DB3
:101D4000C34908604FF4001002F0E6FE0028EFD10E
:101D50004FF4807002F0E0FE20B3BF48007838B145
:101D6000BD480078012803D0BB480078022819D16B
:101D70000020B44908600C204860402088600020A2
:101D8000C8604FF480600861084600E011E002F08E
:101D900030FE0C20FEF747FF8146B9F1000F01D05D
:101DA0004846FAE6FEF743FA40F2FF5002F0BFFE63
:101DB0003DE0A5480078012839D10020A7490870E6
:101DC0000120A74908700020A64908709F484438A0
:101DD000006840F22A3108439C49443908609B4816
:101DE0005438006840F0080098495439086006FBF0
:101DF00004F100220098FFF73AFD00E06D1E9A48BA
:101E0000006800F0006008B9002DF7D10DB904207A
:101E1000C3E600BF9348007818B9904800780028BE
:101E2000F8D08E48007810B18C4890F80090484661
:101E3000B3E61CB504460020019000908B48008852
:101E40000004804908600D20486040208860002020
:101E5000C8604FF480600861084602F0CAFD7B4804
:101E60004C380068009003E078484C3800680090D7
:101E7000009800F045000028F6D0012002F04CFE4A
:101E800020B1012002F053FE01201CBD042002F00D
:101E900043FE20B1042002F04AFE0320F5E76B4820
:101EA000703800680D2801D01020EEE740F2FF5096
:101EB00002F03DFE65486C38006801900198C0F35F
:101EC000432020700020E0E72DE9FF5F86B0174631
:101ED0009846149D00260020059004900024814619
:101EE0000390824602900195DDF818B0DDF818B035
:101EF000BBF1000F03D126200AB0BDE8F09F0020FF
:101F00005249543908605A4988604860401E086048
:101F1000012048610020C8600861084602F095FD74
:101F20004A486C38006800F0007008B10E20E3E702
:101F300049480078022805D10502780A40EAC857C6
:101F40004FEA6828002D1FDDB5F5006F1CDC681E08
:101F50002840C8B92846FFF7C5FC059039480560F8
:101F6000102038494860402088600020C8604FF445
:101F700080600861084602F03CFD1020FEF753FE29
:101F800006461EB13046B7E72620B5E73748008839
:101F900000042C4908600D20486040208860002023
:101FA000C8604FF480600861084602F022FD0D20F1
:101FB000FEF739FE06460EB130469DE723486C38E1
:101FC000006803904FF0FF341CE0641E274800882F
:101FD00000041C4908600D204860402088600020F3
:101FE000C8604FF480600861084602F002FD0D20D1
:101FF000FEF719FE06460EB130467DE713486C38F1
:1020000000680390039800F4807008B9002CDCD1BC
:102010000CB9292070E70B4807601820094948606F
:10202000402088600020C8604FF480600861084646
:1020300002F0DFFC1820FEF7F6FD0646D6B130466A
:102040005AE70000E80000209C000020802C01409E
:10205000A0000020FFFF7F00940000209E000020D1
:102060009D0000209F000020006402409800002096
:10207000FC0000200020F849087005980001F7498D
:102080008860084645604FF0FF30086001204861D5
:102090000020C8600861084602F0D7FC4FF0FF340A
:1020A000EF48007800287CD1FEF7BFF843E04FF4FA
:1020B000804002F031FDC8B30198A0EB0900202850
:1020C00021D20198A0EB090000F0030020B901988B
:1020D000A0EB0900800804E00198A0EB090080084B
:1020E000401C02904FF0000A09E0DE49DBF80000D6
:1020F00008600AF1010A0BF1040B09F104090298C6
:102100008245F2D30FE04FF0000A05E05BF82A00A9
:10211000D44908600AF1010ABAF1080FF6D30BF1AD
:10212000200B09F120096FF0404404E0FFE70CB9EF
:102130000420E1E6641ECB484C38006840F21A6186
:1021400008400028B3D0082002F0E6FC20B10820A7
:1021500002F0EDFC0420CFE6022002F0DDFC20B10D
:10216000022002F0E4FC0220C6E6102002F0D4FCBB
:1021700020B1102002F0DBFC0520BDE64FF400701A
:1021800002F0CAFC30B14FF4007002F0D0FC07201E
:10219000B2E606E0FEF74BF840F2FF5002F0C7FC53
:1021A00043E0AF48007801283FD10020AE490870D5
:1021B000A9490870AD490870AA484438006840F23F
:1021C0001A310843A7494439086040222946069835
:1021D000FFF74DFBA3485438006840F00800A149C0
:1021E0005439086000E0641EA148006800F00060F7
:1021F00008B9002CF7D11CB9FFF78CFA04207BE654
:102200004FF0FF3400E0641E9848007820B99648EB
:10221000007808B9002CF6D10CB904206CE692487D
:10222000007810B19048007866E640F2FF5002F066
:102230007EFC04A8FFF7FDFD064603E004A8FFF7B7
:10224000F8FD06463EB99DF810000728F6D09DF827
:1022500010000628F2D030464EE62DE9FF5F84B02C
:10226000DDE91247002600200390029000258046F9
:102270008146019007FB04FBDDF810A0DDF810A0FB
:10228000BAF1000F03D1262008B0BDE8F09F00206E
:10229000744954390860714988604860401E08607C
:1022A000012048610020C8600861084602F0CDFBAB
:1022B0006C486C38006800F0007008B10E20E3E74D
:1022C0006C480078022808D10402DDE90601400AC2
:1022D00040EAC1504912CDE90601002C1FDDB4F5DA
:1022E000006F1CDC601E2040C8B92046FFF7FAFAD8
:1022F00003906148046010205F4948604020886076
:102300000020C8604FF480600861084602F071FB4D
:102310001020FEF788FC06461EB13046B4E72620A2
:10232000B2E7012F6FD907FB04F0B0F1007F01D3B2
:102330002620A9E74F48007838B14E480078012898
:1023400003D04C48007802282DD14C480088000466
:102350004949086037204860402088600020C860F4
:102360004FF480600861084602F043FB3720FEF717
:102370005AFC06460EB1304686E73F4807601720F4
:102380003D494860402088600020C8604FF480606C
:102390000861084602F02DFB1720FEF744FC0646B4
:1023A0000EB1304670E7344906980860192048603D
:1023B000402088600020C8604FF4806008610846B3
:1023C00002F017FB1920FEF72EFC06460EB1304630
:1023D0005AE7039800012149886007FB04F0486030
:1023E0004FF0FF300860012048610020C86008619C
:1023F000084602F02AFB1A480078002872D1451ED0
:10240000FDF713FF54E0F8E04FF4804002F084FB46
:10241000B0B3ABEB0800202833D2ABEB080000F0E0
:10242000030018B9ABEB0800800803E0ABEB080031
:102430008008401C01904FF0000909E00949DAF8D2
:102440000000086009F101090AF1040A08F1040812
:1024500001988145F2D324E09D000020FC0000207B
:102460009C000020802C01409E0000209F00002046
:102470000064024094000020E80000209800002042
:1024800012E04FF0000905E05AF82900F849086009
:1024900009F10109B9F1080FF6D30AF1200A08F190
:1024A00020086FF0404503E00DB90420ECE66D1EF6
:1024B000EF484C38006840F21A3108400028A3D099
:1024C000082002F029FB20B1082002F030FB042094
:1024D000DAE6022002F020FB28B1022002F027FBFE
:1024E0000220D1E640E0102002F016FB20B11020BF
:1024F00002F01DFB0520C7E64FF4007002F00CFB54
:1025000028B14FF4007002F012FB0720BCE64FF434
:10251000807002F001FB00B3D648007838B1D5488E
:102520000078012803D0D3480078022815D1002074
:10253000D14908600C204860402088600020C860B5
:102540004FF480600861084602F053FA0C20FEF751
:102550006AFB06460EB1304696E6FDF768FE40F28D
:10256000FF5002F0E4FA48E0C4480078012844D162
:102570000020C34908700120C24908700020C249E8
:102580000870BB484438006840F21A310843B84923
:102590004439086007FB04F140220498FFF767F90B
:1025A000B3485438006840F00800B1495439086015
:1025B0004FF0FF3500E06D1EB448006800F0006089
:1025C00008B9002DF7D11DB9FFF7A4F804205BE688
:1025D0004FF0FF3500E06D1EAB48007820B9A848E9
:1025E000007808B9002DF6D10DB904204CE6A448B6
:1025F000007810B1A248007846E640F2FF5002F0A1
:1026000096FA02A8FFF715FC064603E002A8FFF7BA
:1026100010FC06463EB99DF808000728F6D09DF844
:1026200008000628F2D030462EE610B54FF4807030
:1026300002F072FA88B393480078012814D1002080
:102640008D4908600C204860402088600020C860E8
:102650004FF480600861084602F0CBF90C20FEF7C9
:10266000E2FA8749087002E0002085490870804836
:102670004838006840F480707D4948390860081D7A
:1026800000684CF23A3188437949443908600120A6
:102690007D4908707A48007810BDFFE7022002F0FB
:1026A0003BFA78B1022002F042FA714844380068DF
:1026B0004CF23A3188436E4944390860022070492F
:1026C0000870E9E7082002F027FA78B1082002F044
:1026D0002EFA6748443800684CF23A31884364491E
:1026E00044390860042066490870D5E7202002F0CC
:1026F00013FA78B1202002F01AFA5D4844380068D5
:102700004CF23A3188435A494439086006205C4902
:102710000870C1E7102002F0FFF978B1102002F034
:1027200006FA5348443800684CF23A31884350491D
:1027300044390860052052490870ADE74FF4007035
:1027400002F0EAF980B14FF4007002F0F0F9484865
:10275000443800684CF23A318843454944390860AE
:1027600007204749087097E7002095E710B5FFF765
:102770005CFF10BD70B50446002514B92625284617
:1027800070BD4348008800043B4908600D20486044
:10279000402088600020C8604FF4806008610846CF
:1027A00002F027F90D20FEF73EFA05460DB1284646
:1027B000E6E72F486C38006820602846E0E708B557
:1027C000002000906846FFF7D5FF08B1FF2008BD44
:1027D0000098C0F34320FAE72DE9FE4F83460E46EA
:1027E000914600200290002534462248007818B116
:1027F000680240EAD45564020BF00300F0B14FF0D8
:10280000000A18E04FF4007000904FEA4A200719C0
:1028100045EBE0733A461F48FFF76DF802904FF41E
:1028200000721C49584603F06DF80BF5007B0AF165
:10283000010000F0FF0ACA45E4DB16E0B9F1010F20
:1028400009D14FF4007022462B4600905846FFF7FE
:1028500052F8029009E04FF4007022462B46CDE971
:1028600000095846FFF768F902900298BDE8FE8F0C
:10287000802C014094000020E80000209C000020F3
:102880009E0000209D0000209F0000200064024068
:1028900098000020900100202DE9FE4F0646894651
:1028A00092460020029000254C462148007818B13D
:1028B000680240EAD455640206F00300F0B14FF01C
:1028C000000B18E04FF4007231461A4803F01AF872
:1028D0004FF4007000904FEA4B20071945EBE0736E
:1028E0003A461448FFF7F0FA029006F500760BF12D
:1028F000010000F0FF0BD345E4DB16E0BAF1010F55
:1029000009D14FF4007022462B4600903046FFF765
:10291000DBFA029009E04FF4007022462B46CDE925
:10292000000A3046FFF799FC02900298BDE8FE8F3E
:1029300094000020900100207FB505460C4601213F
:10294000082001F042FD0295ADF804400020ADF8EA
:102950000600ADF80C0001A9C74802F0B0F9012249
:102960001146C54802F04CFE0121C34802F030FA7E
:1029700032208DF8000000208DF8010003208DF832
:10298000020001208DF80300684601F046F97FBD82
:1029900010B50121B84802F04AFE012801D1FEF726
:1029A000ABF80121B44802F053FE10BD00B589B068
:1029B0000121022001F009FD0121022001F0BCFCEF
:1029C0001020079002208DF8200003208DF82100B0
:1029D00000208DF822008DF8230007A9A74801F0F8
:1029E0000DFA02220421A54801F093FA42F2CF0029
:1029F000ADF810000020ADF81200C72005900020AF
:102A0000ADF8180004A99E4802F059F90020ADF86D
:102A10000000ADF802000120ADF804000020ADF880
:102A200006000520ADF808006946954802F05EFDF5
:102A30005021934802F02FFE0421914802F0A1FE9C
:102A400080218F4802F0A6FE02218D4802F000FE90
:102A50001D208DF80C0000208DF80D0001208DF850
:102A60000E008DF80F0003A801F0D7F80122042111
:102A7000834802F0C5FD0121814802F0A9F909B09F
:102A800000BD10B504217E4802F0E2FD7C4802F052
:102A90006EFD7C49086008460068002842D07A48EC
:102AA000006808BB79480068082808D101207649E9
:102AB00008600020764908607449086014E0714895
:102AC0000068322808DD71480068401C6F490860C2
:102AD00000207049086007E000206C4908606D48DC
:102AE0000068401C6B49086068480068182812DAC2
:102AF0006548006878B163480068322801DD01212B
:102B000000E00021614802680068401C5F4B1860CB
:102B10006148815406E05D480068182802D1012010
:102B20005B49086010BD30B58BB005460C460121ED
:102B3000042001F04AFC0121022001F0FDFB4020AD
:102B4000019002208DF808008DF8090000208DF812
:102B50000A008DF80B0001A9484801F04FF9022244
:102B60000621464801F0D5F9681E80B2ADF8200074
:102B70000020ADF82200601E09900020ADF828006A
:102B80008DF82A000121454802F004F908A94348BC
:102B900002F095F86020ADF80C000120ADF80E00B1
:102BA000204604EBD071491005910020ADF81800C3
:102BB00003A93A4802F018F90821384802F0A1FAAE
:102BC0000121364802F004F90BB030BD30B58BB0AE
:102BD00005460C460121084601F0F7FB0121084695
:102BE00001F0AAFB0820019002208DF808008DF862
:102BF000090000208DF80A008DF80B0001A9284873
:102C000001F0FCF801220321254801F082F9681E39
:102C100080B2ADF820000020ADF82200601E0990BF
:102C20000020ADF828008DF82A000121880702F065
:102C3000B1F808A94FF0804002F041F86020ADF8EB
:102C40000C000120ADF80E00204604EBD0714910B5
:102C500005910020ADF8180003A94FF0804002F064
:102C6000AFF90821C80602F06BFA0121880702F0CB
:102C7000AFF80BB030BD0000000C00400004024073
:102C80000004004014000020200000201800002054
:102C90001C00002024000020B80000200008004094
:102CA0000000024001460878C0004A78042313FB64
:102CB00002008A78022313FB0200CA78104470478E
:102CC00002460021002000BF03E0535C03B1401C1A
:102CD000491C1029F9DB70470146087838B148785B
:102CE00028B1887818B1C87808B901207047002049
:102CF000FCE7000010B54FF480618B4801F0FCF850
:102D0000022002F096FD4FF40061874801F0F4F8CC
:102D1000022002F08EFD4FF48061834801F0EAF852
:102D2000022002F086FD4FF400617F4801F0E2F8D6
:102D300010BD10B54FF480617B4801F0DDF805202F
:102D400002F077FD4FF48061774801F0D3F802205C
:102D500002F06FFD4FF48061734801F0CDF810BDB3
:102D600070B5044600251FE04FF480616E4801F005
:102D7000C3F804F0010028B14FF400616A4801F083
:102D8000B9F804E04FF40061674801F0B5F803209A
:102D900002F04FFD64104FF48061634801F0AAF81F
:102DA000032002F046FD6D1C082DDDDB70BD10B563
:102DB0004FF480615C4801F09DF84FF400615A487F
:102DC00001F098F8022002F034FD4FF400615648FB
:102DD00001F092F810BD70B504460D46FFF7E7FF0D
:102DE00004F14001C8B2FFF7BBFFFFF7A2FFFFF7F6
:102DF00081FFFFF7DCFF04F1C001C8B2FFF7B0FFAD
:102E0000FFF797FF2846FFF7ABFFFFF792FFFFF7AB
:102E100071FF70BD10B5002405E000212046FFF7CA
:102E2000DAFF601CC4B2042CF7DB10BD70B5044699
:102E30000D46FFF7BCFF0CB1082100E000218031F6
:102E40002944C8B2FFF78CFFFFF773FFFFF752FF6B
:102E500070BD1CB50121022001F06EFA4FF48060B4
:102E6000009001208DF8040000208DF8060002205B
:102E70008DF8050000208DF8070069462A4800F00B
:102E8000BDFF4FF40060009001208DF80400002089
:102E90008DF8060002208DF8050000208DF807004F
:102EA0006946214800F0AAFF02210120FFF7BEFF7A
:102EB000FFF7B0FF1CBD70B505460C461B48015D11
:102EC0002846FFF788FF70BD70B504464FF47A704E
:102ED00094FBF0F0C5B229460020FFF7ECFF642018
:102EE00094FBF0F00A2190FBF1F201FB1200C5B255
:102EF00029460120FFF7DFFF642094FBF0F100FB7F
:102F000011400A2190FBF1F0C5B229460220FFF7DB
:102F1000D2FF0A2094FBF0F100FB1140C5B2294614
:102F20000320FFF7C8FF70BD00040240000000202E
:102F300010B5F748006840F00200F54908600846FF
:102F4000006820F001000860012002F072FCF048E7
:102F5000001F006800F0010008B1002010BDEC481F
:102F6000006840F00100EA490860012002F061FCBD
:102F7000E748001F006808B9012000E0002000F0C9
:102F8000010008B10020E9E7E148006840F00100D5
:102F9000DF490860012002F04CFC0120DEE71CB58F
:102FA0000121202001F022FA01208DF804008DF883
:102FB00006000320009001208DF8070002208DF804
:102FC00005006946D34800F019FFFFF7B1FF1CBDAB
:102FD00010B5CF48006840F00200CD4908600846AF
:102FE000006840F001000860012002F022FCC8489F
:102FF000001F006808B9012000E0002000F0010077
:1030000008B1002010BDC248006820F00100C0498E
:103010000860012002F00DFCBD48006820F00100AE
:10302000BB490860012002F004FC0120EAE710B56A
:10303000B748006820F00200B5490860012002F09E
:10304000F8FBB348006820F00100B1490860084669
:10305000006840F002000860012002F0EAFBAC4882
:10306000006820F00200AA4908600846006840F0A5
:1030700001000860012002F0DCFB10BD10B5A4487F
:10308000006820F00200A2490860012002F0D1FB94
:103090009F48006840F001009D49086008460068AC
:1030A00040F002000860012002F0C3FB984800686D
:1030B00020F0020096490860012002F0BAFB10BD22
:1030C00010B59348006820F0020091490860012083
:1030D00002F0AFFB8E48006840F001008C490860A8
:1030E0000846006840F002000860012002F0A1FBE1
:1030F0008748001F006800F0010050B18448006854
:1031000020F0020082490860012002F092FB0020BA
:1031100010BD7F48006820F002007D490860012052
:1031200002F087FB0120F3E770B50446002524E098
:103130007748006820F0020075490860012002F01D
:1031400078FB04F0800030B17148006840F0010065
:103150006F49086005E06E48006820F001006C4986
:1031600008606006040E6A48006840F00200684982
:103170000860012002F05DFB6D1C082DD8DB70BDDE
:1031800070B5002400251CE06006040E604800684D
:1031900020F002005E490860012002F04AFB5C4812
:1031A000006840F002005A490860012002F041FB2B
:1031B0005748001F006800F0010008B144F0010406
:1031C0006D1C082DE0DB204670BD70B506460C4630
:1031D0001546FFF7FDFE08B9002070BD3046FFF729
:1031E000A3FFFFF76DFF18B9FFF7A2FE0020F4E779
:1031F0002046FFF799FFFFF763FF18B9FFF798FE26
:103200000020EAE72846FFF78FFFFFF759FF18B9BC
:10321000FFF78EFE0020E0E7FFF78AFE08B90020E6
:10322000DBE70120D9E770B504460D46FFF7D0FE75
:1032300008B9002070BD2046FFF776FFFFF740FF7A
:1032400018B9FFF775FE0020F4E72846FFF76CFF7A
:10325000FFF736FF18B9FFF76BFE0020EAE7FFF72C
:10326000B7FE08B90020E5E7611CC8B2FFF75CFFB4
:10327000FFF726FF18B9FFF75BFE0020DAE7FFF73C
:103280007FFF0646FFF7FAFEFFF752FE08B900205F
:10329000D0E73046CEE72DE9F04180460E4617468E
:1032A0001D46FFF795FE10B90020BDE8F0814046AD
:1032B000FFF73AFFFFF704FF18B9FFF739FE0020C8
:1032C000F3E73046FFF730FFFFF7FAFE18B9FFF7D4
:1032D0002FFE0020E9E700240DE0385DFFF724FF12
:1032E000681EA04206DDFFF7EBFE18B9FFF720FECF
:1032F0000020DAE7641CAC42EFDBFFF719FE012087
:10330000D3E710B50446FFF763FE28B9002010BDCF
:1033100014040240001402402046FFF705FFFFF7A7
:10332000CFFE18B9FFF704FE0020F0E7FFF700FE1C
:1033300008B90020EBE70120E9E770B505460C4627
:10334000FFF746FE08B9002070BDC020FFF7ECFE75
:10335000FFF7B6FE18B9FFF7EBFD0020F4E72846AB
:10336000FFF7E2FEFFF7ACFE18B9FFF7E1FD002022
:10337000EAE72046FFF7D8FEFFF7A2FE18B9FFF7ED
:10338000D7FD0020E0E7FFF7D3FD08B90020DBE719
:103390000120D9E770B50446FFF71AFE08B90020EE
:1033A00070BDC020FFF7C0FEFFF78AFE18B9FFF717
:1033B000BFFD0020F4E72046FFF7B6FEFFF780FED2
:1033C00018B9FFF7B5FD0020EAE7FFF701FE08B9DD
:1033D0000020E5E7C120FFF7A7FEFFF771FE18B94F
:1033E000FFF7A6FD0020DBE7FFF7CAFE0546FFF763
:1033F00045FEFFF79DFD08B90020D1E72846CFE73D
:103400002DE9F04704468A4616461D4600EE106A2E
:10341000F8EE400A00EE105AB8EE401A80EE810A2B
:10342000DFED7E0A20EE200ABCEEC00A10EE107A14
:10343000802000FB0A70A0F5007700EE106AF8EE1D
:10344000400A00EE105AB8EE400A80EE801A9FED56
:10345000730A21EE000ABCEEC00A10EE108AF001D9
:1034600005FB1808A946E0B2C9F30721FFF765FF7D
:1034700009F0FF01621CD0B2FFF75FFFA11CC8B2C8
:10348000C7F30141FFF759FFE11CC8B2C7F3072199
:10349000FFF753FFF9B2221DD0B2FFF74EFF09F438
:1034A0007022C8F3034343EA1231621DD0B2FFF722
:1034B00044FFA11DC8B2C8F30721FFF73EFF08F083
:1034C000FF01E21DD0B2FFF738FFBDE8F0872DE91C
:1034D000F0470446884691464FEAC810A0F50077A9
:1034E00000250126E0B2310AFFF727FF3146621CB2
:1034F000D0B2FFF722FFC7F3014242EA0901A21C42
:10350000D0B2FFF71AFFE11CC8B2C7F30721FFF7DB
:1035100014FFF9B2221DD0B2FFF70FFF00222B0CCF
:1035200043EA1231621DD0B2FFF707FFA11DC8B2F6
:10353000290AFFF702FF2946E21DD0B2FFF7FDFE80
:10354000BDE8F0872DE9F04F2DED028B81B00746E5
:103550000C46334D3348B0FBF7F606F0010000B1DE
:10356000761E06FB07F8B8FBF5F000F0FF0BB8FB82
:10357000F5F005FB108900EE109AB8EE400AB0EEA7
:10358000408A9FED290A28EE000AB0EE408A00EE3C
:10359000105AB8EE400AC8EE000AB0EE608ABCEEDF
:1035A000C80A10EE10AA21480090524659461A2027
:1035B000009BFFF725FF6CB9002231462A20FFF758
:1035C00086FFA021B120FFF7B8FE4F211020FFF7A2
:1035D000B4FE1EE0012C0DD1002231463220FFF74F
:1035E00076FFA021B120FFF7A8FE4F211120FFF7A1
:1035F000A4FE0EE0022C0CD1002231463A20FFF747
:1036000066FFA021B120FFF798FE4F211220FFF79F
:1036100094FE01B0BDEC028BBDE8F08F00000043CA
:1036200040787D0100E9A435F0FF7F49FFFF0F00DE
:103630001CB50121082000F07FFE0121202000F0B0
:103640007BFE0121102000F077FE0121102000F008
:1036500073FE0121102000F06FFE01208DF80400A0
:1036600000208DF8060003208DF8050001208DF85C
:103670000700400300906946FD4800F0BFFB4FF48F
:10368000006000906946FB4800F0B8FB4FF48040B2
:1036900000906946F74800F0B1FB4FF4805000906D
:1036A0006946F44800F0AAFB1CBD1CB5012120208E
:1036B00000F09CFE0220009000208DF80400032002
:1036C0008DF8050000208DF807006946EA4800F0F3
:1036D00095FB1CBD00E0401E0028FCDC70472DE976
:1036E000F04105460E4600270024A0460120E3498C
:1036F000086002F09EF80020E149C1F8B402DF49F9
:1037000008390860012002F094F82C4629E03019AD
:1037100010F8017C4FF000081EE007F080008028C0
:1037200004D10120D5490C39086003E00020D349B9
:103730000C390860012002F07CF80120D1490860B2
:1037400002F077F87806070E0020CD49C1F8B402E0
:1037500008F1010000F0FF08B8F1080FDDDB601E82
:10376000C4B2002CD3DC0020C4490C39086001200D
:1037700002F05FF80120C449C1F8B00202F059F824
:103780000020BE4908390860BDE8F0812DE9F04706
:1037900006460F460024A046A1460025FFF785FFF8
:1037A0000120B649086002F044F80020B449C1F88D
:1037B000B402B24908390860012002F03AF83446F0
:1037C00026E04FF000081BE06806050E012002F01D
:1037D00030F8AE48006800F0FF090120A849C1F8A0
:1037E000B40209F0010008B145F00105012002F022
:1037F00020F80020A349086008F1010000F0FF084C
:10380000B8F1080FE0DB381900F8015C601EC4B2A3
:10381000002CD6DC012002F00CF801209749083971
:10382000086002F006F800209749C1F8B002BDE830
:10383000F0874FF0FA609649086048F2110048603E
:10384000944888609448C8609448086194484861E6
:10385000082008624FF47A604862022088620020E3
:10386000C8620A2008639FED8F0B084680ED0E0B9F
:103870009FED8E0B80ED060B70470870020A4A70B0
:10388000020C8A70020ECA70704708B500200090C2
:10389000FFF7CFFFFFF7CCFE7D4948696946FFF788
:1038A000ECFF69460420FFF71AFF79490869694669
:1038B000FFF7E3FF69460420FFF711FF7449C8686A
:1038C0006946FFF7DAFF69460420FFF708FF7049F1
:1038D00088686946FFF7D1FF69460420FFF7FFFEBD
:1038E0006B4948686946FFF7C8FF69460420FFF73F
:1038F000F6FE674908686946FFF7BFFF694604207E
:10390000FFF7EDFE08BD38B5044600200090200EFC
:103910008DF80300200C8DF80200200A8DF80100BC
:10392000E0B28DF8000069460420FFF7D8FE38BDEC
:1039300010B56048FFF7E7FF40F2B340FFF7E3FF41
:103940005748FFF7E0FF10BD2DE9F05F2DED088B24
:10395000B0EE408AF0EE608A012600279FED560BFC
:1039600053EC102B51EC180B02F03CFA05D29FEDF2
:10397000520BB0EE408AF0EE608A9FED510B53EC93
:10398000102B51EC180B02F067FB05D29FED4C0B8E
:10399000B0EE408AF0EE608A4FF47A759FED4A0BE4
:1039A00053EC102B51EC180B02F058FA41EC1B0BA6
:1039B00002F0C0F9834602F001FA41EC1A0B9FEDC8
:1039C000420B53EC102B02F05DF841EC180B9FED0D
:1039D0003E0B53EC102B51EC180B02F03FFA41EC6C
:1039E0001A0B9FED390B53EC102B02F037FA284AD3
:1039F000C2E90E0151EC180B02F09CF91FFA80F895
:103A00004FF0000A24E008FB06F002F0C0F941EC98
:103A10001A0B9FED2F0B53EC102B02F01DFB0DD852
:103A200008FB06F002F0B3F941EC1A0B9FED2A0BEC
:103A300053EC102B02F0D6F900D80CE0781C87B2BA
:103A40004FF6FF7000EA46060AF101001FFA80FAFD
:103A5000BAF10A0FD7DB00BF304602F0AFF941ECF4
:103A60001B0B53EC182B02F0F9F941EC1A0B37E061
:103A7000000C02400010024000140240B802424212
:103A800000804142B48241420000424204824242EC
:103A900090030020428E0C19B3040400B4A0B000BF
:103AA000050058000000000065CDBD410000000089
:103AB00080842E41420E0100000000000080414041
:103AC000000000000030B1400000000000408F40C6
:103AD000CDCCCCCCCC2FA1409A9999991930B1403A
:103AE0009FED460B53EC102B01F0CCFF41EC190B72
:103AF00051EC190B02F01EF91FFA80F91FED0E0BA5
:103B000053EC102B51EC190B02F0A8F941EC1A0BF5
:103B100002F010F94FF47A71B0FBF1F201FB1204DC
:103B200007E0052094FBF0F084B2052095FBF0F04F
:103B300085B2052094FBF0F100FB114030B905205F
:103B400095FBF0F100FB11500028EAD009E0204677
:103B500004EBD071C1F34F04284605EBD071C1F3DB
:103B60004F05214604EBD1725210A4EB42023AB940
:103B7000284605EBD0725210A5EB4202002AE6D08F
:103B8000072097FBF0F100FB117087B21D48C0F8C9
:103B90002490C4620120B8401A4908620846856230
:103BA0004FEAC93000EBC400086048F2010000EBA6
:103BB000C5004860144800EB07500861086A02F02D
:103BC000FDF841EC1A0B53EC182B02F047F90D4AA3
:103BD000C2E910010D48FFF796FE0A494868FFF751
:103BE00092FE08490868FFF78EFE06490869FFF74C
:103BF0008AFEBDEC088BBDE8F09F000000000000CD
:103C00000000F03F900300203C808C001C80EC0002
:103C100032490143324A1160704770B500210023D8
:103C20000F22C4781CB32E4C246804F4E064C4F55D
:103C3000E064C4F30721C1F10404E3B20A4144780B
:103C40009C40E1B28478144021430C07210E254C9E
:103C500005786155047804F01F050124AC4005780F
:103C60006D11AD0005F1E025C5F8004109E00478CB
:103C700004F01F050124AC401B4D0678761145F871
:103C8000264070BD194A0A400243154B1B1F1A609B
:103C9000704739B1124A121D12680243104B1B1DA6
:103CA0001A6006E00E4A121D126882430C4B1B1D5F
:103CB0001A607047042808D14FF0E021096941F0EB
:103CC00004014FF0E022116107E04FF0E0210969A3
:103CD00021F004014FF0E022116170470000FA0565
:103CE0000CED00E000E400E080E100E080FFFF1F59
:103CF00010B504469848844208D10121084600F0D6
:103D000086FB0021012000F082FB76E0934884428C
:103D100008D10121022000F07AFB0021022000F0EE
:103D200076FB6AE08E48844208D10121042000F02D
:103D30006EFB0021042000F06AFB5EE089488442AB
:103D400008D10121082000F062FB0021082000F0CA
:103D50005EFB52E08448844208D10121102000F02B
:103D600056FB0021102000F052FB46E07F488442C1
:103D700008D10121202000F04AFB0021202000F082
:103D800046FB3AE07A48844208D10121402000F005
:103D90003EFB0021402000F03AFB2EE075488442B3
:103DA00008D10121802000F032FB0021802000F0AA
:103DB0002EFB22E07048844208D10121801500F0DA
:103DC00026FB0021A01500F022FB16E06B48844280
:103DD00008D10121401500F01AFB0021601500F008
:103DE00016FB0AE06648844207D10121001500F065
:103DF0000EFB0021201500F00AFB10BDF0B50A46AD
:103E000000210023002400BF3DE0012505FA01F355
:103E1000156805EA03049C4234D105684F00032667
:103E2000BE40B543056015794E00B5400668354380
:103E300005601579012D02D01579022D16D18568FE
:103E40004F000326BE40B543856055794E00B5400E
:103E5000866835438560456801268E40B5434560D8
:103E6000456896798E40B6B235434560C5684F00C7
:103E70000326BE40B543C560D5794E00B540C6683F
:103E80003543C560491C1029BFD3F0BD4FF6FF7103
:103E900001600021017141718171C171704708B5E4
:103EA0004FF480320092009A0A430092009AC26155
:103EB000C161009AC261C2690092C269009208BDE4
:103EC0000246002013690B400BB1012000E00020E6
:103ED00070470146086980B2704702460020536966
:103EE0000B400BB1012000E00020704701464869FB
:103EF00080B2704701837047418370470AB10183E4
:103F000000E0418370474161704742694A40426125
:103F10007047F0B5002300244D07ED0E02FA05F3BB
:103F2000CE1000F1200555F826504E07F70E0F264B
:103F3000BE40B543CF1000F1200646F82750CE1002
:103F400000F1200555F8265045EA0304CE1000F193
:103F5000200545F82640F0BD000002400004024064
:103F600000080240000C0240001002400014024011
:103F700000180240001C02400020024000240240C1
:103F800000280240F948006840F00100F749086045
:103F90000020F64908310860F4480068F4490840F8
:103FA000F2490860F348091D0860F348EF4984317D
:103FB0000860F0481038091D0860EC48006820F4DB
:103FC0008020EA4908600020E8490C310860E74990
:103FD0008C31086070470021E44A921C1170114630
:103FE0000870704710B501460022002300204A11D6
:103FF000012A02D1DD4C236808E0022A03D1DB4C00
:104000007034236802E0D94C7434236801F01F0235
:10401000012494401C400CB1012000E0002010BDA0
:1040200038B5002000900024002500BF3120FFF7A4
:10403000D9FF05460098401C00900098B0F5A04FAD
:1040400001D0002DF2D03120FFF7CCFF08B10124C0
:1040500000E00024204638BD01460020C34A106815
:1040600020F0F80040EAC10010607047C3490860C2
:1040700070470021BD4A703211701170012802D0C2
:1040800004280AD104E00121B84A7032117005E019
:104090000521B64A7032117000E000BF00BF7047C2
:1040A000B7490860704770B5049C41EA8215012643
:1040B000C6EB530645EA0645054345EA0465AB4EA3
:1040C000361D356070BDAD4908667047820142EA11
:1040D0000172A64B84331A607047A84988667047FE
:1040E00010B5830143EA016343EA02739F4C8834AD
:1040F000236010BDA14908677047A049C864704794
:1041000002460020994B0833186820F0EC6042EA20
:1041100001031843954B083318607047024600208E
:10412000924B0833186820F0784042EA01031843A4
:104130008E4B083318607047014600208B4A0832C6
:10414000106820F00300084310607047874808306B
:10415000006800F00C00704701460020834A0832D6
:10416000106820F0F00008431060704701460020FE
:104170007E4A0832106820F4E0500843106070470F
:1041800001460020794A0832106820F4604040EA75
:10419000C10010607047F0B5002100220024022504
:1041A00000260223714F08373F6807F00C0121B148
:1041B000042905D0082937D105E0724F076036E0A1
:1041C000714F076033E0694F3F1D3F68C7F380566A
:1041D000664F3F1D3F6807F03F036EB16A4FB7FB64
:1041E000F3F7DFF888C10CF1040CDCF800C0CCF365
:1041F000881C07FB0CF40CE0624FB7FBF3F7DFF809
:104200006CC10CF1040CDCF800C0CCF3881C07FB7B
:104210000CF4564F3F1D3F68C7F301477F1C7D00DC
:10422000B4FBF5F7076002E0564F076000BF00BF20
:104230004E4F08373F6807F0F0010909534F7A5C89
:104240000768D7404760494F08373F6807F4E05197
:10425000890A4E4F7A5C4768D7408760434F0837DA
:104260003F6807F46041490B484F7A5C4768D74084
:10427000C760F0BD002100F44072B2F5407F0AD162
:104280003A4A0832116821F4F811414A02401143B8
:10429000364A08321160354A70321268C0F30B0397
:1042A0001A43324B70331A607047354944390860FD
:1042B0007047334940390860704736490860704795
:1042C00001460020294A8C32106820F01F004A1E47
:1042D0001043264A8C321060704701460020234A62
:1042E0008C32106820F4F8504A1E40EA02201F4A1F
:1042F0008C3210607047014600201C4A8C321068D6
:1043000020F4401008431060704701460020174A0F
:104310008C32106820F4400008431060704701465A
:104320000020124A8C32106820F44030084310609C
:10433000704719490860704739B10C4A3032126829
:1043400002430A4B30331A6006E0084A30321268E2
:104350008243064B30331A607047F9B1034A343256
:1043600012680243014B34331A601CE000380240EB
:10437000FFFFF6EA10300024003000200000474222
:10438000800E47420024F40000127A00A4000020AE
:10439000FFFCFF0F5C014742E01147428F4A126861
:1043A00082438E4B1A60704739B18C4A121D1268D5
:1043B00002438A4B1B1D1A6006E0884A121D1268D0
:1043C0008243864B1B1D1A60704739B1834A0C32F9
:1043D00012680243814B0C331A6006E07F4A0C32AC
:1043E000126882437D4B0C331A60704739B17B4AA7
:1043F000103212680243794B10331A6006E0774A94
:10440000103212688243754B10331A60704739B10D
:10441000724A243A12680243704B243B1A6006E049
:104420006E4A243A126882436C4B243B1A607047F0
:1044300039B16A4A203A12680243684B203B1A603D
:1044400006E0664A203A12688243644B203B1A60B9
:10445000704739B1614A1C3A126802435F4B1C3BFA
:104460001A6006E05D4A1C3A126882435B4B1C3BB3
:104470001A60704739B1594A143A12680243574BCF
:10448000143B1A6006E0554A143A12688243534BB3
:10449000143B1A60704739B1504A103A126802430F
:1044A0004E4B103B1A6006E04C4A103A12688243A9
:1044B0004A4B103B1A60704739B1484A1C321268A7
:1044C0000243464B1C331A6006E0444A1C32126811
:1044D0008243424B1C331A60704739B13F4A203245
:1044E000126802433D4B20331A6006E03B4A2032FB
:1044F00012688243394B20331A60704739B1374A0A
:10450000243212680243354B24331A6006E0334AE2
:10451000243212688243314B24331A60704739B118
:104520002E4A2C32126802432C4B2C331A6006E0C0
:104530002A4A2C3212688243284B2C331A60704767
:1045400039B1264A303212680243244B30331A60A4
:1045500006E0224A303212688243204B30331A6020
:104560007047012808D11D493C31096841F0080114
:104570001A4A3C32116007E018493C31096821F0C1
:104580000801164A3C321160704739B1134A273A84
:1045900012780243114B273B1A7006E00F4A273A64
:1045A000127882430D4B273B1A7070470B484030FE
:1045B000006840F08070094940310860704701464A
:1045C0000020064A283A12680A400AB1012000E099
:1045D000002070470149263908707047343802407E
:1045E000016821F0010101600021016041608160EA
:1045F000C160016121214161DB49884204D13D2133
:10460000D94A103A91608CE0D7491831884205D1D7
:104610004FF47461D44A103A916082E0D24930314B
:10462000884205D14FF47411CF4A103A916078E076
:10463000CD494831884205D14FF07461CA4A103AD9
:1046400091606EE0C8496031884204D1C749C64ACA
:10465000103AD16065E0C4497831884204D1C44938
:10466000C14A103AD1605CE0BF499031884204D120
:10467000C049BD4A103AD16053E0BB49A8318842D5
:1046800005D14FF03D51B84A103AD16049E0BA49DE
:10469000884204D13D21B84A083A116041E0B64948
:1046A0001831884205D14FF47461B34A083A116059
:1046B00037E0B1493031884205D14FF47411AE4A28
:1046C000083A11602DE0AC494831884205D14FF0DD
:1046D0007461A94A083A116023E0A7496031884211
:1046E00004D1A249A44A121F11601AE0A2497831EC
:1046F000884204D19E49A04A121F116011E09E49D0
:104700009031884204D19B499B4A121F116008E0F6
:104710009949A831884204D14FF03D51964A121F61
:104720001160704710B500220268944B1A40CC68A3
:104730000B6823434C6923438C692343CC6923438F
:104740000C6A23434C6A23438C6A23434C6B2343F8
:104750008C6B23431A430260426922F00702D1E9BD
:104760000B3423431A4342610B6943604B688360F7
:104770008B68C36010BD0021016041608160C16031
:10478000016141618161C161016241628162C16215
:10479000016341638163704721B1026842F0010205
:1047A000026003E0026822F001020260704721B15A
:1047B000026842F40042026003E0026822F4004210
:1047C0000260704721B1026842F02002026003E0FB
:1047D000026822F020020260704741607047014683
:1047E000486880B2704722B1036843F40023036035
:1047F00003E0036823F4002303600161704721B1E3
:10480000026842F48022026003E0026822F48022FF
:10481000026070470AB1016100E0C1607047014663
:1048200000200A6802F400220AB1012000E0002002
:104830007047014600200A6802F001020AB1012017
:1048400000E000207047014600204A6902F038006D
:10485000704730B503460A4600200024464DAB425F
:1048600002D24149103901E04349103902F00055A4
:104870000DB14C6800E00C68414D2C4004EA020583
:104880000DB1012000E0002030BD02463A4B9A42B3
:1048900002D23548103801E03748103801F0005393
:1048A0001BB1374B0B40C36002E0354B0B408360BC
:1048B000704710B501F080034BB122B1436943F05A
:1048C0008003436103E0436923F08003436180294F
:1048D0000BD02AB1036801F01E042343036004E0F7
:1048E000036801F01E04A343036010BD70B50246C7
:1048F000002000240025204EB24202D21A4B103B69
:1049000001E01D4B103B1F4E0E4036B11E2606EA3D
:10491000D124166806EA040502E0566906F080050F
:1049200001F000560EB15C6800E01C68144E344083
:1049300004EA010616B10DB1012000E0002070BDAF
:1049400002460D4B9A4202D20748103801E00A484D
:10495000103801F000531BB1094B0B40C36002E05B
:10496000074B0B4083607047106002403D00002001
:10497000400F002000003D20106402403F801CF0EA
:104980007D0F7D0F3C0F3C0F10B50121C802FFF7D2
:1049900082FD00214FF40060FFF77DFD10BD002176
:1049A0006C4A116847F6FF629143027D83681A439F
:1049B00043681A43C3681A4303681A4303691A43D6
:1049C0001143644A11607047002101750160416024
:1049D0008160C160016170475F49086070475D494F
:1049E000091F086070475B48001F006800F0030063
:1049F00070470021574B1B1D02681A601A1D116871
:104A00006FF30A01D0E901231A43C3681A4303690B
:104A10001A4311434F4A0832116070470021016068
:104A200041608160C160016170474A480C30006894
:104A3000C0B2704708B501460020009045481030CC
:104A4000084400900098006808BD0021414B2033C5
:104A500002681A601B1D42681A601A1D116821F055
:104A6000F701D0E902231A4303691A4343691A4341
:104A70001143384A2832116070474FF0FF3101600E
:104A8000002141608160C16001614161704731482E
:104A90002C30006870472F487C30006870472D49E3
:104AA0007C31086070472B484430006870472B49C0
:104AB000086070472949091D086070472749083177
:104AC0000860704725490C31086070472449086028
:104AD00070472349091D0860704701218143204A1E
:104AE0000832116070471E490C31086070471B493D
:104AF00014390860704739B1164A383212680243D7
:104B0000144B38331A6006E0124A38321268824376
:104B1000104B38331A607047014600200D4A30327E
:104B200012680A400AB1012000E0002070470949DC
:104B300034310860704701460020064A303212685E
:104B40000A400AB1012000E00020704701493431D9
:104B500008607047042C0140A0802542A0852542B2
:104B6000AC81254210B50446FE48844208D101219B
:104B70000846FFF790FC00210120FFF78CFC9DE028
:104B8000B4F1804F08D101210846FFF773FC0021E2
:104B90000120FFF76FFC91E0F348844208D1012126
:104BA0000220FFF767FC00210220FFF763FC85E08D
:104BB000EE48844208D101210420FFF75BFC00216C
:104BC0000420FFF757FC79E0E948844208D101212D
:104BD0000820FFF74FFC00210820FFF74BFC6DE099
:104BE000E448844208D101211020FFF743FC002152
:104BF0001020FFF73FFC61E0DF48844208D101212B
:104C00002020FFF737FC00212020FFF733FC55E080
:104C1000DA48844208D101210220FFF73CFC002140
:104C20000220FFF738FC49E0D548844209D1012130
:104C30000804FFF730FC00214FF48030FFF72BFC15
:104C40003CE0D048844209D101214804FFF723FC0D
:104C500000214FF40030FFF71EFC2FE0CA488442C9
:104C600009D101218804FFF716FC00214FF48020B0
:104C7000FFF711FC22E0C548844208D10121402001
:104C8000FFF7F8FB00214020FFF7F4FB16E0C048D7
:104C9000844208D101218020FFF7ECFB0021802015
:104CA000FFF7E8FB0AE0BB48844207D101218015E9
:104CB000FFF7E0FB0021A015FFF7DCFB10BD002291
:104CC0000288A84B98420ED0AC4B98420BD0B0F162
:104CD000804F08D0A44B984205D0A44B984202D0F4
:104CE000A34B984204D14FF68F731A404B881A4356
:104CF000A04B984207D0A04B984204D04FF6FF43F8
:104D00001A400B891A4302804B68C3620B880385E3
:104D1000944B984202D0994B984201D18B7A0386EA
:104D20000123838270474FF0FF31416000210180F1
:104D300001814180817270470185828270470A46F5
:104D4000002101884FF68F7319401143018070478D
:104D500041627047C16270470146486A7047014628
:104D6000088D704721B1028842F00202028004E0FF
:104D700002884FF6FD731A400280704721B1028805
:104D800042F00402028004E002884FF6FB731A40EE
:104D90000280704721B1028842F08002028004E064
:104DA00002884FF67F731A400280704702884FF6E0
:104DB000F7731A40028002880A4302807047028813
:104DC0004FF6FF431A40028002880A430280704770
:104DD00021B1028842F00102028004E002884FF60D
:104DE000FE731A400280704770B500240022002331
:104DF000058C4FF6FE7635400584028C8388048B43
:104E00004FF68F752C40B51E2C400D882C43751E17
:104E10002A408D892A434D882A43524DA84202D008
:104E2000564DA84213D14FF6F7752A40CD892A4333
:104E30004FF6FB752A408D882A434FF6FF652B40BD
:104E40004FF6FF552B400D8A2B434D8A2B43838011
:104E500004838D684563028470BD70B50024002210
:104E60000023058C4FF6EF7635400584028C83884D
:104E7000048B48F6FF752C404FF6FF452C400D88FB
:104E80004FF6FF7606EA05252C434FF6DF752A40DC
:104E90008D8906EA05152A434D8806EA05152A4339
:104EA000304DA84202D0354DA8421DD14FF67F7536
:104EB0002A40CD894FF6FF7606EA05152A434FF6BC
:104EC000BF752A408D8806EA05152A434FF6FF353F
:104ED0002B404FF2FF752B400D8A06EA85052B43C8
:104EE0004D8A06EA85052B43838004838D6885639C
:104EF000028470BD70B5002400220023058C4FF69B
:104F0000FF6635400584028C8388848B4FF68F754D
:104F10002C404FF6FC752C400D882C434FF6FF5566
:104F20002A408D894FF6FF7606EA05252A434D88EB
:104F300006EA05252A430B4DA84202D00F4DA84290
:104F400038D14FF2FF752A40CD894FF6FF7606EA39
:104F500005252A434FF6FF352A408D8806EA0525A8
:104F60002A4319E00000014000040040000800400E
:104F7000000C0040001000400014004000040140FC
:104F8000004001400044014000480140001800403A
:104F9000001C0040002000404EF6FF752B404DF6EF
:104FA000FF752B400D8A06EA05152B434D8A06EA4C
:104FB00005152B43838084838D68C563028470BD8F
:104FC00070B5002200230024058C4EF6FF76354094
:104FD0000584038C8488828B48F6FF752A404FF63F
:104FE000FF452A400D884FF6FF7606EA05252A433D
:104FF0004DF6FF752B408D8906EA05352B434D880C
:1050000006EA05352B43FE4DA84202D0FD4DA842CD
:1050100008D14BF6FF752C400D8A4FF6FF7606EA55
:1050200085152C43848082838D680564038470BD5C
:10503000002101804180818081608181C181018264
:105040004182704770B5034600200024184618308E
:1050500001258D40ACB21D8CA5431D8409B10829E2
:105060000AD100EB610005684FF68F763540056088
:105070000568154305600FE00D1FC5F34E05284474
:10508000056848F6FF763540056005684FF6FF76FF
:1050900006EA02263543056070BD416370478163AF
:1050A0007047C1637047016470470A460021018B55
:1050B0004FF68F7319401143018370470A46002150
:1050C000018B48F6FF7319404FF6FF7303EA022382
:1050D0001943018370470A460021818B4FF68F7375
:1050E00019401143818370470A460021818B48F69D
:1050F000FF7319404FF6FF7303EA022319438183BC
:1051000070470A460021018B4FF6F773194011438F
:10511000018370470A460021018B4FF2FF7319404B
:105120004FF6FF7303EA02231943018370470A46CF
:105130000021818B4FF6F77319401143818370472B
:105140000A460021818B4FF2FF7319404FF6FF731F
:1051500003EA02231943818370470A460021018B29
:105160004FF6FB7319401143018370470A46002133
:10517000018B4FF6FF3319404FF6FF7303EA02230A
:105180001943018370470A460021818B4FF6FB7358
:1051900019401143818370470A460021818B4FF6E5
:1051A000FF3319404FF6FF7303EA0223194381834B
:1051B00070470A460021018B4FF67F731940114357
:1051C000018370470A460021018BC1F30E014FF69F
:1051D000FF7303EA02231943018370470A46002143
:1051E000818B4FF67F7319401143818370470A46C4
:1051F0000021818BC1F30E014FF6FF7303EA0223F6
:105200001943818370470A460021018C4FF6FD73D4
:1052100019401143018470470A460021018C4FF662
:10522000F77319401143018470470A460021018C2D
:105230004FF6DF7319404FF6FF7303EA0213194369
:10524000018470470A460021018C4FF67F73194094
:105250004FF6FF7303EA02131943018470470A46AD
:105260000021018C4FF6FF5319404FF6FF7303EAFC
:1052700002231943018470470A460021018C4FF232
:10528000FF7319404FF6FF7303EA022319430184A9
:1052900070470A460021018C4DF6FF7319404FF606
:1052A000FF7303EA023319430184704730B50023CA
:1052B00001248C40A3B2048C9C430484048C02FA25
:1052C00001F5ADB22C43048430BD30B50023042475
:1052D0008C40A3B2048C9C430484048C02FA01F534
:1052E000ADB22C43048430BD828B4FF2FF331A40A1
:1052F0008283828B4FF6FF7303EA01231A43828372
:105300007047F0B50C461546002100220026078C98
:105310004EF6FF7C07EA0C070784818B028C4FF660
:10532000FF7707EA043640F6FF4739404FF6FF772C
:1053300007EA052739434FF6FF7707EA0337394372
:1053400045F6FF773A4046F480573A43818302841A
:10535000F0BD828B4FF6F3731A408283828B0A432F
:1053600082837047F0B50C461546002100220026C6
:10537000078C4FF6FF6C07EA0C070784818B028CC1
:105380004FF6FF7707EA04264FF60C7739404FF6C1
:10539000FF7707EA03172F4339434FF2FF573A408D
:1053A00046F480773A4381830284F0BD028B4FF24A
:1053B000FF331A400283028B4FF6FF7303EA012387
:1053C0001A4302837047F0B50C46154600210022AF
:1053D0000026078C4FF6EF7C07EA0C070784018B49
:1053E000028C4FF6FF7707EA041640F6FF47394074
:1053F0004FF6FF7707EA033739434FF6FF7703E0AD
:10540000000001400004014007EA052739434FF638
:105410005F773A4046F010073A4301830284F0BDBB
:10542000028B4FF6F3731A400283028B0A43028306
:105430007047F0B50C46154600210022068C4FF649
:10544000FE773E400684018B028C4FF60C7631408D
:105450007E1C06EA03162E4331434FF6F5763240A2
:1054600044F00106324301830284F0BD70B5054665
:105470000C46208850B92389A28861882846FFF706
:10548000D8FFE1882846FFF7CBFF25E020880428D5
:105490000AD12389A28861882846FFF794FFE18812
:1054A0002846FFF783FF17E0208808280AD12389C0
:1054B000A28861882846FFF755FFE1882846FFF754
:1054C00048FF09E02389A28861882846FFF719FF71
:1054D000E1882846FFF708FF70BD00210180418068
:1054E000012181800021C180018170472DE9F041B7
:1054F00005460C4600260127608808B9022600E010
:105500000026A088012801D1022700E00127208879
:10551000A0B92389A28861882846FFF78AFFE1881D
:105520002846FFF77DFF23893A4631462846FFF794
:105530004AFFE1882846FFF739FF13E02389A28854
:1055400061882846FFF73FFFE1882846FFF72EFFD6
:1055500023893A4631462846FFF76BFFE188284603
:10556000FFF75EFFBDE8F0810146486B70470146DA
:10557000886B70470146C86B70470146086C7047DE
:105580000A884B881A438B881A43CB881A430B89A5
:105590001A434B891A438B891A43A0F84420704759
:1055A0000021018041808180C18001814181818110
:1055B000704731B1B0F8442042F40042A0F84420D2
:1055C00005E0B0F84420C2F30E02A0F84420704772
:1055D00021B1828842F00402828004E082884FF682
:1055E000FB731A408280704721B1828842F0010229
:1055F000828004E082884FF6FE731A4082807047F2
:105600001AB183890B43838102E083898B438381B1
:1056100070478182704702460020138A0B400BB10D
:10562000012000E000207047CA430282704730B575
:105630000246002000230024158A05EA010395890B
:1056400005EA010413B10CB1012000E0002030BDD7
:10565000CA430282704741EA0203A0F8483070470B
:105660001AB183890B43838102E083898B43838151
:10567000704721B1828842F00802828004E082886B
:105680004FF6F7731A408280704701894FF6F8721F
:105690001140018170470A46002101894FF68F733E
:1056A000194011430181704730B504460D46294623
:1056B0002046FFF7F0FF208940F00700208130BD31
:1056C0002DE9F04104460D4616461F46602D06D1D1
:1056D0003B46012231462046FFF775FE05E03B467A
:1056E000012231462046FFF7A4FE29462046FFF757
:1056F000D2FF208940F007002081BDE8F08130B55D
:105700000C4600210189C9B24FF6FF7505EA032551
:10571000154325432943018130BD2DE9F04105465C
:105720000E4617469846002443463A4631462846D8
:10573000FFF7E5FF2C894FF6F870044044F00704AA
:105740004FF68F70044044F070042C81BDE8F08166
:10575000F0B504460D4616461F463B4632462946DE
:105760002046FFF7CCFF208940F480402081F0BD27
:1057700082884FF68F731A40828082880A43828023
:10578000704702894FF6F8731A40028102890A4372
:105790000281704702894FF67F731A4002810289A5
:1057A0000A4302817047F0B50C4615461E4600219B
:1057B000002200230189028B038C4FF6F8773940D1
:1057C00021434FF6FC473A4040F201173A434FF667
:1057D000DD773B404FF6FF7707EA06172F433B4341
:1057E000018102830384F0BD21B1828842F08002EE
:1057F000828004E082884FF67F731A40828070476F
:10580000A0F850107047000010B56FF00400FEF7CC
:1058100051FA1520394908700846007800EB40011C
:10582000C1EBC0104FF6FF7101EAC0003449088097
:1058300010BD0146314A12784A434FF0E0235A61C5
:1058400000229A611A46126942F001021A6100BFF1
:105850004FF0E022106900F001021AB100F480322A
:10586000002AF5D04FF0E022126922F001024FF039
:10587000E0231A6100229A6170470146204A12888B
:105880004A434FF0E0235A6100229A611A46126996
:1058900042F001021A6100BF4FF0E022106900F0EF
:1058A00001021AB100F48032002AF5D04FF0E02254
:1058B000126922F001024FF0E0231A6100229A617E
:1058C000704770B504464FF4077094FBF0F0C6B211
:1058D0004FF4077094FBF0F100FB114085B205E036
:1058E0004FF40770FFF7C9FF701EC6B2002EF7D144
:1058F00015B12846FFF7C1FF70BD0000B4000020BD
:10590000B6000020032A40F2308010F0030C00F0B3
:10591000158011F8013BBCF1020F624498BF11F8E9
:1059200001CB00F8013B38BF11F8013BA2F10402A2
:1059300098BF00F801CB38BF00F8013B11F003031A
:1059400000F02880083AC0F0088051F8043B083A7B
:1059500051F804CBA0E80810F5E7121D5CBF51F820
:10596000043B40F8043BAFF30080D20724BF11F89A
:10597000013B11F801CB48BF11F8012B24BF00F8FF
:10598000013B00F801CB48BF00F8012B704770477E
:105990007047704710B5203AC0F00B80B1E818503E
:1059A000203AA0E81850B1E81850A0E81850BFF409
:1059B000F5AF5FEA027C24BFB1E81850A0E81850A8
:1059C00044BF18C918C0BDE810405FEA827C24BFFC
:1059D00051F8043B40F8043B08BF7047D20728BF8A
:1059E00031F8023B48BF11F8012B28BF20F8023BD9
:1059F00048BF00F8012B7047754600F02BF8AE4603
:105A000005006946534620F00700854618B020B5CA
:105A1000FAF7D2FCBDE820404FF000064FF0000737
:105A20004FF000084FF0000B21F00701AC46ACE846
:105A3000C009ACE8C009ACE8C009ACE8C0098D46B3
:105A4000704710B50446AFF300802046BDE8104013
:105A5000FAF7E3BB00487047D8030020014918203B
:105A6000ABBEFEE7260002007047491058BFC1F1E7
:105A700040415B1058BFC3F140438B42EFF30080BD
:105A8000704700002DE9C04130B4DFF8A0C23CEA05
:105A9000111418BF3CEA131400F0EC8081EA0305EE
:105AA0001CEA111444EAD57418BF1CEA131500F05F
:105AB000C780A4EB05044FF0004545EAC12145EA43
:105AC000C32341EA505143EA525304F17F7499428F
:105AD00004F500344FEAC0204FEAC22208BF9042CA
